{
	"FundMe.sol": {
		"FundMe": {
			"abi": [
				{
					"inputs": [
						{
							"internalType": "address",
							"name": "funder",
							"type": "address"
						}
					],
					"name": "addressToFundedAmount",
					"outputs": [
						{
							"internalType": "uint256",
							"name": "amountFunded",
							"type": "uint256"
						}
					],
					"stateMutability": "view",
					"type": "function"
				},
				{
					"inputs": [],
					"name": "fund",
					"outputs": [],
					"stateMutability": "payable",
					"type": "function"
				},
				{
					"inputs": [
						{
							"internalType": "uint256",
							"name": "",
							"type": "uint256"
						}
					],
					"name": "funders",
					"outputs": [
						{
							"internalType": "address",
							"name": "",
							"type": "address"
						}
					],
					"stateMutability": "view",
					"type": "function"
				},
				{
					"inputs": [],
					"name": "withdraw",
					"outputs": [],
					"stateMutability": "nonpayable",
					"type": "function"
				}
			],
			"devdoc": {
				"kind": "dev",
				"methods": {},
				"version": 1
			},
			"evm": {
				"assembly": "    /* \"FundMe.sol\":198:1316  contract FundMe{... */\n  mstore(0x40, 0x80)\n    /* \"FundMe.sol\":283:287  5e18 */\n  0x4563918244f40000\n    /* \"FundMe.sol\":259:287  uint256 minimumDollar = 5e18 */\n  0x00\n  sstore\n    /* \"FundMe.sol\":198:1316  contract FundMe{... */\n  callvalue\n  dup1\n  iszero\n  tag_1\n  jumpi\n  0x00\n  dup1\n  revert\ntag_1:\n  pop\n  dataSize(sub_0)\n  dup1\n  dataOffset(sub_0)\n  0x00\n  codecopy\n  0x00\n  return\nstop\n\nsub_0: assembly {\n        /* \"FundMe.sol\":198:1316  contract FundMe{... */\n      mstore(0x40, 0x80)\n      jumpi(tag_1, lt(calldatasize, 0x04))\n      shr(0xe0, calldataload(0x00))\n      dup1\n      0x3ccfd60b\n      eq\n      tag_2\n      jumpi\n      dup1\n      0xb60d4288\n      eq\n      tag_3\n      jumpi\n      dup1\n      0xd1fa2baa\n      eq\n      tag_4\n      jumpi\n      dup1\n      0xdc0d3dff\n      eq\n      tag_5\n      jumpi\n    tag_1:\n      0x00\n      dup1\n      revert\n        /* \"FundMe.sol\":855:1313  function withdraw() public {... */\n    tag_2:\n      callvalue\n      dup1\n      iszero\n      tag_6\n      jumpi\n      0x00\n      dup1\n      revert\n    tag_6:\n      pop\n      tag_7\n      tag_8\n      jump\t// in\n    tag_7:\n      stop\n        /* \"FundMe.sol\":556:850  function fund() public payable {... */\n    tag_3:\n      tag_9\n      tag_10\n      jump\t// in\n    tag_9:\n      stop\n        /* \"FundMe.sol\":473:549  mapping(address funder => uint256 amountFunded) public addressToFundedAmount */\n    tag_4:\n      callvalue\n      dup1\n      iszero\n      tag_11\n      jumpi\n      0x00\n      dup1\n      revert\n    tag_11:\n      pop\n      tag_12\n      0x04\n      dup1\n      calldatasize\n      sub\n      dup2\n      add\n      swap1\n      tag_13\n      swap2\n      swap1\n      tag_14\n      jump\t// in\n    tag_13:\n      tag_15\n      jump\t// in\n    tag_12:\n      mload(0x40)\n      tag_16\n      swap2\n      swap1\n      tag_17\n      jump\t// in\n    tag_16:\n      mload(0x40)\n      dup1\n      swap2\n      sub\n      swap1\n      return\n        /* \"FundMe.sol\":394:418  address[] public funders */\n    tag_5:\n      callvalue\n      dup1\n      iszero\n      tag_18\n      jumpi\n      0x00\n      dup1\n      revert\n    tag_18:\n      pop\n      tag_19\n      0x04\n      dup1\n      calldatasize\n      sub\n      dup2\n      add\n      swap1\n      tag_20\n      swap2\n      swap1\n      tag_21\n      jump\t// in\n    tag_20:\n      tag_22\n      jump\t// in\n    tag_19:\n      mload(0x40)\n      tag_23\n      swap2\n      swap1\n      tag_24\n      jump\t// in\n    tag_23:\n      mload(0x40)\n      dup1\n      swap2\n      sub\n      swap1\n      return\n        /* \"FundMe.sol\":855:1313  function withdraw() public {... */\n    tag_8:\n        /* \"FundMe.sol\":897:917  uint256 fundersIndex */\n      0x00\n        /* \"FundMe.sol\":892:1085  for (uint256 fundersIndex=0; fundersIndex<funders.length; fundersIndex++) ... */\n    tag_26:\n        /* \"FundMe.sol\":934:941  funders */\n      0x01\n        /* \"FundMe.sol\":934:948  funders.length */\n      dup1\n      sload\n      swap1\n      pop\n        /* \"FundMe.sol\":921:933  fundersIndex */\n      dup2\n        /* \"FundMe.sol\":921:948  fundersIndex<funders.length */\n      lt\n        /* \"FundMe.sol\":892:1085  for (uint256 fundersIndex=0; fundersIndex<funders.length; fundersIndex++) ... */\n      iszero\n      tag_27\n      jumpi\n        /* \"FundMe.sol\":989:1003  address funder */\n      0x00\n        /* \"FundMe.sol\":1006:1013  funders */\n      0x01\n        /* \"FundMe.sol\":1014:1026  fundersIndex */\n      dup3\n        /* \"FundMe.sol\":1006:1027  funders[fundersIndex] */\n      dup2\n      sload\n      dup2\n      lt\n      tag_29\n      jumpi\n      tag_30\n      tag_31\n      jump\t// in\n    tag_30:\n    tag_29:\n      swap1\n      0x00\n      mstore\n      keccak256(0x00, 0x20)\n      add\n      0x00\n      swap1\n      sload\n      swap1\n      0x0100\n      exp\n      swap1\n      div\n      0xffffffffffffffffffffffffffffffffffffffff\n      and\n        /* \"FundMe.sol\":989:1027  address funder = funders[fundersIndex] */\n      swap1\n      pop\n        /* \"FundMe.sol\":1073:1074  0 */\n      0x00\n        /* \"FundMe.sol\":1041:1062  addressToFundedAmount */\n      0x02\n        /* \"FundMe.sol\":1041:1070  addressToFundedAmount[funder] */\n      0x00\n        /* \"FundMe.sol\":1063:1069  funder */\n      dup4\n        /* \"FundMe.sol\":1041:1070  addressToFundedAmount[funder] */\n      0xffffffffffffffffffffffffffffffffffffffff\n      and\n      0xffffffffffffffffffffffffffffffffffffffff\n      and\n      dup2\n      mstore\n      0x20\n      add\n      swap1\n      dup2\n      mstore\n      0x20\n      add\n      0x00\n      keccak256\n        /* \"FundMe.sol\":1041:1074  addressToFundedAmount[funder] = 0 */\n      dup2\n      swap1\n      sstore\n      pop\n        /* \"FundMe.sol\":975:1085  {... */\n      pop\n        /* \"FundMe.sol\":950:964  fundersIndex++ */\n      dup1\n      dup1\n      0x01\n      add\n      swap2\n      pop\n      pop\n        /* \"FundMe.sol\":892:1085  for (uint256 fundersIndex=0; fundersIndex<funders.length; fundersIndex++) ... */\n      jump(tag_26)\n    tag_27:\n      pop\n        /* \"FundMe.sol\":1145:1146  0 */\n      0x00\n        /* \"FundMe.sol\":1131:1147  new address[](0) */\n      0xffffffffffffffff\n      dup2\n      gt\n      iszero\n      tag_33\n      jumpi\n      tag_34\n      tag_35\n      jump\t// in\n    tag_34:\n    tag_33:\n      mload(0x40)\n      swap1\n      dup1\n      dup3\n      mstore\n      dup1\n      0x20\n      mul\n      0x20\n      add\n      dup3\n      add\n      0x40\n      mstore\n      dup1\n      iszero\n      tag_36\n      jumpi\n      dup2\n      0x20\n      add\n      0x20\n      dup3\n      mul\n      dup1\n      calldatasize\n      dup4\n      calldatacopy\n      dup1\n      dup3\n      add\n      swap2\n      pop\n      pop\n      swap1\n      pop\n    tag_36:\n      pop\n        /* \"FundMe.sol\":1121:1128  funders */\n      0x01\n        /* \"FundMe.sol\":1121:1147  funders = new address[](0) */\n      swap1\n      dup1\n      mload\n      swap1\n      0x20\n      add\n      swap1\n      tag_37\n      swap3\n      swap2\n      swap1\n      tag_38\n      jump\t// in\n    tag_37:\n      pop\n        /* \"FundMe.sol\":1219:1229  msg.sender */\n      caller\n        /* \"FundMe.sol\":1211:1239  payable(msg.sender).transfer */\n      0xffffffffffffffffffffffffffffffffffffffff\n      and\n        /* \"FundMe.sol\":1211:1262  payable(msg.sender).transfer(address(this).balance) */\n      0x08fc\n        /* \"FundMe.sol\":1240:1261  address(this).balance */\n      selfbalance\n        /* \"FundMe.sol\":1211:1262  payable(msg.sender).transfer(address(this).balance) */\n      swap1\n      dup2\n      iszero\n      mul\n      swap1\n      mload(0x40)\n      0x00\n      mload(0x40)\n      dup1\n      dup4\n      sub\n      dup2\n      dup6\n      dup9\n      dup9\n      call\n      swap4\n      pop\n      pop\n      pop\n      pop\n      iszero\n      dup1\n      iszero\n      tag_40\n      jumpi\n      returndatasize\n      0x00\n      dup1\n      returndatacopy\n      revert(0x00, returndatasize)\n    tag_40:\n      pop\n        /* \"FundMe.sol\":855:1313  function withdraw() public {... */\n      jump\t// out\n        /* \"FundMe.sol\":556:850  function fund() public payable {... */\n    tag_10:\n        /* \"FundMe.sol\":638:651  minimumDollar */\n      sload(0x00)\n        /* \"FundMe.sol\":605:634  msg.value.getConversionRate() */\n      tag_42\n        /* \"FundMe.sol\":605:614  msg.value */\n      callvalue\n        /* \"FundMe.sol\":605:632  msg.value.getConversionRate */\n      tag_43\n        /* \"FundMe.sol\":605:634  msg.value.getConversionRate() */\n      jump\t// in\n    tag_42:\n        /* \"FundMe.sol\":605:651  msg.value.getConversionRate() >= minimumDollar */\n      lt\n      iszero\n        /* \"FundMe.sol\":597:682  require(msg.value.getConversionRate() >= minimumDollar,\"Didn't send enough Dollars!\") */\n      tag_44\n      jumpi\n      mload(0x40)\n      0x08c379a000000000000000000000000000000000000000000000000000000000\n      dup2\n      mstore\n      0x04\n      add\n      tag_45\n      swap1\n      tag_46\n      jump\t// in\n    tag_45:\n      mload(0x40)\n      dup1\n      swap2\n      sub\n      swap1\n      revert\n    tag_44:\n        /* \"FundMe.sol\":707:714  funders */\n      0x01\n        /* \"FundMe.sol\":720:730  msg.sender */\n      caller\n        /* \"FundMe.sol\":707:731  funders.push(msg.sender) */\n      swap1\n      dup1\n      0x01\n      dup2\n      sload\n      add\n      dup1\n      dup3\n      sstore\n      dup1\n      swap2\n      pop\n      pop\n      0x01\n      swap1\n      sub\n      swap1\n      0x00\n      mstore\n      keccak256(0x00, 0x20)\n      add\n      0x00\n      swap1\n      swap2\n      swap1\n      swap2\n      swap1\n      swap2\n      0x0100\n      exp\n      dup2\n      sload\n      dup2\n      0xffffffffffffffffffffffffffffffffffffffff\n      mul\n      not\n      and\n      swap1\n      dup4\n      0xffffffffffffffffffffffffffffffffffffffff\n      and\n      mul\n      or\n      swap1\n      sstore\n      pop\n        /* \"FundMe.sol\":834:843  msg.value */\n      callvalue\n        /* \"FundMe.sol\":797:818  addressToFundedAmount */\n      0x02\n        /* \"FundMe.sol\":797:830  addressToFundedAmount[msg.sender] */\n      0x00\n        /* \"FundMe.sol\":819:829  msg.sender */\n      caller\n        /* \"FundMe.sol\":797:830  addressToFundedAmount[msg.sender] */\n      0xffffffffffffffffffffffffffffffffffffffff\n      and\n      0xffffffffffffffffffffffffffffffffffffffff\n      and\n      dup2\n      mstore\n      0x20\n      add\n      swap1\n      dup2\n      mstore\n      0x20\n      add\n      0x00\n      keccak256\n      0x00\n        /* \"FundMe.sol\":797:843  addressToFundedAmount[msg.sender] += msg.value */\n      dup3\n      dup3\n      sload\n      tag_48\n      swap2\n      swap1\n      tag_49\n      jump\t// in\n    tag_48:\n      swap3\n      pop\n      pop\n      dup2\n      swap1\n      sstore\n      pop\n        /* \"FundMe.sol\":556:850  function fund() public payable {... */\n      jump\t// out\n        /* \"FundMe.sol\":473:549  mapping(address funder => uint256 amountFunded) public addressToFundedAmount */\n    tag_15:\n      mstore(0x20, 0x02)\n      dup1\n      0x00\n      mstore\n      keccak256(0x00, 0x40)\n      0x00\n      swap2\n      pop\n      swap1\n      pop\n      sload\n      dup2\n      jump\t// out\n        /* \"FundMe.sol\":394:418  address[] public funders */\n    tag_22:\n      0x01\n      dup2\n      dup2\n      sload\n      dup2\n      lt\n      tag_50\n      jumpi\n      0x00\n      dup1\n      revert\n    tag_50:\n      swap1\n      0x00\n      mstore\n      keccak256(0x00, 0x20)\n      add\n      0x00\n      swap2\n      pop\n      sload\n      swap1\n      0x0100\n      exp\n      swap1\n      div\n      0xffffffffffffffffffffffffffffffffffffffff\n      and\n      dup2\n      jump\t// out\n        /* \"PriceConverter.sol\":714:1012  function getConversionRate(uint256 ethAmount) internal  view returns(uint256){... */\n    tag_43:\n        /* \"PriceConverter.sol\":783:790  uint256 */\n      0x00\n        /* \"PriceConverter.sol\":801:822  uint256 ethPriceInUSD */\n      dup1\n        /* \"PriceConverter.sol\":825:835  getPrice() */\n      tag_53\n        /* \"PriceConverter.sol\":825:833  getPrice */\n      tag_54\n        /* \"PriceConverter.sol\":825:835  getPrice() */\n      jump\t// in\n    tag_53:\n        /* \"PriceConverter.sol\":801:835  uint256 ethPriceInUSD = getPrice() */\n      swap1\n      pop\n        /* \"PriceConverter.sol\":881:907  uint256 totalEthPriceInUSD */\n      0x00\n        /* \"PriceConverter.sol\":940:944  1e18 */\n      0x0de0b6b3a7640000\n        /* \"PriceConverter.sol\":927:936  ethAmount */\n      dup5\n        /* \"PriceConverter.sol\":911:924  ethPriceInUSD */\n      dup4\n        /* \"PriceConverter.sol\":911:936  ethPriceInUSD * ethAmount */\n      tag_55\n      swap2\n      swap1\n      tag_56\n      jump\t// in\n    tag_55:\n        /* \"PriceConverter.sol\":910:944  (ethPriceInUSD * ethAmount) / 1e18 */\n      tag_57\n      swap2\n      swap1\n      tag_58\n      jump\t// in\n    tag_57:\n        /* \"PriceConverter.sol\":881:944  uint256 totalEthPriceInUSD = (ethPriceInUSD * ethAmount) / 1e18 */\n      swap1\n      pop\n        /* \"PriceConverter.sol\":987:1005  totalEthPriceInUSD */\n      dup1\n        /* \"PriceConverter.sol\":980:1005  return totalEthPriceInUSD */\n      swap3\n      pop\n      pop\n      pop\n        /* \"PriceConverter.sol\":714:1012  function getConversionRate(uint256 ethAmount) internal  view returns(uint256){... */\n      swap2\n      swap1\n      pop\n      jump\t// out\n        /* \"PriceConverter.sol\":202:705  function getPrice() internal view returns(uint256){... */\n    tag_54:\n        /* \"PriceConverter.sol\":244:251  uint256 */\n      0x00\n        /* \"PriceConverter.sol\":352:383  AggregatorV3Interface priceFeed */\n      dup1\n        /* \"PriceConverter.sol\":408:450  0x694AA1769357215DE4FAC081bf1f309aDC325306 */\n      0x694aa1769357215de4fac081bf1f309adc325306\n        /* \"PriceConverter.sol\":352:451  AggregatorV3Interface priceFeed = AggregatorV3Interface(0x694AA1769357215DE4FAC081bf1f309aDC325306) */\n      swap1\n      pop\n        /* \"PriceConverter.sol\":464:477  int256 answer */\n      0x00\n        /* \"PriceConverter.sol\":484:493  priceFeed */\n      dup2\n        /* \"PriceConverter.sol\":484:509  priceFeed.latestRoundData */\n      0xffffffffffffffffffffffffffffffffffffffff\n      and\n      0xfeaf968c\n        /* \"PriceConverter.sol\":484:511  priceFeed.latestRoundData() */\n      mload(0x40)\n      dup2\n      0xffffffff\n      and\n      0xe0\n      shl\n      dup2\n      mstore\n      0x04\n      add\n      0xa0\n      mload(0x40)\n      dup1\n      dup4\n      sub\n      dup2\n      dup7\n      gas\n      staticcall\n      iszero\n      dup1\n      iszero\n      tag_61\n      jumpi\n      returndatasize\n      0x00\n      dup1\n      returndatacopy\n      revert(0x00, returndatasize)\n    tag_61:\n      pop\n      pop\n      pop\n      pop\n      mload(0x40)\n      returndatasize\n      not(0x1f)\n      0x1f\n      dup3\n      add\n      and\n      dup3\n      add\n      dup1\n      0x40\n      mstore\n      pop\n      dup2\n      add\n      swap1\n      tag_62\n      swap2\n      swap1\n      tag_63\n      jump\t// in\n    tag_62:\n        /* \"PriceConverter.sol\":461:511  (, int256 answer,,,) = priceFeed.latestRoundData() */\n      pop\n      pop\n      pop\n      swap2\n      pop\n      pop\n        /* \"PriceConverter.sol\":654:658  1e10 */\n      0x02540be400\n        /* \"PriceConverter.sol\":645:651  answer */\n      dup2\n        /* \"PriceConverter.sol\":645:658  answer * 1e10 */\n      tag_64\n      swap2\n      swap1\n      tag_65\n      jump\t// in\n    tag_64:\n        /* \"PriceConverter.sol\":630:659  return uint256(answer * 1e10) */\n      swap3\n      pop\n      pop\n      pop\n        /* \"PriceConverter.sol\":202:705  function getPrice() internal view returns(uint256){... */\n      swap1\n      jump\t// out\n    tag_38:\n      dup3\n      dup1\n      sload\n      dup3\n      dup3\n      sstore\n      swap1\n      0x00\n      mstore\n      keccak256(0x00, 0x20)\n      swap1\n      dup2\n      add\n      swap3\n      dup3\n      iszero\n      tag_66\n      jumpi\n      swap2\n      0x20\n      mul\n      dup3\n      add\n    tag_67:\n      dup3\n      dup2\n      gt\n      iszero\n      tag_68\n      jumpi\n      dup3\n      mload\n      dup3\n      exp(0x0100, 0x00)\n      dup2\n      sload\n      dup2\n      0xffffffffffffffffffffffffffffffffffffffff\n      mul\n      not\n      and\n      swap1\n      dup4\n      0xffffffffffffffffffffffffffffffffffffffff\n      and\n      mul\n      or\n      swap1\n      sstore\n      pop\n      swap2\n      0x20\n      add\n      swap2\n      swap1\n      0x01\n      add\n      swap1\n      jump(tag_67)\n    tag_68:\n    tag_66:\n      pop\n      swap1\n      pop\n      tag_69\n      swap2\n      swap1\n      tag_70\n      jump\t// in\n    tag_69:\n      pop\n      swap1\n      jump\t// out\n    tag_70:\n    tag_71:\n      dup1\n      dup3\n      gt\n      iszero\n      tag_72\n      jumpi\n      0x00\n      dup2\n      0x00\n      swap1\n      sstore\n      pop\n      0x01\n      add\n      jump(tag_71)\n    tag_72:\n      pop\n      swap1\n      jump\t// out\n        /* \"#utility.yul\":88:205   */\n    tag_74:\n        /* \"#utility.yul\":197:198   */\n      0x00\n        /* \"#utility.yul\":194:195   */\n      dup1\n        /* \"#utility.yul\":187:199   */\n      revert\n        /* \"#utility.yul\":334:460   */\n    tag_76:\n        /* \"#utility.yul\":371:378   */\n      0x00\n        /* \"#utility.yul\":411:453   */\n      0xffffffffffffffffffffffffffffffffffffffff\n        /* \"#utility.yul\":404:409   */\n      dup3\n        /* \"#utility.yul\":400:454   */\n      and\n        /* \"#utility.yul\":389:454   */\n      swap1\n      pop\n        /* \"#utility.yul\":334:460   */\n      swap2\n      swap1\n      pop\n      jump\t// out\n        /* \"#utility.yul\":466:562   */\n    tag_77:\n        /* \"#utility.yul\":503:510   */\n      0x00\n        /* \"#utility.yul\":532:556   */\n      tag_103\n        /* \"#utility.yul\":550:555   */\n      dup3\n        /* \"#utility.yul\":532:556   */\n      tag_76\n      jump\t// in\n    tag_103:\n        /* \"#utility.yul\":521:556   */\n      swap1\n      pop\n        /* \"#utility.yul\":466:562   */\n      swap2\n      swap1\n      pop\n      jump\t// out\n        /* \"#utility.yul\":568:690   */\n    tag_78:\n        /* \"#utility.yul\":641:665   */\n      tag_105\n        /* \"#utility.yul\":659:664   */\n      dup2\n        /* \"#utility.yul\":641:665   */\n      tag_77\n      jump\t// in\n    tag_105:\n        /* \"#utility.yul\":634:639   */\n      dup2\n        /* \"#utility.yul\":631:666   */\n      eq\n        /* \"#utility.yul\":621:684   */\n      tag_106\n      jumpi\n        /* \"#utility.yul\":680:681   */\n      0x00\n        /* \"#utility.yul\":677:678   */\n      dup1\n        /* \"#utility.yul\":670:682   */\n      revert\n        /* \"#utility.yul\":621:684   */\n    tag_106:\n        /* \"#utility.yul\":568:690   */\n      pop\n      jump\t// out\n        /* \"#utility.yul\":696:835   */\n    tag_79:\n        /* \"#utility.yul\":742:747   */\n      0x00\n        /* \"#utility.yul\":780:786   */\n      dup2\n        /* \"#utility.yul\":767:787   */\n      calldataload\n        /* \"#utility.yul\":758:787   */\n      swap1\n      pop\n        /* \"#utility.yul\":796:829   */\n      tag_108\n        /* \"#utility.yul\":823:828   */\n      dup2\n        /* \"#utility.yul\":796:829   */\n      tag_78\n      jump\t// in\n    tag_108:\n        /* \"#utility.yul\":696:835   */\n      swap3\n      swap2\n      pop\n      pop\n      jump\t// out\n        /* \"#utility.yul\":841:1170   */\n    tag_14:\n        /* \"#utility.yul\":900:906   */\n      0x00\n        /* \"#utility.yul\":949:951   */\n      0x20\n        /* \"#utility.yul\":937:946   */\n      dup3\n        /* \"#utility.yul\":928:935   */\n      dup5\n        /* \"#utility.yul\":924:947   */\n      sub\n        /* \"#utility.yul\":920:952   */\n      slt\n        /* \"#utility.yul\":917:1036   */\n      iszero\n      tag_110\n      jumpi\n        /* \"#utility.yul\":955:1034   */\n      tag_111\n      tag_74\n      jump\t// in\n    tag_111:\n        /* \"#utility.yul\":917:1036   */\n    tag_110:\n        /* \"#utility.yul\":1075:1076   */\n      0x00\n        /* \"#utility.yul\":1100:1153   */\n      tag_112\n        /* \"#utility.yul\":1145:1152   */\n      dup5\n        /* \"#utility.yul\":1136:1142   */\n      dup3\n        /* \"#utility.yul\":1125:1134   */\n      dup6\n        /* \"#utility.yul\":1121:1143   */\n      add\n        /* \"#utility.yul\":1100:1153   */\n      tag_79\n      jump\t// in\n    tag_112:\n        /* \"#utility.yul\":1090:1153   */\n      swap2\n      pop\n        /* \"#utility.yul\":1046:1163   */\n      pop\n        /* \"#utility.yul\":841:1170   */\n      swap3\n      swap2\n      pop\n      pop\n      jump\t// out\n        /* \"#utility.yul\":1176:1253   */\n    tag_80:\n        /* \"#utility.yul\":1213:1220   */\n      0x00\n        /* \"#utility.yul\":1242:1247   */\n      dup2\n        /* \"#utility.yul\":1231:1247   */\n      swap1\n      pop\n        /* \"#utility.yul\":1176:1253   */\n      swap2\n      swap1\n      pop\n      jump\t// out\n        /* \"#utility.yul\":1259:1377   */\n    tag_81:\n        /* \"#utility.yul\":1346:1370   */\n      tag_115\n        /* \"#utility.yul\":1364:1369   */\n      dup2\n        /* \"#utility.yul\":1346:1370   */\n      tag_80\n      jump\t// in\n    tag_115:\n        /* \"#utility.yul\":1341:1344   */\n      dup3\n        /* \"#utility.yul\":1334:1371   */\n      mstore\n        /* \"#utility.yul\":1259:1377   */\n      pop\n      pop\n      jump\t// out\n        /* \"#utility.yul\":1383:1605   */\n    tag_17:\n        /* \"#utility.yul\":1476:1480   */\n      0x00\n        /* \"#utility.yul\":1514:1516   */\n      0x20\n        /* \"#utility.yul\":1503:1512   */\n      dup3\n        /* \"#utility.yul\":1499:1517   */\n      add\n        /* \"#utility.yul\":1491:1517   */\n      swap1\n      pop\n        /* \"#utility.yul\":1527:1598   */\n      tag_117\n        /* \"#utility.yul\":1595:1596   */\n      0x00\n        /* \"#utility.yul\":1584:1593   */\n      dup4\n        /* \"#utility.yul\":1580:1597   */\n      add\n        /* \"#utility.yul\":1571:1577   */\n      dup5\n        /* \"#utility.yul\":1527:1598   */\n      tag_81\n      jump\t// in\n    tag_117:\n        /* \"#utility.yul\":1383:1605   */\n      swap3\n      swap2\n      pop\n      pop\n      jump\t// out\n        /* \"#utility.yul\":1611:1733   */\n    tag_82:\n        /* \"#utility.yul\":1684:1708   */\n      tag_119\n        /* \"#utility.yul\":1702:1707   */\n      dup2\n        /* \"#utility.yul\":1684:1708   */\n      tag_80\n      jump\t// in\n    tag_119:\n        /* \"#utility.yul\":1677:1682   */\n      dup2\n        /* \"#utility.yul\":1674:1709   */\n      eq\n        /* \"#utility.yul\":1664:1727   */\n      tag_120\n      jumpi\n        /* \"#utility.yul\":1723:1724   */\n      0x00\n        /* \"#utility.yul\":1720:1721   */\n      dup1\n        /* \"#utility.yul\":1713:1725   */\n      revert\n        /* \"#utility.yul\":1664:1727   */\n    tag_120:\n        /* \"#utility.yul\":1611:1733   */\n      pop\n      jump\t// out\n        /* \"#utility.yul\":1739:1878   */\n    tag_83:\n        /* \"#utility.yul\":1785:1790   */\n      0x00\n        /* \"#utility.yul\":1823:1829   */\n      dup2\n        /* \"#utility.yul\":1810:1830   */\n      calldataload\n        /* \"#utility.yul\":1801:1830   */\n      swap1\n      pop\n        /* \"#utility.yul\":1839:1872   */\n      tag_122\n        /* \"#utility.yul\":1866:1871   */\n      dup2\n        /* \"#utility.yul\":1839:1872   */\n      tag_82\n      jump\t// in\n    tag_122:\n        /* \"#utility.yul\":1739:1878   */\n      swap3\n      swap2\n      pop\n      pop\n      jump\t// out\n        /* \"#utility.yul\":1884:2213   */\n    tag_21:\n        /* \"#utility.yul\":1943:1949   */\n      0x00\n        /* \"#utility.yul\":1992:1994   */\n      0x20\n        /* \"#utility.yul\":1980:1989   */\n      dup3\n        /* \"#utility.yul\":1971:1978   */\n      dup5\n        /* \"#utility.yul\":1967:1990   */\n      sub\n        /* \"#utility.yul\":1963:1995   */\n      slt\n        /* \"#utility.yul\":1960:2079   */\n      iszero\n      tag_124\n      jumpi\n        /* \"#utility.yul\":1998:2077   */\n      tag_125\n      tag_74\n      jump\t// in\n    tag_125:\n        /* \"#utility.yul\":1960:2079   */\n    tag_124:\n        /* \"#utility.yul\":2118:2119   */\n      0x00\n        /* \"#utility.yul\":2143:2196   */\n      tag_126\n        /* \"#utility.yul\":2188:2195   */\n      dup5\n        /* \"#utility.yul\":2179:2185   */\n      dup3\n        /* \"#utility.yul\":2168:2177   */\n      dup6\n        /* \"#utility.yul\":2164:2186   */\n      add\n        /* \"#utility.yul\":2143:2196   */\n      tag_83\n      jump\t// in\n    tag_126:\n        /* \"#utility.yul\":2133:2196   */\n      swap2\n      pop\n        /* \"#utility.yul\":2089:2206   */\n      pop\n        /* \"#utility.yul\":1884:2213   */\n      swap3\n      swap2\n      pop\n      pop\n      jump\t// out\n        /* \"#utility.yul\":2219:2337   */\n    tag_84:\n        /* \"#utility.yul\":2306:2330   */\n      tag_128\n        /* \"#utility.yul\":2324:2329   */\n      dup2\n        /* \"#utility.yul\":2306:2330   */\n      tag_77\n      jump\t// in\n    tag_128:\n        /* \"#utility.yul\":2301:2304   */\n      dup3\n        /* \"#utility.yul\":2294:2331   */\n      mstore\n        /* \"#utility.yul\":2219:2337   */\n      pop\n      pop\n      jump\t// out\n        /* \"#utility.yul\":2343:2565   */\n    tag_24:\n        /* \"#utility.yul\":2436:2440   */\n      0x00\n        /* \"#utility.yul\":2474:2476   */\n      0x20\n        /* \"#utility.yul\":2463:2472   */\n      dup3\n        /* \"#utility.yul\":2459:2477   */\n      add\n        /* \"#utility.yul\":2451:2477   */\n      swap1\n      pop\n        /* \"#utility.yul\":2487:2558   */\n      tag_130\n        /* \"#utility.yul\":2555:2556   */\n      0x00\n        /* \"#utility.yul\":2544:2553   */\n      dup4\n        /* \"#utility.yul\":2540:2557   */\n      add\n        /* \"#utility.yul\":2531:2537   */\n      dup5\n        /* \"#utility.yul\":2487:2558   */\n      tag_84\n      jump\t// in\n    tag_130:\n        /* \"#utility.yul\":2343:2565   */\n      swap3\n      swap2\n      pop\n      pop\n      jump\t// out\n        /* \"#utility.yul\":2571:2751   */\n    tag_31:\n        /* \"#utility.yul\":2619:2696   */\n      0x4e487b7100000000000000000000000000000000000000000000000000000000\n        /* \"#utility.yul\":2616:2617   */\n      0x00\n        /* \"#utility.yul\":2609:2697   */\n      mstore\n        /* \"#utility.yul\":2716:2720   */\n      0x32\n        /* \"#utility.yul\":2713:2714   */\n      0x04\n        /* \"#utility.yul\":2706:2721   */\n      mstore\n        /* \"#utility.yul\":2740:2744   */\n      0x24\n        /* \"#utility.yul\":2737:2738   */\n      0x00\n        /* \"#utility.yul\":2730:2745   */\n      revert\n        /* \"#utility.yul\":2757:2937   */\n    tag_35:\n        /* \"#utility.yul\":2805:2882   */\n      0x4e487b7100000000000000000000000000000000000000000000000000000000\n        /* \"#utility.yul\":2802:2803   */\n      0x00\n        /* \"#utility.yul\":2795:2883   */\n      mstore\n        /* \"#utility.yul\":2902:2906   */\n      0x41\n        /* \"#utility.yul\":2899:2900   */\n      0x04\n        /* \"#utility.yul\":2892:2907   */\n      mstore\n        /* \"#utility.yul\":2926:2930   */\n      0x24\n        /* \"#utility.yul\":2923:2924   */\n      0x00\n        /* \"#utility.yul\":2916:2931   */\n      revert\n        /* \"#utility.yul\":2943:3112   */\n    tag_85:\n        /* \"#utility.yul\":3027:3038   */\n      0x00\n        /* \"#utility.yul\":3061:3067   */\n      dup3\n        /* \"#utility.yul\":3056:3059   */\n      dup3\n        /* \"#utility.yul\":3049:3068   */\n      mstore\n        /* \"#utility.yul\":3101:3105   */\n      0x20\n        /* \"#utility.yul\":3096:3099   */\n      dup3\n        /* \"#utility.yul\":3092:3106   */\n      add\n        /* \"#utility.yul\":3077:3106   */\n      swap1\n      pop\n        /* \"#utility.yul\":2943:3112   */\n      swap3\n      swap2\n      pop\n      pop\n      jump\t// out\n        /* \"#utility.yul\":3118:3295   */\n    tag_86:\n        /* \"#utility.yul\":3258:3287   */\n      0x4469646e27742073656e6420656e6f75676820446f6c6c617273210000000000\n        /* \"#utility.yul\":3254:3255   */\n      0x00\n        /* \"#utility.yul\":3246:3252   */\n      dup3\n        /* \"#utility.yul\":3242:3256   */\n      add\n        /* \"#utility.yul\":3235:3288   */\n      mstore\n        /* \"#utility.yul\":3118:3295   */\n      pop\n      jump\t// out\n        /* \"#utility.yul\":3301:3667   */\n    tag_87:\n        /* \"#utility.yul\":3443:3446   */\n      0x00\n        /* \"#utility.yul\":3464:3531   */\n      tag_136\n        /* \"#utility.yul\":3528:3530   */\n      0x1b\n        /* \"#utility.yul\":3523:3526   */\n      dup4\n        /* \"#utility.yul\":3464:3531   */\n      tag_85\n      jump\t// in\n    tag_136:\n        /* \"#utility.yul\":3457:3531   */\n      swap2\n      pop\n        /* \"#utility.yul\":3540:3633   */\n      tag_137\n        /* \"#utility.yul\":3629:3632   */\n      dup3\n        /* \"#utility.yul\":3540:3633   */\n      tag_86\n      jump\t// in\n    tag_137:\n        /* \"#utility.yul\":3658:3660   */\n      0x20\n        /* \"#utility.yul\":3653:3656   */\n      dup3\n        /* \"#utility.yul\":3649:3661   */\n      add\n        /* \"#utility.yul\":3642:3661   */\n      swap1\n      pop\n        /* \"#utility.yul\":3301:3667   */\n      swap2\n      swap1\n      pop\n      jump\t// out\n        /* \"#utility.yul\":3673:4092   */\n    tag_46:\n        /* \"#utility.yul\":3839:3843   */\n      0x00\n        /* \"#utility.yul\":3877:3879   */\n      0x20\n        /* \"#utility.yul\":3866:3875   */\n      dup3\n        /* \"#utility.yul\":3862:3880   */\n      add\n        /* \"#utility.yul\":3854:3880   */\n      swap1\n      pop\n        /* \"#utility.yul\":3926:3935   */\n      dup2\n        /* \"#utility.yul\":3920:3924   */\n      dup2\n        /* \"#utility.yul\":3916:3936   */\n      sub\n        /* \"#utility.yul\":3912:3913   */\n      0x00\n        /* \"#utility.yul\":3901:3910   */\n      dup4\n        /* \"#utility.yul\":3897:3914   */\n      add\n        /* \"#utility.yul\":3890:3937   */\n      mstore\n        /* \"#utility.yul\":3954:4085   */\n      tag_139\n        /* \"#utility.yul\":4080:4084   */\n      dup2\n        /* \"#utility.yul\":3954:4085   */\n      tag_87\n      jump\t// in\n    tag_139:\n        /* \"#utility.yul\":3946:4085   */\n      swap1\n      pop\n        /* \"#utility.yul\":3673:4092   */\n      swap2\n      swap1\n      pop\n      jump\t// out\n        /* \"#utility.yul\":4098:4278   */\n    tag_88:\n        /* \"#utility.yul\":4146:4223   */\n      0x4e487b7100000000000000000000000000000000000000000000000000000000\n        /* \"#utility.yul\":4143:4144   */\n      0x00\n        /* \"#utility.yul\":4136:4224   */\n      mstore\n        /* \"#utility.yul\":4243:4247   */\n      0x11\n        /* \"#utility.yul\":4240:4241   */\n      0x04\n        /* \"#utility.yul\":4233:4248   */\n      mstore\n        /* \"#utility.yul\":4267:4271   */\n      0x24\n        /* \"#utility.yul\":4264:4265   */\n      0x00\n        /* \"#utility.yul\":4257:4272   */\n      revert\n        /* \"#utility.yul\":4284:4475   */\n    tag_49:\n        /* \"#utility.yul\":4324:4327   */\n      0x00\n        /* \"#utility.yul\":4343:4363   */\n      tag_142\n        /* \"#utility.yul\":4361:4362   */\n      dup3\n        /* \"#utility.yul\":4343:4363   */\n      tag_80\n      jump\t// in\n    tag_142:\n        /* \"#utility.yul\":4338:4363   */\n      swap2\n      pop\n        /* \"#utility.yul\":4377:4397   */\n      tag_143\n        /* \"#utility.yul\":4395:4396   */\n      dup4\n        /* \"#utility.yul\":4377:4397   */\n      tag_80\n      jump\t// in\n    tag_143:\n        /* \"#utility.yul\":4372:4397   */\n      swap3\n      pop\n        /* \"#utility.yul\":4420:4421   */\n      dup3\n        /* \"#utility.yul\":4417:4418   */\n      dup3\n        /* \"#utility.yul\":4413:4422   */\n      add\n        /* \"#utility.yul\":4406:4422   */\n      swap1\n      pop\n        /* \"#utility.yul\":4441:4444   */\n      dup1\n        /* \"#utility.yul\":4438:4439   */\n      dup3\n        /* \"#utility.yul\":4435:4445   */\n      gt\n        /* \"#utility.yul\":4432:4468   */\n      iszero\n      tag_144\n      jumpi\n        /* \"#utility.yul\":4448:4466   */\n      tag_145\n      tag_88\n      jump\t// in\n    tag_145:\n        /* \"#utility.yul\":4432:4468   */\n    tag_144:\n        /* \"#utility.yul\":4284:4475   */\n      swap3\n      swap2\n      pop\n      pop\n      jump\t// out\n        /* \"#utility.yul\":4481:4891   */\n    tag_56:\n        /* \"#utility.yul\":4521:4528   */\n      0x00\n        /* \"#utility.yul\":4544:4564   */\n      tag_147\n        /* \"#utility.yul\":4562:4563   */\n      dup3\n        /* \"#utility.yul\":4544:4564   */\n      tag_80\n      jump\t// in\n    tag_147:\n        /* \"#utility.yul\":4539:4564   */\n      swap2\n      pop\n        /* \"#utility.yul\":4578:4598   */\n      tag_148\n        /* \"#utility.yul\":4596:4597   */\n      dup4\n        /* \"#utility.yul\":4578:4598   */\n      tag_80\n      jump\t// in\n    tag_148:\n        /* \"#utility.yul\":4573:4598   */\n      swap3\n      pop\n        /* \"#utility.yul\":4633:4634   */\n      dup3\n        /* \"#utility.yul\":4630:4631   */\n      dup3\n        /* \"#utility.yul\":4626:4635   */\n      mul\n        /* \"#utility.yul\":4655:4685   */\n      tag_149\n        /* \"#utility.yul\":4673:4684   */\n      dup2\n        /* \"#utility.yul\":4655:4685   */\n      tag_80\n      jump\t// in\n    tag_149:\n        /* \"#utility.yul\":4644:4685   */\n      swap2\n      pop\n        /* \"#utility.yul\":4834:4835   */\n      dup3\n        /* \"#utility.yul\":4825:4832   */\n      dup3\n        /* \"#utility.yul\":4821:4836   */\n      div\n        /* \"#utility.yul\":4818:4819   */\n      dup5\n        /* \"#utility.yul\":4815:4837   */\n      eq\n        /* \"#utility.yul\":4795:4796   */\n      dup4\n        /* \"#utility.yul\":4788:4797   */\n      iszero\n        /* \"#utility.yul\":4768:4851   */\n      or\n        /* \"#utility.yul\":4745:4884   */\n      tag_150\n      jumpi\n        /* \"#utility.yul\":4864:4882   */\n      tag_151\n      tag_88\n      jump\t// in\n    tag_151:\n        /* \"#utility.yul\":4745:4884   */\n    tag_150:\n        /* \"#utility.yul\":4529:4891   */\n      pop\n        /* \"#utility.yul\":4481:4891   */\n      swap3\n      swap2\n      pop\n      pop\n      jump\t// out\n        /* \"#utility.yul\":4897:5077   */\n    tag_89:\n        /* \"#utility.yul\":4945:5022   */\n      0x4e487b7100000000000000000000000000000000000000000000000000000000\n        /* \"#utility.yul\":4942:4943   */\n      0x00\n        /* \"#utility.yul\":4935:5023   */\n      mstore\n        /* \"#utility.yul\":5042:5046   */\n      0x12\n        /* \"#utility.yul\":5039:5040   */\n      0x04\n        /* \"#utility.yul\":5032:5047   */\n      mstore\n        /* \"#utility.yul\":5066:5070   */\n      0x24\n        /* \"#utility.yul\":5063:5064   */\n      0x00\n        /* \"#utility.yul\":5056:5071   */\n      revert\n        /* \"#utility.yul\":5083:5268   */\n    tag_58:\n        /* \"#utility.yul\":5123:5124   */\n      0x00\n        /* \"#utility.yul\":5140:5160   */\n      tag_154\n        /* \"#utility.yul\":5158:5159   */\n      dup3\n        /* \"#utility.yul\":5140:5160   */\n      tag_80\n      jump\t// in\n    tag_154:\n        /* \"#utility.yul\":5135:5160   */\n      swap2\n      pop\n        /* \"#utility.yul\":5174:5194   */\n      tag_155\n        /* \"#utility.yul\":5192:5193   */\n      dup4\n        /* \"#utility.yul\":5174:5194   */\n      tag_80\n      jump\t// in\n    tag_155:\n        /* \"#utility.yul\":5169:5194   */\n      swap3\n      pop\n        /* \"#utility.yul\":5213:5214   */\n      dup3\n        /* \"#utility.yul\":5203:5238   */\n      tag_156\n      jumpi\n        /* \"#utility.yul\":5218:5236   */\n      tag_157\n      tag_89\n      jump\t// in\n    tag_157:\n        /* \"#utility.yul\":5203:5238   */\n    tag_156:\n        /* \"#utility.yul\":5260:5261   */\n      dup3\n        /* \"#utility.yul\":5257:5258   */\n      dup3\n        /* \"#utility.yul\":5253:5262   */\n      div\n        /* \"#utility.yul\":5248:5262   */\n      swap1\n      pop\n        /* \"#utility.yul\":5083:5268   */\n      swap3\n      swap2\n      pop\n      pop\n      jump\t// out\n        /* \"#utility.yul\":5274:5379   */\n    tag_90:\n        /* \"#utility.yul\":5310:5317   */\n      0x00\n        /* \"#utility.yul\":5350:5372   */\n      0xffffffffffffffffffff\n        /* \"#utility.yul\":5343:5348   */\n      dup3\n        /* \"#utility.yul\":5339:5373   */\n      and\n        /* \"#utility.yul\":5328:5373   */\n      swap1\n      pop\n        /* \"#utility.yul\":5274:5379   */\n      swap2\n      swap1\n      pop\n      jump\t// out\n        /* \"#utility.yul\":5385:5505   */\n    tag_91:\n        /* \"#utility.yul\":5457:5480   */\n      tag_160\n        /* \"#utility.yul\":5474:5479   */\n      dup2\n        /* \"#utility.yul\":5457:5480   */\n      tag_90\n      jump\t// in\n    tag_160:\n        /* \"#utility.yul\":5450:5455   */\n      dup2\n        /* \"#utility.yul\":5447:5481   */\n      eq\n        /* \"#utility.yul\":5437:5499   */\n      tag_161\n      jumpi\n        /* \"#utility.yul\":5495:5496   */\n      0x00\n        /* \"#utility.yul\":5492:5493   */\n      dup1\n        /* \"#utility.yul\":5485:5497   */\n      revert\n        /* \"#utility.yul\":5437:5499   */\n    tag_161:\n        /* \"#utility.yul\":5385:5505   */\n      pop\n      jump\t// out\n        /* \"#utility.yul\":5511:5652   */\n    tag_92:\n        /* \"#utility.yul\":5567:5572   */\n      0x00\n        /* \"#utility.yul\":5598:5604   */\n      dup2\n        /* \"#utility.yul\":5592:5605   */\n      mload\n        /* \"#utility.yul\":5583:5605   */\n      swap1\n      pop\n        /* \"#utility.yul\":5614:5646   */\n      tag_163\n        /* \"#utility.yul\":5640:5645   */\n      dup2\n        /* \"#utility.yul\":5614:5646   */\n      tag_91\n      jump\t// in\n    tag_163:\n        /* \"#utility.yul\":5511:5652   */\n      swap3\n      swap2\n      pop\n      pop\n      jump\t// out\n        /* \"#utility.yul\":5658:5734   */\n    tag_93:\n        /* \"#utility.yul\":5694:5701   */\n      0x00\n        /* \"#utility.yul\":5723:5728   */\n      dup2\n        /* \"#utility.yul\":5712:5728   */\n      swap1\n      pop\n        /* \"#utility.yul\":5658:5734   */\n      swap2\n      swap1\n      pop\n      jump\t// out\n        /* \"#utility.yul\":5740:5860   */\n    tag_94:\n        /* \"#utility.yul\":5812:5835   */\n      tag_166\n        /* \"#utility.yul\":5829:5834   */\n      dup2\n        /* \"#utility.yul\":5812:5835   */\n      tag_93\n      jump\t// in\n    tag_166:\n        /* \"#utility.yul\":5805:5810   */\n      dup2\n        /* \"#utility.yul\":5802:5836   */\n      eq\n        /* \"#utility.yul\":5792:5854   */\n      tag_167\n      jumpi\n        /* \"#utility.yul\":5850:5851   */\n      0x00\n        /* \"#utility.yul\":5847:5848   */\n      dup1\n        /* \"#utility.yul\":5840:5852   */\n      revert\n        /* \"#utility.yul\":5792:5854   */\n    tag_167:\n        /* \"#utility.yul\":5740:5860   */\n      pop\n      jump\t// out\n        /* \"#utility.yul\":5866:6007   */\n    tag_95:\n        /* \"#utility.yul\":5922:5927   */\n      0x00\n        /* \"#utility.yul\":5953:5959   */\n      dup2\n        /* \"#utility.yul\":5947:5960   */\n      mload\n        /* \"#utility.yul\":5938:5960   */\n      swap1\n      pop\n        /* \"#utility.yul\":5969:6001   */\n      tag_169\n        /* \"#utility.yul\":5995:6000   */\n      dup2\n        /* \"#utility.yul\":5969:6001   */\n      tag_94\n      jump\t// in\n    tag_169:\n        /* \"#utility.yul\":5866:6007   */\n      swap3\n      swap2\n      pop\n      pop\n      jump\t// out\n        /* \"#utility.yul\":6013:6156   */\n    tag_96:\n        /* \"#utility.yul\":6070:6075   */\n      0x00\n        /* \"#utility.yul\":6101:6107   */\n      dup2\n        /* \"#utility.yul\":6095:6108   */\n      mload\n        /* \"#utility.yul\":6086:6108   */\n      swap1\n      pop\n        /* \"#utility.yul\":6117:6150   */\n      tag_171\n        /* \"#utility.yul\":6144:6149   */\n      dup2\n        /* \"#utility.yul\":6117:6150   */\n      tag_82\n      jump\t// in\n    tag_171:\n        /* \"#utility.yul\":6013:6156   */\n      swap3\n      swap2\n      pop\n      pop\n      jump\t// out\n        /* \"#utility.yul\":6162:7133   */\n    tag_63:\n        /* \"#utility.yul\":6265:6271   */\n      0x00\n        /* \"#utility.yul\":6273:6279   */\n      dup1\n        /* \"#utility.yul\":6281:6287   */\n      0x00\n        /* \"#utility.yul\":6289:6295   */\n      dup1\n        /* \"#utility.yul\":6297:6303   */\n      0x00\n        /* \"#utility.yul\":6346:6349   */\n      0xa0\n        /* \"#utility.yul\":6334:6343   */\n      dup7\n        /* \"#utility.yul\":6325:6332   */\n      dup9\n        /* \"#utility.yul\":6321:6344   */\n      sub\n        /* \"#utility.yul\":6317:6350   */\n      slt\n        /* \"#utility.yul\":6314:6434   */\n      iszero\n      tag_173\n      jumpi\n        /* \"#utility.yul\":6353:6432   */\n      tag_174\n      tag_74\n      jump\t// in\n    tag_174:\n        /* \"#utility.yul\":6314:6434   */\n    tag_173:\n        /* \"#utility.yul\":6473:6474   */\n      0x00\n        /* \"#utility.yul\":6498:6561   */\n      tag_175\n        /* \"#utility.yul\":6553:6560   */\n      dup9\n        /* \"#utility.yul\":6544:6550   */\n      dup3\n        /* \"#utility.yul\":6533:6542   */\n      dup10\n        /* \"#utility.yul\":6529:6551   */\n      add\n        /* \"#utility.yul\":6498:6561   */\n      tag_92\n      jump\t// in\n    tag_175:\n        /* \"#utility.yul\":6488:6561   */\n      swap6\n      pop\n        /* \"#utility.yul\":6444:6571   */\n      pop\n        /* \"#utility.yul\":6610:6612   */\n      0x20\n        /* \"#utility.yul\":6636:6699   */\n      tag_176\n        /* \"#utility.yul\":6691:6698   */\n      dup9\n        /* \"#utility.yul\":6682:6688   */\n      dup3\n        /* \"#utility.yul\":6671:6680   */\n      dup10\n        /* \"#utility.yul\":6667:6689   */\n      add\n        /* \"#utility.yul\":6636:6699   */\n      tag_95\n      jump\t// in\n    tag_176:\n        /* \"#utility.yul\":6626:6699   */\n      swap5\n      pop\n        /* \"#utility.yul\":6581:6709   */\n      pop\n        /* \"#utility.yul\":6748:6750   */\n      0x40\n        /* \"#utility.yul\":6774:6838   */\n      tag_177\n        /* \"#utility.yul\":6830:6837   */\n      dup9\n        /* \"#utility.yul\":6821:6827   */\n      dup3\n        /* \"#utility.yul\":6810:6819   */\n      dup10\n        /* \"#utility.yul\":6806:6828   */\n      add\n        /* \"#utility.yul\":6774:6838   */\n      tag_96\n      jump\t// in\n    tag_177:\n        /* \"#utility.yul\":6764:6838   */\n      swap4\n      pop\n        /* \"#utility.yul\":6719:6848   */\n      pop\n        /* \"#utility.yul\":6887:6889   */\n      0x60\n        /* \"#utility.yul\":6913:6977   */\n      tag_178\n        /* \"#utility.yul\":6969:6976   */\n      dup9\n        /* \"#utility.yul\":6960:6966   */\n      dup3\n        /* \"#utility.yul\":6949:6958   */\n      dup10\n        /* \"#utility.yul\":6945:6967   */\n      add\n        /* \"#utility.yul\":6913:6977   */\n      tag_96\n      jump\t// in\n    tag_178:\n        /* \"#utility.yul\":6903:6977   */\n      swap3\n      pop\n        /* \"#utility.yul\":6858:6987   */\n      pop\n        /* \"#utility.yul\":7026:7029   */\n      0x80\n        /* \"#utility.yul\":7053:7116   */\n      tag_179\n        /* \"#utility.yul\":7108:7115   */\n      dup9\n        /* \"#utility.yul\":7099:7105   */\n      dup3\n        /* \"#utility.yul\":7088:7097   */\n      dup10\n        /* \"#utility.yul\":7084:7106   */\n      add\n        /* \"#utility.yul\":7053:7116   */\n      tag_92\n      jump\t// in\n    tag_179:\n        /* \"#utility.yul\":7043:7116   */\n      swap2\n      pop\n        /* \"#utility.yul\":6997:7126   */\n      pop\n        /* \"#utility.yul\":6162:7133   */\n      swap3\n      swap6\n      pop\n      swap3\n      swap6\n      swap1\n      swap4\n      pop\n      jump\t// out\n        /* \"#utility.yul\":7139:7695   */\n    tag_65:\n        /* \"#utility.yul\":7178:7185   */\n      0x00\n        /* \"#utility.yul\":7201:7220   */\n      tag_181\n        /* \"#utility.yul\":7218:7219   */\n      dup3\n        /* \"#utility.yul\":7201:7220   */\n      tag_93\n      jump\t// in\n    tag_181:\n        /* \"#utility.yul\":7196:7220   */\n      swap2\n      pop\n        /* \"#utility.yul\":7234:7253   */\n      tag_182\n        /* \"#utility.yul\":7251:7252   */\n      dup4\n        /* \"#utility.yul\":7234:7253   */\n      tag_93\n      jump\t// in\n    tag_182:\n        /* \"#utility.yul\":7229:7253   */\n      swap3\n      pop\n        /* \"#utility.yul\":7288:7289   */\n      dup3\n        /* \"#utility.yul\":7285:7286   */\n      dup3\n        /* \"#utility.yul\":7281:7290   */\n      mul\n        /* \"#utility.yul\":7310:7339   */\n      tag_183\n        /* \"#utility.yul\":7327:7338   */\n      dup2\n        /* \"#utility.yul\":7310:7339   */\n      tag_93\n      jump\t// in\n    tag_183:\n        /* \"#utility.yul\":7299:7339   */\n      swap2\n      pop\n        /* \"#utility.yul\":7397:7463   */\n      0x8000000000000000000000000000000000000000000000000000000000000000\n        /* \"#utility.yul\":7394:7395   */\n      dup5\n        /* \"#utility.yul\":7391:7464   */\n      eq\n        /* \"#utility.yul\":7387:7388   */\n      0x00\n        /* \"#utility.yul\":7384:7385   */\n      dup5\n        /* \"#utility.yul\":7380:7389   */\n      slt\n        /* \"#utility.yul\":7376:7465   */\n      and\n        /* \"#utility.yul\":7373:7488   */\n      iszero\n      tag_184\n      jumpi\n        /* \"#utility.yul\":7468:7486   */\n      tag_185\n      tag_88\n      jump\t// in\n    tag_185:\n        /* \"#utility.yul\":7373:7488   */\n    tag_184:\n        /* \"#utility.yul\":7638:7639   */\n      dup3\n        /* \"#utility.yul\":7629:7636   */\n      dup3\n        /* \"#utility.yul\":7624:7640   */\n      sdiv\n        /* \"#utility.yul\":7621:7622   */\n      dup5\n        /* \"#utility.yul\":7618:7641   */\n      eq\n        /* \"#utility.yul\":7598:7599   */\n      dup4\n        /* \"#utility.yul\":7591:7600   */\n      iszero\n        /* \"#utility.yul\":7571:7655   */\n      or\n        /* \"#utility.yul\":7548:7688   */\n      tag_186\n      jumpi\n        /* \"#utility.yul\":7668:7686   */\n      tag_187\n      tag_88\n      jump\t// in\n    tag_187:\n        /* \"#utility.yul\":7548:7688   */\n    tag_186:\n        /* \"#utility.yul\":7186:7695   */\n      pop\n        /* \"#utility.yul\":7139:7695   */\n      swap3\n      swap2\n      pop\n      pop\n      jump\t// out\n\n    auxdata: 0xa2646970667358221220db06915d63a415abb9a6121c9c3bd98a8d0395bc004c296c959cc720a4335f4964736f6c634300081a0033\n}\n",
				"bytecode": {
					"linkReferences": {},
					"object": "6080604052674563918244f400005f553480156019575f80fd5b5061099e806100275f395ff3fe60806040526004361061003e575f3560e01c80633ccfd60b14610042578063b60d428814610058578063d1fa2baa14610062578063dc0d3dff1461009e575b5f80fd5b34801561004d575f80fd5b506100566100da565b005b61006061021e565b005b34801561006d575f80fd5b506100886004803603810190610083919061054c565b61031f565b604051610095919061058f565b60405180910390f35b3480156100a9575f80fd5b506100c460048036038101906100bf91906105d2565b610334565b6040516100d1919061060c565b60405180910390f35b5f5b600180549050811015610178575f600182815481106100fe576100fd610625565b5b905f5260205f20015f9054906101000a900473ffffffffffffffffffffffffffffffffffffffff1690505f60025f8373ffffffffffffffffffffffffffffffffffffffff1673ffffffffffffffffffffffffffffffffffffffff1681526020019081526020015f20819055505080806001019150506100dc565b505f67ffffffffffffffff81111561019357610192610652565b5b6040519080825280602002602001820160405280156101c15781602001602082028036833780820191505090505b50600190805190602001906101d792919061044c565b503373ffffffffffffffffffffffffffffffffffffffff166108fc4790811502906040515f60405180830381858888f1935050505015801561021b573d5f803e3d5ffd5b50565b5f546102293461036f565b101561026a576040517f08c379a0000000000000000000000000000000000000000000000000000000008152600401610261906106d9565b60405180910390fd5b600133908060018154018082558091505060019003905f5260205f20015f9091909190916101000a81548173ffffffffffffffffffffffffffffffffffffffff021916908373ffffffffffffffffffffffffffffffffffffffff1602179055503460025f3373ffffffffffffffffffffffffffffffffffffffff1673ffffffffffffffffffffffffffffffffffffffff1681526020019081526020015f205f8282546103169190610724565b92505081905550565b6002602052805f5260405f205f915090505481565b60018181548110610343575f80fd5b905f5260205f20015f915054906101000a900473ffffffffffffffffffffffffffffffffffffffff1681565b5f806103796103a7565b90505f670de0b6b3a764000084836103919190610757565b61039b91906107c5565b90508092505050919050565b5f8073694aa1769357215de4fac081bf1f309adc32530690505f8173ffffffffffffffffffffffffffffffffffffffff1663feaf968c6040518163ffffffff1660e01b815260040160a060405180830381865afa15801561040a573d5f803e3d5ffd5b505050506040513d601f19601f8201168201806040525081019061042e919061087b565b5050509150506402540be4008161044591906108f2565b9250505090565b828054828255905f5260205f209081019282156104c2579160200282015b828111156104c1578251825f6101000a81548173ffffffffffffffffffffffffffffffffffffffff021916908373ffffffffffffffffffffffffffffffffffffffff1602179055509160200191906001019061046a565b5b5090506104cf91906104d3565b5090565b5b808211156104ea575f815f9055506001016104d4565b5090565b5f80fd5b5f73ffffffffffffffffffffffffffffffffffffffff82169050919050565b5f61051b826104f2565b9050919050565b61052b81610511565b8114610535575f80fd5b50565b5f8135905061054681610522565b92915050565b5f60208284031215610561576105606104ee565b5b5f61056e84828501610538565b91505092915050565b5f819050919050565b61058981610577565b82525050565b5f6020820190506105a25f830184610580565b92915050565b6105b181610577565b81146105bb575f80fd5b50565b5f813590506105cc816105a8565b92915050565b5f602082840312156105e7576105e66104ee565b5b5f6105f4848285016105be565b91505092915050565b61060681610511565b82525050565b5f60208201905061061f5f8301846105fd565b92915050565b7f4e487b71000000000000000000000000000000000000000000000000000000005f52603260045260245ffd5b7f4e487b71000000000000000000000000000000000000000000000000000000005f52604160045260245ffd5b5f82825260208201905092915050565b7f4469646e27742073656e6420656e6f75676820446f6c6c6172732100000000005f82015250565b5f6106c3601b8361067f565b91506106ce8261068f565b602082019050919050565b5f6020820190508181035f8301526106f0816106b7565b9050919050565b7f4e487b71000000000000000000000000000000000000000000000000000000005f52601160045260245ffd5b5f61072e82610577565b915061073983610577565b9250828201905080821115610751576107506106f7565b5b92915050565b5f61076182610577565b915061076c83610577565b925082820261077a81610577565b91508282048414831517610791576107906106f7565b5b5092915050565b7f4e487b71000000000000000000000000000000000000000000000000000000005f52601260045260245ffd5b5f6107cf82610577565b91506107da83610577565b9250826107ea576107e9610798565b5b828204905092915050565b5f69ffffffffffffffffffff82169050919050565b610813816107f5565b811461081d575f80fd5b50565b5f8151905061082e8161080a565b92915050565b5f819050919050565b61084681610834565b8114610850575f80fd5b50565b5f815190506108618161083d565b92915050565b5f81519050610875816105a8565b92915050565b5f805f805f60a08688031215610894576108936104ee565b5b5f6108a188828901610820565b95505060206108b288828901610853565b94505060406108c388828901610867565b93505060606108d488828901610867565b92505060806108e588828901610820565b9150509295509295909350565b5f6108fc82610834565b915061090783610834565b925082820261091581610834565b91507f800000000000000000000000000000000000000000000000000000000000000084145f8412161561094c5761094b6106f7565b5b8282058414831517610961576109606106f7565b5b509291505056fea2646970667358221220db06915d63a415abb9a6121c9c3bd98a8d0395bc004c296c959cc720a4335f4964736f6c634300081a0033",
					"opcodes": "PUSH1 0x80 PUSH1 0x40 MSTORE PUSH8 0x4563918244F40000 PUSH0 SSTORE CALLVALUE DUP1 ISZERO PUSH1 0x19 JUMPI PUSH0 DUP1 REVERT JUMPDEST POP PUSH2 0x99E DUP1 PUSH2 0x27 PUSH0 CODECOPY PUSH0 RETURN INVALID PUSH1 0x80 PUSH1 0x40 MSTORE PUSH1 0x4 CALLDATASIZE LT PUSH2 0x3E JUMPI PUSH0 CALLDATALOAD PUSH1 0xE0 SHR DUP1 PUSH4 0x3CCFD60B EQ PUSH2 0x42 JUMPI DUP1 PUSH4 0xB60D4288 EQ PUSH2 0x58 JUMPI DUP1 PUSH4 0xD1FA2BAA EQ PUSH2 0x62 JUMPI DUP1 PUSH4 0xDC0D3DFF EQ PUSH2 0x9E JUMPI JUMPDEST PUSH0 DUP1 REVERT JUMPDEST CALLVALUE DUP1 ISZERO PUSH2 0x4D JUMPI PUSH0 DUP1 REVERT JUMPDEST POP PUSH2 0x56 PUSH2 0xDA JUMP JUMPDEST STOP JUMPDEST PUSH2 0x60 PUSH2 0x21E JUMP JUMPDEST STOP JUMPDEST CALLVALUE DUP1 ISZERO PUSH2 0x6D JUMPI PUSH0 DUP1 REVERT JUMPDEST POP PUSH2 0x88 PUSH1 0x4 DUP1 CALLDATASIZE SUB DUP2 ADD SWAP1 PUSH2 0x83 SWAP2 SWAP1 PUSH2 0x54C JUMP JUMPDEST PUSH2 0x31F JUMP JUMPDEST PUSH1 0x40 MLOAD PUSH2 0x95 SWAP2 SWAP1 PUSH2 0x58F JUMP JUMPDEST PUSH1 0x40 MLOAD DUP1 SWAP2 SUB SWAP1 RETURN JUMPDEST CALLVALUE DUP1 ISZERO PUSH2 0xA9 JUMPI PUSH0 DUP1 REVERT JUMPDEST POP PUSH2 0xC4 PUSH1 0x4 DUP1 CALLDATASIZE SUB DUP2 ADD SWAP1 PUSH2 0xBF SWAP2 SWAP1 PUSH2 0x5D2 JUMP JUMPDEST PUSH2 0x334 JUMP JUMPDEST PUSH1 0x40 MLOAD PUSH2 0xD1 SWAP2 SWAP1 PUSH2 0x60C JUMP JUMPDEST PUSH1 0x40 MLOAD DUP1 SWAP2 SUB SWAP1 RETURN JUMPDEST PUSH0 JUMPDEST PUSH1 0x1 DUP1 SLOAD SWAP1 POP DUP2 LT ISZERO PUSH2 0x178 JUMPI PUSH0 PUSH1 0x1 DUP3 DUP2 SLOAD DUP2 LT PUSH2 0xFE JUMPI PUSH2 0xFD PUSH2 0x625 JUMP JUMPDEST JUMPDEST SWAP1 PUSH0 MSTORE PUSH1 0x20 PUSH0 KECCAK256 ADD PUSH0 SWAP1 SLOAD SWAP1 PUSH2 0x100 EXP SWAP1 DIV PUSH20 0xFFFFFFFFFFFFFFFFFFFFFFFFFFFFFFFFFFFFFFFF AND SWAP1 POP PUSH0 PUSH1 0x2 PUSH0 DUP4 PUSH20 0xFFFFFFFFFFFFFFFFFFFFFFFFFFFFFFFFFFFFFFFF AND PUSH20 0xFFFFFFFFFFFFFFFFFFFFFFFFFFFFFFFFFFFFFFFF AND DUP2 MSTORE PUSH1 0x20 ADD SWAP1 DUP2 MSTORE PUSH1 0x20 ADD PUSH0 KECCAK256 DUP2 SWAP1 SSTORE POP POP DUP1 DUP1 PUSH1 0x1 ADD SWAP2 POP POP PUSH2 0xDC JUMP JUMPDEST POP PUSH0 PUSH8 0xFFFFFFFFFFFFFFFF DUP2 GT ISZERO PUSH2 0x193 JUMPI PUSH2 0x192 PUSH2 0x652 JUMP JUMPDEST JUMPDEST PUSH1 0x40 MLOAD SWAP1 DUP1 DUP3 MSTORE DUP1 PUSH1 0x20 MUL PUSH1 0x20 ADD DUP3 ADD PUSH1 0x40 MSTORE DUP1 ISZERO PUSH2 0x1C1 JUMPI DUP2 PUSH1 0x20 ADD PUSH1 0x20 DUP3 MUL DUP1 CALLDATASIZE DUP4 CALLDATACOPY DUP1 DUP3 ADD SWAP2 POP POP SWAP1 POP JUMPDEST POP PUSH1 0x1 SWAP1 DUP1 MLOAD SWAP1 PUSH1 0x20 ADD SWAP1 PUSH2 0x1D7 SWAP3 SWAP2 SWAP1 PUSH2 0x44C JUMP JUMPDEST POP CALLER PUSH20 0xFFFFFFFFFFFFFFFFFFFFFFFFFFFFFFFFFFFFFFFF AND PUSH2 0x8FC SELFBALANCE SWAP1 DUP2 ISZERO MUL SWAP1 PUSH1 0x40 MLOAD PUSH0 PUSH1 0x40 MLOAD DUP1 DUP4 SUB DUP2 DUP6 DUP9 DUP9 CALL SWAP4 POP POP POP POP ISZERO DUP1 ISZERO PUSH2 0x21B JUMPI RETURNDATASIZE PUSH0 DUP1 RETURNDATACOPY RETURNDATASIZE PUSH0 REVERT JUMPDEST POP JUMP JUMPDEST PUSH0 SLOAD PUSH2 0x229 CALLVALUE PUSH2 0x36F JUMP JUMPDEST LT ISZERO PUSH2 0x26A JUMPI PUSH1 0x40 MLOAD PUSH32 0x8C379A000000000000000000000000000000000000000000000000000000000 DUP2 MSTORE PUSH1 0x4 ADD PUSH2 0x261 SWAP1 PUSH2 0x6D9 JUMP JUMPDEST PUSH1 0x40 MLOAD DUP1 SWAP2 SUB SWAP1 REVERT JUMPDEST PUSH1 0x1 CALLER SWAP1 DUP1 PUSH1 0x1 DUP2 SLOAD ADD DUP1 DUP3 SSTORE DUP1 SWAP2 POP POP PUSH1 0x1 SWAP1 SUB SWAP1 PUSH0 MSTORE PUSH1 0x20 PUSH0 KECCAK256 ADD PUSH0 SWAP1 SWAP2 SWAP1 SWAP2 SWAP1 SWAP2 PUSH2 0x100 EXP DUP2 SLOAD DUP2 PUSH20 0xFFFFFFFFFFFFFFFFFFFFFFFFFFFFFFFFFFFFFFFF MUL NOT AND SWAP1 DUP4 PUSH20 0xFFFFFFFFFFFFFFFFFFFFFFFFFFFFFFFFFFFFFFFF AND MUL OR SWAP1 SSTORE POP CALLVALUE PUSH1 0x2 PUSH0 CALLER PUSH20 0xFFFFFFFFFFFFFFFFFFFFFFFFFFFFFFFFFFFFFFFF AND PUSH20 0xFFFFFFFFFFFFFFFFFFFFFFFFFFFFFFFFFFFFFFFF AND DUP2 MSTORE PUSH1 0x20 ADD SWAP1 DUP2 MSTORE PUSH1 0x20 ADD PUSH0 KECCAK256 PUSH0 DUP3 DUP3 SLOAD PUSH2 0x316 SWAP2 SWAP1 PUSH2 0x724 JUMP JUMPDEST SWAP3 POP POP DUP2 SWAP1 SSTORE POP JUMP JUMPDEST PUSH1 0x2 PUSH1 0x20 MSTORE DUP1 PUSH0 MSTORE PUSH1 0x40 PUSH0 KECCAK256 PUSH0 SWAP2 POP SWAP1 POP SLOAD DUP2 JUMP JUMPDEST PUSH1 0x1 DUP2 DUP2 SLOAD DUP2 LT PUSH2 0x343 JUMPI PUSH0 DUP1 REVERT JUMPDEST SWAP1 PUSH0 MSTORE PUSH1 0x20 PUSH0 KECCAK256 ADD PUSH0 SWAP2 POP SLOAD SWAP1 PUSH2 0x100 EXP SWAP1 DIV PUSH20 0xFFFFFFFFFFFFFFFFFFFFFFFFFFFFFFFFFFFFFFFF AND DUP2 JUMP JUMPDEST PUSH0 DUP1 PUSH2 0x379 PUSH2 0x3A7 JUMP JUMPDEST SWAP1 POP PUSH0 PUSH8 0xDE0B6B3A7640000 DUP5 DUP4 PUSH2 0x391 SWAP2 SWAP1 PUSH2 0x757 JUMP JUMPDEST PUSH2 0x39B SWAP2 SWAP1 PUSH2 0x7C5 JUMP JUMPDEST SWAP1 POP DUP1 SWAP3 POP POP POP SWAP2 SWAP1 POP JUMP JUMPDEST PUSH0 DUP1 PUSH20 0x694AA1769357215DE4FAC081BF1F309ADC325306 SWAP1 POP PUSH0 DUP2 PUSH20 0xFFFFFFFFFFFFFFFFFFFFFFFFFFFFFFFFFFFFFFFF AND PUSH4 0xFEAF968C PUSH1 0x40 MLOAD DUP2 PUSH4 0xFFFFFFFF AND PUSH1 0xE0 SHL DUP2 MSTORE PUSH1 0x4 ADD PUSH1 0xA0 PUSH1 0x40 MLOAD DUP1 DUP4 SUB DUP2 DUP7 GAS STATICCALL ISZERO DUP1 ISZERO PUSH2 0x40A JUMPI RETURNDATASIZE PUSH0 DUP1 RETURNDATACOPY RETURNDATASIZE PUSH0 REVERT JUMPDEST POP POP POP POP PUSH1 0x40 MLOAD RETURNDATASIZE PUSH1 0x1F NOT PUSH1 0x1F DUP3 ADD AND DUP3 ADD DUP1 PUSH1 0x40 MSTORE POP DUP2 ADD SWAP1 PUSH2 0x42E SWAP2 SWAP1 PUSH2 0x87B JUMP JUMPDEST POP POP POP SWAP2 POP POP PUSH5 0x2540BE400 DUP2 PUSH2 0x445 SWAP2 SWAP1 PUSH2 0x8F2 JUMP JUMPDEST SWAP3 POP POP POP SWAP1 JUMP JUMPDEST DUP3 DUP1 SLOAD DUP3 DUP3 SSTORE SWAP1 PUSH0 MSTORE PUSH1 0x20 PUSH0 KECCAK256 SWAP1 DUP2 ADD SWAP3 DUP3 ISZERO PUSH2 0x4C2 JUMPI SWAP2 PUSH1 0x20 MUL DUP3 ADD JUMPDEST DUP3 DUP2 GT ISZERO PUSH2 0x4C1 JUMPI DUP3 MLOAD DUP3 PUSH0 PUSH2 0x100 EXP DUP2 SLOAD DUP2 PUSH20 0xFFFFFFFFFFFFFFFFFFFFFFFFFFFFFFFFFFFFFFFF MUL NOT AND SWAP1 DUP4 PUSH20 0xFFFFFFFFFFFFFFFFFFFFFFFFFFFFFFFFFFFFFFFF AND MUL OR SWAP1 SSTORE POP SWAP2 PUSH1 0x20 ADD SWAP2 SWAP1 PUSH1 0x1 ADD SWAP1 PUSH2 0x46A JUMP JUMPDEST JUMPDEST POP SWAP1 POP PUSH2 0x4CF SWAP2 SWAP1 PUSH2 0x4D3 JUMP JUMPDEST POP SWAP1 JUMP JUMPDEST JUMPDEST DUP1 DUP3 GT ISZERO PUSH2 0x4EA JUMPI PUSH0 DUP2 PUSH0 SWAP1 SSTORE POP PUSH1 0x1 ADD PUSH2 0x4D4 JUMP JUMPDEST POP SWAP1 JUMP JUMPDEST PUSH0 DUP1 REVERT JUMPDEST PUSH0 PUSH20 0xFFFFFFFFFFFFFFFFFFFFFFFFFFFFFFFFFFFFFFFF DUP3 AND SWAP1 POP SWAP2 SWAP1 POP JUMP JUMPDEST PUSH0 PUSH2 0x51B DUP3 PUSH2 0x4F2 JUMP JUMPDEST SWAP1 POP SWAP2 SWAP1 POP JUMP JUMPDEST PUSH2 0x52B DUP2 PUSH2 0x511 JUMP JUMPDEST DUP2 EQ PUSH2 0x535 JUMPI PUSH0 DUP1 REVERT JUMPDEST POP JUMP JUMPDEST PUSH0 DUP2 CALLDATALOAD SWAP1 POP PUSH2 0x546 DUP2 PUSH2 0x522 JUMP JUMPDEST SWAP3 SWAP2 POP POP JUMP JUMPDEST PUSH0 PUSH1 0x20 DUP3 DUP5 SUB SLT ISZERO PUSH2 0x561 JUMPI PUSH2 0x560 PUSH2 0x4EE JUMP JUMPDEST JUMPDEST PUSH0 PUSH2 0x56E DUP5 DUP3 DUP6 ADD PUSH2 0x538 JUMP JUMPDEST SWAP2 POP POP SWAP3 SWAP2 POP POP JUMP JUMPDEST PUSH0 DUP2 SWAP1 POP SWAP2 SWAP1 POP JUMP JUMPDEST PUSH2 0x589 DUP2 PUSH2 0x577 JUMP JUMPDEST DUP3 MSTORE POP POP JUMP JUMPDEST PUSH0 PUSH1 0x20 DUP3 ADD SWAP1 POP PUSH2 0x5A2 PUSH0 DUP4 ADD DUP5 PUSH2 0x580 JUMP JUMPDEST SWAP3 SWAP2 POP POP JUMP JUMPDEST PUSH2 0x5B1 DUP2 PUSH2 0x577 JUMP JUMPDEST DUP2 EQ PUSH2 0x5BB JUMPI PUSH0 DUP1 REVERT JUMPDEST POP JUMP JUMPDEST PUSH0 DUP2 CALLDATALOAD SWAP1 POP PUSH2 0x5CC DUP2 PUSH2 0x5A8 JUMP JUMPDEST SWAP3 SWAP2 POP POP JUMP JUMPDEST PUSH0 PUSH1 0x20 DUP3 DUP5 SUB SLT ISZERO PUSH2 0x5E7 JUMPI PUSH2 0x5E6 PUSH2 0x4EE JUMP JUMPDEST JUMPDEST PUSH0 PUSH2 0x5F4 DUP5 DUP3 DUP6 ADD PUSH2 0x5BE JUMP JUMPDEST SWAP2 POP POP SWAP3 SWAP2 POP POP JUMP JUMPDEST PUSH2 0x606 DUP2 PUSH2 0x511 JUMP JUMPDEST DUP3 MSTORE POP POP JUMP JUMPDEST PUSH0 PUSH1 0x20 DUP3 ADD SWAP1 POP PUSH2 0x61F PUSH0 DUP4 ADD DUP5 PUSH2 0x5FD JUMP JUMPDEST SWAP3 SWAP2 POP POP JUMP JUMPDEST PUSH32 0x4E487B7100000000000000000000000000000000000000000000000000000000 PUSH0 MSTORE PUSH1 0x32 PUSH1 0x4 MSTORE PUSH1 0x24 PUSH0 REVERT JUMPDEST PUSH32 0x4E487B7100000000000000000000000000000000000000000000000000000000 PUSH0 MSTORE PUSH1 0x41 PUSH1 0x4 MSTORE PUSH1 0x24 PUSH0 REVERT JUMPDEST PUSH0 DUP3 DUP3 MSTORE PUSH1 0x20 DUP3 ADD SWAP1 POP SWAP3 SWAP2 POP POP JUMP JUMPDEST PUSH32 0x4469646E27742073656E6420656E6F75676820446F6C6C617273210000000000 PUSH0 DUP3 ADD MSTORE POP JUMP JUMPDEST PUSH0 PUSH2 0x6C3 PUSH1 0x1B DUP4 PUSH2 0x67F JUMP JUMPDEST SWAP2 POP PUSH2 0x6CE DUP3 PUSH2 0x68F JUMP JUMPDEST PUSH1 0x20 DUP3 ADD SWAP1 POP SWAP2 SWAP1 POP JUMP JUMPDEST PUSH0 PUSH1 0x20 DUP3 ADD SWAP1 POP DUP2 DUP2 SUB PUSH0 DUP4 ADD MSTORE PUSH2 0x6F0 DUP2 PUSH2 0x6B7 JUMP JUMPDEST SWAP1 POP SWAP2 SWAP1 POP JUMP JUMPDEST PUSH32 0x4E487B7100000000000000000000000000000000000000000000000000000000 PUSH0 MSTORE PUSH1 0x11 PUSH1 0x4 MSTORE PUSH1 0x24 PUSH0 REVERT JUMPDEST PUSH0 PUSH2 0x72E DUP3 PUSH2 0x577 JUMP JUMPDEST SWAP2 POP PUSH2 0x739 DUP4 PUSH2 0x577 JUMP JUMPDEST SWAP3 POP DUP3 DUP3 ADD SWAP1 POP DUP1 DUP3 GT ISZERO PUSH2 0x751 JUMPI PUSH2 0x750 PUSH2 0x6F7 JUMP JUMPDEST JUMPDEST SWAP3 SWAP2 POP POP JUMP JUMPDEST PUSH0 PUSH2 0x761 DUP3 PUSH2 0x577 JUMP JUMPDEST SWAP2 POP PUSH2 0x76C DUP4 PUSH2 0x577 JUMP JUMPDEST SWAP3 POP DUP3 DUP3 MUL PUSH2 0x77A DUP2 PUSH2 0x577 JUMP JUMPDEST SWAP2 POP DUP3 DUP3 DIV DUP5 EQ DUP4 ISZERO OR PUSH2 0x791 JUMPI PUSH2 0x790 PUSH2 0x6F7 JUMP JUMPDEST JUMPDEST POP SWAP3 SWAP2 POP POP JUMP JUMPDEST PUSH32 0x4E487B7100000000000000000000000000000000000000000000000000000000 PUSH0 MSTORE PUSH1 0x12 PUSH1 0x4 MSTORE PUSH1 0x24 PUSH0 REVERT JUMPDEST PUSH0 PUSH2 0x7CF DUP3 PUSH2 0x577 JUMP JUMPDEST SWAP2 POP PUSH2 0x7DA DUP4 PUSH2 0x577 JUMP JUMPDEST SWAP3 POP DUP3 PUSH2 0x7EA JUMPI PUSH2 0x7E9 PUSH2 0x798 JUMP JUMPDEST JUMPDEST DUP3 DUP3 DIV SWAP1 POP SWAP3 SWAP2 POP POP JUMP JUMPDEST PUSH0 PUSH10 0xFFFFFFFFFFFFFFFFFFFF DUP3 AND SWAP1 POP SWAP2 SWAP1 POP JUMP JUMPDEST PUSH2 0x813 DUP2 PUSH2 0x7F5 JUMP JUMPDEST DUP2 EQ PUSH2 0x81D JUMPI PUSH0 DUP1 REVERT JUMPDEST POP JUMP JUMPDEST PUSH0 DUP2 MLOAD SWAP1 POP PUSH2 0x82E DUP2 PUSH2 0x80A JUMP JUMPDEST SWAP3 SWAP2 POP POP JUMP JUMPDEST PUSH0 DUP2 SWAP1 POP SWAP2 SWAP1 POP JUMP JUMPDEST PUSH2 0x846 DUP2 PUSH2 0x834 JUMP JUMPDEST DUP2 EQ PUSH2 0x850 JUMPI PUSH0 DUP1 REVERT JUMPDEST POP JUMP JUMPDEST PUSH0 DUP2 MLOAD SWAP1 POP PUSH2 0x861 DUP2 PUSH2 0x83D JUMP JUMPDEST SWAP3 SWAP2 POP POP JUMP JUMPDEST PUSH0 DUP2 MLOAD SWAP1 POP PUSH2 0x875 DUP2 PUSH2 0x5A8 JUMP JUMPDEST SWAP3 SWAP2 POP POP JUMP JUMPDEST PUSH0 DUP1 PUSH0 DUP1 PUSH0 PUSH1 0xA0 DUP7 DUP9 SUB SLT ISZERO PUSH2 0x894 JUMPI PUSH2 0x893 PUSH2 0x4EE JUMP JUMPDEST JUMPDEST PUSH0 PUSH2 0x8A1 DUP9 DUP3 DUP10 ADD PUSH2 0x820 JUMP JUMPDEST SWAP6 POP POP PUSH1 0x20 PUSH2 0x8B2 DUP9 DUP3 DUP10 ADD PUSH2 0x853 JUMP JUMPDEST SWAP5 POP POP PUSH1 0x40 PUSH2 0x8C3 DUP9 DUP3 DUP10 ADD PUSH2 0x867 JUMP JUMPDEST SWAP4 POP POP PUSH1 0x60 PUSH2 0x8D4 DUP9 DUP3 DUP10 ADD PUSH2 0x867 JUMP JUMPDEST SWAP3 POP POP PUSH1 0x80 PUSH2 0x8E5 DUP9 DUP3 DUP10 ADD PUSH2 0x820 JUMP JUMPDEST SWAP2 POP POP SWAP3 SWAP6 POP SWAP3 SWAP6 SWAP1 SWAP4 POP JUMP JUMPDEST PUSH0 PUSH2 0x8FC DUP3 PUSH2 0x834 JUMP JUMPDEST SWAP2 POP PUSH2 0x907 DUP4 PUSH2 0x834 JUMP JUMPDEST SWAP3 POP DUP3 DUP3 MUL PUSH2 0x915 DUP2 PUSH2 0x834 JUMP JUMPDEST SWAP2 POP PUSH32 0x8000000000000000000000000000000000000000000000000000000000000000 DUP5 EQ PUSH0 DUP5 SLT AND ISZERO PUSH2 0x94C JUMPI PUSH2 0x94B PUSH2 0x6F7 JUMP JUMPDEST JUMPDEST DUP3 DUP3 SDIV DUP5 EQ DUP4 ISZERO OR PUSH2 0x961 JUMPI PUSH2 0x960 PUSH2 0x6F7 JUMP JUMPDEST JUMPDEST POP SWAP3 SWAP2 POP POP JUMP INVALID LOG2 PUSH5 0x6970667358 0x22 SLT KECCAK256 0xDB MOD SWAP2 TSTORE PUSH4 0xA415ABB9 0xA6 SLT SHR SWAP13 EXTCODESIZE 0xD9 DUP11 DUP14 SUB SWAP6 0xBC STOP 0x4C 0x29 PUSH13 0x959CC720A4335F4964736F6C63 NUMBER STOP ADDMOD BYTE STOP CALLER "
				},
				"gasEstimates": {
					"creation": {
						"codeDepositCost": "492400",
						"executionCost": "22627",
						"totalCost": "515027"
					},
					"external": {
						"addressToFundedAmount(address)": "2824",
						"fund()": "infinite",
						"funders(uint256)": "4988",
						"withdraw()": "infinite"
					}
				},
				"methodIdentifiers": {
					"addressToFundedAmount(address)": "d1fa2baa",
					"fund()": "b60d4288",
					"funders(uint256)": "dc0d3dff",
					"withdraw()": "3ccfd60b"
				}
			},
			"storageLayout": {
				"storage": [
					{
						"astId": 55,
						"contract": "FundMe.sol:FundMe",
						"label": "minimumDollar",
						"offset": 0,
						"slot": "0",
						"type": "t_uint256"
					},
					{
						"astId": 58,
						"contract": "FundMe.sol:FundMe",
						"label": "funders",
						"offset": 0,
						"slot": "1",
						"type": "t_array(t_address)dyn_storage"
					},
					{
						"astId": 62,
						"contract": "FundMe.sol:FundMe",
						"label": "addressToFundedAmount",
						"offset": 0,
						"slot": "2",
						"type": "t_mapping(t_address,t_uint256)"
					}
				],
				"types": {
					"t_address": {
						"encoding": "inplace",
						"label": "address",
						"numberOfBytes": "20"
					},
					"t_array(t_address)dyn_storage": {
						"base": "t_address",
						"encoding": "dynamic_array",
						"label": "address[]",
						"numberOfBytes": "32"
					},
					"t_mapping(t_address,t_uint256)": {
						"encoding": "mapping",
						"key": "t_address",
						"label": "mapping(address => uint256)",
						"numberOfBytes": "32",
						"value": "t_uint256"
					},
					"t_uint256": {
						"encoding": "inplace",
						"label": "uint256",
						"numberOfBytes": "32"
					}
				}
			},
			"userdoc": {
				"kind": "user",
				"methods": {},
				"version": 1
			}
		}
	}
}