{
	"AddFiveStorage.sol": {
		"AddFiveStorage": {
			"abi": [
				{
					"inputs": [
						{
							"internalType": "string",
							"name": "_name",
							"type": "string"
						},
						{
							"internalType": "uint256",
							"name": "_favouriteNumber",
							"type": "uint256"
						}
					],
					"name": "addPerson",
					"outputs": [],
					"stateMutability": "nonpayable",
					"type": "function"
				},
				{
					"inputs": [
						{
							"internalType": "uint256",
							"name": "",
							"type": "uint256"
						}
					],
					"name": "listOfPeople",
					"outputs": [
						{
							"internalType": "uint256",
							"name": "favouriteNumber",
							"type": "uint256"
						},
						{
							"internalType": "string",
							"name": "name",
							"type": "string"
						}
					],
					"stateMutability": "view",
					"type": "function"
				},
				{
					"inputs": [
						{
							"internalType": "string",
							"name": "",
							"type": "string"
						}
					],
					"name": "nameToFavouriteNumber",
					"outputs": [
						{
							"internalType": "uint256",
							"name": "",
							"type": "uint256"
						}
					],
					"stateMutability": "view",
					"type": "function"
				},
				{
					"inputs": [],
					"name": "retrieve",
					"outputs": [
						{
							"internalType": "uint256",
							"name": "",
							"type": "uint256"
						}
					],
					"stateMutability": "view",
					"type": "function"
				},
				{
					"inputs": [],
					"name": "sayHello",
					"outputs": [
						{
							"internalType": "string",
							"name": "",
							"type": "string"
						}
					],
					"stateMutability": "pure",
					"type": "function"
				},
				{
					"inputs": [
						{
							"internalType": "uint256",
							"name": "_favouriteNumber",
							"type": "uint256"
						}
					],
					"name": "store",
					"outputs": [],
					"stateMutability": "nonpayable",
					"type": "function"
				}
			],
			"devdoc": {
				"kind": "dev",
				"methods": {},
				"version": 1
			},
			"evm": {
				"assembly": "    /* \"AddFiveStorage.sol\":109:242  contract AddFiveStorage is SimpleStorage{... */\n  mstore(0x40, 0x80)\n  callvalue\n  dup1\n  iszero\n  tag_1\n  jumpi\n  0x00\n  dup1\n  revert\ntag_1:\n  pop\n  dataSize(sub_0)\n  dup1\n  dataOffset(sub_0)\n  0x00\n  codecopy\n  0x00\n  return\nstop\n\nsub_0: assembly {\n        /* \"AddFiveStorage.sol\":109:242  contract AddFiveStorage is SimpleStorage{... */\n      mstore(0x40, 0x80)\n      callvalue\n      dup1\n      iszero\n      tag_1\n      jumpi\n      0x00\n      dup1\n      revert\n    tag_1:\n      pop\n      jumpi(tag_2, lt(calldatasize, 0x04))\n      shr(0xe0, calldataload(0x00))\n      dup1\n      0x2e64cec1\n      eq\n      tag_3\n      jumpi\n      dup1\n      0x2ebce631\n      eq\n      tag_4\n      jumpi\n      dup1\n      0x6057361d\n      eq\n      tag_5\n      jumpi\n      dup1\n      0x6f760f41\n      eq\n      tag_6\n      jumpi\n      dup1\n      0xb2ac62ef\n      eq\n      tag_7\n      jumpi\n      dup1\n      0xef5fb05b\n      eq\n      tag_8\n      jumpi\n    tag_2:\n      0x00\n      dup1\n      revert\n        /* \"SimpleStorage.sol\":743:832  function retrieve() public view returns(uint256){... */\n    tag_3:\n      tag_9\n      tag_10\n      jump\t// in\n    tag_9:\n      mload(0x40)\n      tag_11\n      swap2\n      swap1\n      tag_12\n      jump\t// in\n    tag_11:\n      mload(0x40)\n      dup1\n      swap2\n      sub\n      swap1\n      return\n        /* \"SimpleStorage.sol\":1094:1122  Person[] public listOfPeople */\n    tag_4:\n      tag_13\n      0x04\n      dup1\n      calldatasize\n      sub\n      dup2\n      add\n      swap1\n      tag_14\n      swap2\n      swap1\n      tag_15\n      jump\t// in\n    tag_14:\n      tag_16\n      jump\t// in\n    tag_13:\n      mload(0x40)\n      tag_17\n      swap3\n      swap2\n      swap1\n      tag_18\n      jump\t// in\n    tag_17:\n      mload(0x40)\n      dup1\n      swap2\n      sub\n      swap1\n      return\n        /* \"SimpleStorage.sol\":638:737  function store(uint256 _favouriteNumber) public {... */\n    tag_5:\n      tag_19\n      0x04\n      dup1\n      calldatasize\n      sub\n      dup2\n      add\n      swap1\n      tag_20\n      swap2\n      swap1\n      tag_15\n      jump\t// in\n    tag_20:\n      tag_21\n      jump\t// in\n    tag_19:\n      stop\n        /* \"SimpleStorage.sol\":1317:1618  function addPerson(string memory _name,uint256 _favouriteNumber) public {... */\n    tag_6:\n      tag_22\n      0x04\n      dup1\n      calldatasize\n      sub\n      dup2\n      add\n      swap1\n      tag_23\n      swap2\n      swap1\n      tag_24\n      jump\t// in\n    tag_23:\n      tag_25\n      jump\t// in\n    tag_22:\n      stop\n        /* \"SimpleStorage.sol\":1255:1310  mapping(string => uint256) public nameToFavouriteNumber */\n    tag_7:\n      tag_26\n      0x04\n      dup1\n      calldatasize\n      sub\n      dup2\n      add\n      swap1\n      tag_27\n      swap2\n      swap1\n      tag_28\n      jump\t// in\n    tag_27:\n      tag_29\n      jump\t// in\n    tag_26:\n      mload(0x40)\n      tag_30\n      swap2\n      swap1\n      tag_12\n      jump\t// in\n    tag_30:\n      mload(0x40)\n      dup1\n      swap2\n      sub\n      swap1\n      return\n        /* \"AddFiveStorage.sol\":155:240  function sayHello() public pure returns(string memory){... */\n    tag_8:\n      tag_31\n      tag_32\n      jump\t// in\n    tag_31:\n      mload(0x40)\n      tag_33\n      swap2\n      swap1\n      tag_34\n      jump\t// in\n    tag_33:\n      mload(0x40)\n      dup1\n      swap2\n      sub\n      swap1\n      return\n        /* \"SimpleStorage.sol\":743:832  function retrieve() public view returns(uint256){... */\n    tag_10:\n        /* \"SimpleStorage.sol\":783:790  uint256 */\n      0x00\n        /* \"SimpleStorage.sol\":808:825  myFavouriteNumber */\n      dup1\n      sload\n        /* \"SimpleStorage.sol\":801:825  return myFavouriteNumber */\n      swap1\n      pop\n        /* \"SimpleStorage.sol\":743:832  function retrieve() public view returns(uint256){... */\n      swap1\n      jump\t// out\n        /* \"SimpleStorage.sol\":1094:1122  Person[] public listOfPeople */\n    tag_16:\n      0x01\n      dup2\n      dup2\n      sload\n      dup2\n      lt\n      tag_36\n      jumpi\n      0x00\n      dup1\n      revert\n    tag_36:\n      swap1\n      0x00\n      mstore\n      keccak256(0x00, 0x20)\n      swap1\n      0x02\n      mul\n      add\n      0x00\n      swap2\n      pop\n      swap1\n      pop\n      dup1\n      0x00\n      add\n      sload\n      swap1\n      dup1\n      0x01\n      add\n      dup1\n      sload\n      tag_38\n      swap1\n      tag_39\n      jump\t// in\n    tag_38:\n      dup1\n      0x1f\n      add\n      0x20\n      dup1\n      swap2\n      div\n      mul\n      0x20\n      add\n      mload(0x40)\n      swap1\n      dup2\n      add\n      0x40\n      mstore\n      dup1\n      swap3\n      swap2\n      swap1\n      dup2\n      dup2\n      mstore\n      0x20\n      add\n      dup3\n      dup1\n      sload\n      tag_40\n      swap1\n      tag_39\n      jump\t// in\n    tag_40:\n      dup1\n      iszero\n      tag_41\n      jumpi\n      dup1\n      0x1f\n      lt\n      tag_42\n      jumpi\n      0x0100\n      dup1\n      dup4\n      sload\n      div\n      mul\n      dup4\n      mstore\n      swap2\n      0x20\n      add\n      swap2\n      jump(tag_41)\n    tag_42:\n      dup3\n      add\n      swap2\n      swap1\n      0x00\n      mstore\n      keccak256(0x00, 0x20)\n      swap1\n    tag_43:\n      dup2\n      sload\n      dup2\n      mstore\n      swap1\n      0x01\n      add\n      swap1\n      0x20\n      add\n      dup1\n      dup4\n      gt\n      tag_43\n      jumpi\n      dup3\n      swap1\n      sub\n      0x1f\n      and\n      dup3\n      add\n      swap2\n    tag_41:\n      pop\n      pop\n      pop\n      pop\n      pop\n      swap1\n      pop\n      dup3\n      jump\t// out\n        /* \"SimpleStorage.sol\":638:737  function store(uint256 _favouriteNumber) public {... */\n    tag_21:\n        /* \"SimpleStorage.sol\":714:730  _favouriteNumber */\n      dup1\n        /* \"SimpleStorage.sol\":696:713  myFavouriteNumber */\n      0x00\n        /* \"SimpleStorage.sol\":696:730  myFavouriteNumber=_favouriteNumber */\n      dup2\n      swap1\n      sstore\n      pop\n        /* \"SimpleStorage.sol\":638:737  function store(uint256 _favouriteNumber) public {... */\n      pop\n      jump\t// out\n        /* \"SimpleStorage.sol\":1317:1618  function addPerson(string memory _name,uint256 _favouriteNumber) public {... */\n    tag_25:\n        /* \"SimpleStorage.sol\":1507:1519  listOfPeople */\n      0x01\n        /* \"SimpleStorage.sol\":1525:1555  Person(_favouriteNumber,_name) */\n      mload(0x40)\n      dup1\n      0x40\n      add\n      0x40\n      mstore\n      dup1\n        /* \"SimpleStorage.sol\":1532:1548  _favouriteNumber */\n      dup4\n        /* \"SimpleStorage.sol\":1525:1555  Person(_favouriteNumber,_name) */\n      dup2\n      mstore\n      0x20\n      add\n        /* \"SimpleStorage.sol\":1549:1554  _name */\n      dup5\n        /* \"SimpleStorage.sol\":1525:1555  Person(_favouriteNumber,_name) */\n      dup2\n      mstore\n      pop\n        /* \"SimpleStorage.sol\":1507:1556  listOfPeople.push(Person(_favouriteNumber,_name)) */\n      swap1\n      dup1\n      0x01\n      dup2\n      sload\n      add\n      dup1\n      dup3\n      sstore\n      dup1\n      swap2\n      pop\n      pop\n      0x01\n      swap1\n      sub\n      swap1\n      0x00\n      mstore\n      keccak256(0x00, 0x20)\n      swap1\n      0x02\n      mul\n      add\n      0x00\n      swap1\n      swap2\n      swap1\n      swap2\n      swap1\n      swap2\n      pop\n      0x00\n      dup3\n      add\n      mload\n      dup2\n      0x00\n      add\n      sstore\n      0x20\n      dup3\n      add\n      mload\n      dup2\n      0x01\n      add\n      swap1\n      dup2\n      tag_47\n      swap2\n      swap1\n      tag_48\n      jump\t// in\n    tag_47:\n      pop\n      pop\n      pop\n        /* \"SimpleStorage.sol\":1595:1611  _favouriteNumber */\n      dup1\n        /* \"SimpleStorage.sol\":1566:1587  nameToFavouriteNumber */\n      0x02\n        /* \"SimpleStorage.sol\":1588:1593  _name */\n      dup4\n        /* \"SimpleStorage.sol\":1566:1594  nameToFavouriteNumber[_name] */\n      mload(0x40)\n      tag_49\n      swap2\n      swap1\n      tag_50\n      jump\t// in\n    tag_49:\n      swap1\n      dup2\n      mstore\n      0x20\n      add\n      mload(0x40)\n      dup1\n      swap2\n      sub\n      swap1\n      keccak256\n        /* \"SimpleStorage.sol\":1566:1611  nameToFavouriteNumber[_name]=_favouriteNumber */\n      dup2\n      swap1\n      sstore\n      pop\n        /* \"SimpleStorage.sol\":1317:1618  function addPerson(string memory _name,uint256 _favouriteNumber) public {... */\n      pop\n      pop\n      jump\t// out\n        /* \"SimpleStorage.sol\":1255:1310  mapping(string => uint256) public nameToFavouriteNumber */\n    tag_29:\n      0x02\n      dup2\n      dup1\n      mload\n      0x20\n      dup2\n      add\n      dup3\n      add\n      dup1\n      mload\n      dup5\n      dup3\n      mstore\n      0x20\n      dup4\n      add\n      0x20\n      dup6\n      add\n      keccak256\n      dup2\n      dup4\n      mstore\n      dup1\n      swap6\n      pop\n      pop\n      pop\n      pop\n      pop\n      pop\n      0x00\n      swap2\n      pop\n      swap1\n      pop\n      sload\n      dup2\n      jump\t// out\n        /* \"AddFiveStorage.sol\":155:240  function sayHello() public pure returns(string memory){... */\n    tag_32:\n        /* \"AddFiveStorage.sol\":195:208  string memory */\n      0x60\n        /* \"AddFiveStorage.sol\":219:233  return \"Hello\" */\n      mload(0x40)\n      dup1\n      0x40\n      add\n      0x40\n      mstore\n      dup1\n      0x05\n      dup2\n      mstore\n      0x20\n      add\n      0x48656c6c6f000000000000000000000000000000000000000000000000000000\n      dup2\n      mstore\n      pop\n      swap1\n      pop\n        /* \"AddFiveStorage.sol\":155:240  function sayHello() public pure returns(string memory){... */\n      swap1\n      jump\t// out\n        /* \"#utility.yul\":7:84   */\n    tag_52:\n        /* \"#utility.yul\":44:51   */\n      0x00\n        /* \"#utility.yul\":73:78   */\n      dup2\n        /* \"#utility.yul\":62:78   */\n      swap1\n      pop\n        /* \"#utility.yul\":7:84   */\n      swap2\n      swap1\n      pop\n      jump\t// out\n        /* \"#utility.yul\":90:208   */\n    tag_53:\n        /* \"#utility.yul\":177:201   */\n      tag_94\n        /* \"#utility.yul\":195:200   */\n      dup2\n        /* \"#utility.yul\":177:201   */\n      tag_52\n      jump\t// in\n    tag_94:\n        /* \"#utility.yul\":172:175   */\n      dup3\n        /* \"#utility.yul\":165:202   */\n      mstore\n        /* \"#utility.yul\":90:208   */\n      pop\n      pop\n      jump\t// out\n        /* \"#utility.yul\":214:436   */\n    tag_12:\n        /* \"#utility.yul\":307:311   */\n      0x00\n        /* \"#utility.yul\":345:347   */\n      0x20\n        /* \"#utility.yul\":334:343   */\n      dup3\n        /* \"#utility.yul\":330:348   */\n      add\n        /* \"#utility.yul\":322:348   */\n      swap1\n      pop\n        /* \"#utility.yul\":358:429   */\n      tag_96\n        /* \"#utility.yul\":426:427   */\n      0x00\n        /* \"#utility.yul\":415:424   */\n      dup4\n        /* \"#utility.yul\":411:428   */\n      add\n        /* \"#utility.yul\":402:408   */\n      dup5\n        /* \"#utility.yul\":358:429   */\n      tag_53\n      jump\t// in\n    tag_96:\n        /* \"#utility.yul\":214:436   */\n      swap3\n      swap2\n      pop\n      pop\n      jump\t// out\n        /* \"#utility.yul\":442:517   */\n    tag_54:\n        /* \"#utility.yul\":475:481   */\n      0x00\n        /* \"#utility.yul\":508:510   */\n      0x40\n        /* \"#utility.yul\":502:511   */\n      mload\n        /* \"#utility.yul\":492:511   */\n      swap1\n      pop\n        /* \"#utility.yul\":442:517   */\n      swap1\n      jump\t// out\n        /* \"#utility.yul\":523:640   */\n    tag_55:\n        /* \"#utility.yul\":632:633   */\n      0x00\n        /* \"#utility.yul\":629:630   */\n      dup1\n        /* \"#utility.yul\":622:634   */\n      revert\n        /* \"#utility.yul\":646:763   */\n    tag_56:\n        /* \"#utility.yul\":755:756   */\n      0x00\n        /* \"#utility.yul\":752:753   */\n      dup1\n        /* \"#utility.yul\":745:757   */\n      revert\n        /* \"#utility.yul\":769:891   */\n    tag_57:\n        /* \"#utility.yul\":842:866   */\n      tag_101\n        /* \"#utility.yul\":860:865   */\n      dup2\n        /* \"#utility.yul\":842:866   */\n      tag_52\n      jump\t// in\n    tag_101:\n        /* \"#utility.yul\":835:840   */\n      dup2\n        /* \"#utility.yul\":832:867   */\n      eq\n        /* \"#utility.yul\":822:885   */\n      tag_102\n      jumpi\n        /* \"#utility.yul\":881:882   */\n      0x00\n        /* \"#utility.yul\":878:879   */\n      dup1\n        /* \"#utility.yul\":871:883   */\n      revert\n        /* \"#utility.yul\":822:885   */\n    tag_102:\n        /* \"#utility.yul\":769:891   */\n      pop\n      jump\t// out\n        /* \"#utility.yul\":897:1036   */\n    tag_58:\n        /* \"#utility.yul\":943:948   */\n      0x00\n        /* \"#utility.yul\":981:987   */\n      dup2\n        /* \"#utility.yul\":968:988   */\n      calldataload\n        /* \"#utility.yul\":959:988   */\n      swap1\n      pop\n        /* \"#utility.yul\":997:1030   */\n      tag_104\n        /* \"#utility.yul\":1024:1029   */\n      dup2\n        /* \"#utility.yul\":997:1030   */\n      tag_57\n      jump\t// in\n    tag_104:\n        /* \"#utility.yul\":897:1036   */\n      swap3\n      swap2\n      pop\n      pop\n      jump\t// out\n        /* \"#utility.yul\":1042:1371   */\n    tag_15:\n        /* \"#utility.yul\":1101:1107   */\n      0x00\n        /* \"#utility.yul\":1150:1152   */\n      0x20\n        /* \"#utility.yul\":1138:1147   */\n      dup3\n        /* \"#utility.yul\":1129:1136   */\n      dup5\n        /* \"#utility.yul\":1125:1148   */\n      sub\n        /* \"#utility.yul\":1121:1153   */\n      slt\n        /* \"#utility.yul\":1118:1237   */\n      iszero\n      tag_106\n      jumpi\n        /* \"#utility.yul\":1156:1235   */\n      tag_107\n      tag_55\n      jump\t// in\n    tag_107:\n        /* \"#utility.yul\":1118:1237   */\n    tag_106:\n        /* \"#utility.yul\":1276:1277   */\n      0x00\n        /* \"#utility.yul\":1301:1354   */\n      tag_108\n        /* \"#utility.yul\":1346:1353   */\n      dup5\n        /* \"#utility.yul\":1337:1343   */\n      dup3\n        /* \"#utility.yul\":1326:1335   */\n      dup6\n        /* \"#utility.yul\":1322:1344   */\n      add\n        /* \"#utility.yul\":1301:1354   */\n      tag_58\n      jump\t// in\n    tag_108:\n        /* \"#utility.yul\":1291:1354   */\n      swap2\n      pop\n        /* \"#utility.yul\":1247:1364   */\n      pop\n        /* \"#utility.yul\":1042:1371   */\n      swap3\n      swap2\n      pop\n      pop\n      jump\t// out\n        /* \"#utility.yul\":1377:1476   */\n    tag_59:\n        /* \"#utility.yul\":1429:1435   */\n      0x00\n        /* \"#utility.yul\":1463:1468   */\n      dup2\n        /* \"#utility.yul\":1457:1469   */\n      mload\n        /* \"#utility.yul\":1447:1469   */\n      swap1\n      pop\n        /* \"#utility.yul\":1377:1476   */\n      swap2\n      swap1\n      pop\n      jump\t// out\n        /* \"#utility.yul\":1482:1651   */\n    tag_60:\n        /* \"#utility.yul\":1566:1577   */\n      0x00\n        /* \"#utility.yul\":1600:1606   */\n      dup3\n        /* \"#utility.yul\":1595:1598   */\n      dup3\n        /* \"#utility.yul\":1588:1607   */\n      mstore\n        /* \"#utility.yul\":1640:1644   */\n      0x20\n        /* \"#utility.yul\":1635:1638   */\n      dup3\n        /* \"#utility.yul\":1631:1645   */\n      add\n        /* \"#utility.yul\":1616:1645   */\n      swap1\n      pop\n        /* \"#utility.yul\":1482:1651   */\n      swap3\n      swap2\n      pop\n      pop\n      jump\t// out\n        /* \"#utility.yul\":1657:1903   */\n    tag_61:\n        /* \"#utility.yul\":1738:1739   */\n      0x00\n        /* \"#utility.yul\":1748:1861   */\n    tag_112:\n        /* \"#utility.yul\":1762:1768   */\n      dup4\n        /* \"#utility.yul\":1759:1760   */\n      dup2\n        /* \"#utility.yul\":1756:1769   */\n      lt\n        /* \"#utility.yul\":1748:1861   */\n      iszero\n      tag_114\n      jumpi\n        /* \"#utility.yul\":1847:1848   */\n      dup1\n        /* \"#utility.yul\":1842:1845   */\n      dup3\n        /* \"#utility.yul\":1838:1849   */\n      add\n        /* \"#utility.yul\":1832:1850   */\n      mload\n        /* \"#utility.yul\":1828:1829   */\n      dup2\n        /* \"#utility.yul\":1823:1826   */\n      dup5\n        /* \"#utility.yul\":1819:1830   */\n      add\n        /* \"#utility.yul\":1812:1851   */\n      mstore\n        /* \"#utility.yul\":1784:1786   */\n      0x20\n        /* \"#utility.yul\":1781:1782   */\n      dup2\n        /* \"#utility.yul\":1777:1787   */\n      add\n        /* \"#utility.yul\":1772:1787   */\n      swap1\n      pop\n        /* \"#utility.yul\":1748:1861   */\n      jump(tag_112)\n    tag_114:\n        /* \"#utility.yul\":1895:1896   */\n      0x00\n        /* \"#utility.yul\":1886:1892   */\n      dup5\n        /* \"#utility.yul\":1881:1884   */\n      dup5\n        /* \"#utility.yul\":1877:1893   */\n      add\n        /* \"#utility.yul\":1870:1897   */\n      mstore\n        /* \"#utility.yul\":1719:1903   */\n      pop\n        /* \"#utility.yul\":1657:1903   */\n      pop\n      pop\n      pop\n      jump\t// out\n        /* \"#utility.yul\":1909:2011   */\n    tag_62:\n        /* \"#utility.yul\":1950:1956   */\n      0x00\n        /* \"#utility.yul\":2001:2003   */\n      0x1f\n        /* \"#utility.yul\":1997:2004   */\n      not\n        /* \"#utility.yul\":1992:1994   */\n      0x1f\n        /* \"#utility.yul\":1985:1990   */\n      dup4\n        /* \"#utility.yul\":1981:1995   */\n      add\n        /* \"#utility.yul\":1977:2005   */\n      and\n        /* \"#utility.yul\":1967:2005   */\n      swap1\n      pop\n        /* \"#utility.yul\":1909:2011   */\n      swap2\n      swap1\n      pop\n      jump\t// out\n        /* \"#utility.yul\":2017:2394   */\n    tag_63:\n        /* \"#utility.yul\":2105:2108   */\n      0x00\n        /* \"#utility.yul\":2133:2172   */\n      tag_117\n        /* \"#utility.yul\":2166:2171   */\n      dup3\n        /* \"#utility.yul\":2133:2172   */\n      tag_59\n      jump\t// in\n    tag_117:\n        /* \"#utility.yul\":2188:2259   */\n      tag_118\n        /* \"#utility.yul\":2252:2258   */\n      dup2\n        /* \"#utility.yul\":2247:2250   */\n      dup6\n        /* \"#utility.yul\":2188:2259   */\n      tag_60\n      jump\t// in\n    tag_118:\n        /* \"#utility.yul\":2181:2259   */\n      swap4\n      pop\n        /* \"#utility.yul\":2268:2333   */\n      tag_119\n        /* \"#utility.yul\":2326:2332   */\n      dup2\n        /* \"#utility.yul\":2321:2324   */\n      dup6\n        /* \"#utility.yul\":2314:2318   */\n      0x20\n        /* \"#utility.yul\":2307:2312   */\n      dup7\n        /* \"#utility.yul\":2303:2319   */\n      add\n        /* \"#utility.yul\":2268:2333   */\n      tag_61\n      jump\t// in\n    tag_119:\n        /* \"#utility.yul\":2358:2387   */\n      tag_120\n        /* \"#utility.yul\":2380:2386   */\n      dup2\n        /* \"#utility.yul\":2358:2387   */\n      tag_62\n      jump\t// in\n    tag_120:\n        /* \"#utility.yul\":2353:2356   */\n      dup5\n        /* \"#utility.yul\":2349:2388   */\n      add\n        /* \"#utility.yul\":2342:2388   */\n      swap2\n      pop\n        /* \"#utility.yul\":2109:2394   */\n      pop\n        /* \"#utility.yul\":2017:2394   */\n      swap3\n      swap2\n      pop\n      pop\n      jump\t// out\n        /* \"#utility.yul\":2400:2823   */\n    tag_18:\n        /* \"#utility.yul\":2541:2545   */\n      0x00\n        /* \"#utility.yul\":2579:2581   */\n      0x40\n        /* \"#utility.yul\":2568:2577   */\n      dup3\n        /* \"#utility.yul\":2564:2582   */\n      add\n        /* \"#utility.yul\":2556:2582   */\n      swap1\n      pop\n        /* \"#utility.yul\":2592:2663   */\n      tag_122\n        /* \"#utility.yul\":2660:2661   */\n      0x00\n        /* \"#utility.yul\":2649:2658   */\n      dup4\n        /* \"#utility.yul\":2645:2662   */\n      add\n        /* \"#utility.yul\":2636:2642   */\n      dup6\n        /* \"#utility.yul\":2592:2663   */\n      tag_53\n      jump\t// in\n    tag_122:\n        /* \"#utility.yul\":2710:2719   */\n      dup2\n        /* \"#utility.yul\":2704:2708   */\n      dup2\n        /* \"#utility.yul\":2700:2720   */\n      sub\n        /* \"#utility.yul\":2695:2697   */\n      0x20\n        /* \"#utility.yul\":2684:2693   */\n      dup4\n        /* \"#utility.yul\":2680:2698   */\n      add\n        /* \"#utility.yul\":2673:2721   */\n      mstore\n        /* \"#utility.yul\":2738:2816   */\n      tag_123\n        /* \"#utility.yul\":2811:2815   */\n      dup2\n        /* \"#utility.yul\":2802:2808   */\n      dup5\n        /* \"#utility.yul\":2738:2816   */\n      tag_63\n      jump\t// in\n    tag_123:\n        /* \"#utility.yul\":2730:2816   */\n      swap1\n      pop\n        /* \"#utility.yul\":2400:2823   */\n      swap4\n      swap3\n      pop\n      pop\n      pop\n      jump\t// out\n        /* \"#utility.yul\":2829:2946   */\n    tag_64:\n        /* \"#utility.yul\":2938:2939   */\n      0x00\n        /* \"#utility.yul\":2935:2936   */\n      dup1\n        /* \"#utility.yul\":2928:2940   */\n      revert\n        /* \"#utility.yul\":2952:3069   */\n    tag_65:\n        /* \"#utility.yul\":3061:3062   */\n      0x00\n        /* \"#utility.yul\":3058:3059   */\n      dup1\n        /* \"#utility.yul\":3051:3063   */\n      revert\n        /* \"#utility.yul\":3075:3255   */\n    tag_66:\n        /* \"#utility.yul\":3123:3200   */\n      0x4e487b7100000000000000000000000000000000000000000000000000000000\n        /* \"#utility.yul\":3120:3121   */\n      0x00\n        /* \"#utility.yul\":3113:3201   */\n      mstore\n        /* \"#utility.yul\":3220:3224   */\n      0x41\n        /* \"#utility.yul\":3217:3218   */\n      0x04\n        /* \"#utility.yul\":3210:3225   */\n      mstore\n        /* \"#utility.yul\":3244:3248   */\n      0x24\n        /* \"#utility.yul\":3241:3242   */\n      0x00\n        /* \"#utility.yul\":3234:3249   */\n      revert\n        /* \"#utility.yul\":3261:3542   */\n    tag_67:\n        /* \"#utility.yul\":3344:3371   */\n      tag_128\n        /* \"#utility.yul\":3366:3370   */\n      dup3\n        /* \"#utility.yul\":3344:3371   */\n      tag_62\n      jump\t// in\n    tag_128:\n        /* \"#utility.yul\":3336:3342   */\n      dup2\n        /* \"#utility.yul\":3332:3372   */\n      add\n        /* \"#utility.yul\":3474:3480   */\n      dup2\n        /* \"#utility.yul\":3462:3472   */\n      dup2\n        /* \"#utility.yul\":3459:3481   */\n      lt\n        /* \"#utility.yul\":3438:3456   */\n      0xffffffffffffffff\n        /* \"#utility.yul\":3426:3436   */\n      dup3\n        /* \"#utility.yul\":3423:3457   */\n      gt\n        /* \"#utility.yul\":3420:3482   */\n      or\n        /* \"#utility.yul\":3417:3505   */\n      iszero\n      tag_129\n      jumpi\n        /* \"#utility.yul\":3485:3503   */\n      tag_130\n      tag_66\n      jump\t// in\n    tag_130:\n        /* \"#utility.yul\":3417:3505   */\n    tag_129:\n        /* \"#utility.yul\":3525:3535   */\n      dup1\n        /* \"#utility.yul\":3521:3523   */\n      0x40\n        /* \"#utility.yul\":3514:3536   */\n      mstore\n        /* \"#utility.yul\":3304:3542   */\n      pop\n        /* \"#utility.yul\":3261:3542   */\n      pop\n      pop\n      jump\t// out\n        /* \"#utility.yul\":3548:3677   */\n    tag_68:\n        /* \"#utility.yul\":3582:3588   */\n      0x00\n        /* \"#utility.yul\":3609:3629   */\n      tag_132\n      tag_54\n      jump\t// in\n    tag_132:\n        /* \"#utility.yul\":3599:3629   */\n      swap1\n      pop\n        /* \"#utility.yul\":3638:3671   */\n      tag_133\n        /* \"#utility.yul\":3666:3670   */\n      dup3\n        /* \"#utility.yul\":3658:3664   */\n      dup3\n        /* \"#utility.yul\":3638:3671   */\n      tag_67\n      jump\t// in\n    tag_133:\n        /* \"#utility.yul\":3548:3677   */\n      swap2\n      swap1\n      pop\n      jump\t// out\n        /* \"#utility.yul\":3683:3991   */\n    tag_69:\n        /* \"#utility.yul\":3745:3749   */\n      0x00\n        /* \"#utility.yul\":3835:3853   */\n      0xffffffffffffffff\n        /* \"#utility.yul\":3827:3833   */\n      dup3\n        /* \"#utility.yul\":3824:3854   */\n      gt\n        /* \"#utility.yul\":3821:3877   */\n      iszero\n      tag_135\n      jumpi\n        /* \"#utility.yul\":3857:3875   */\n      tag_136\n      tag_66\n      jump\t// in\n    tag_136:\n        /* \"#utility.yul\":3821:3877   */\n    tag_135:\n        /* \"#utility.yul\":3895:3924   */\n      tag_137\n        /* \"#utility.yul\":3917:3923   */\n      dup3\n        /* \"#utility.yul\":3895:3924   */\n      tag_62\n      jump\t// in\n    tag_137:\n        /* \"#utility.yul\":3887:3924   */\n      swap1\n      pop\n        /* \"#utility.yul\":3979:3983   */\n      0x20\n        /* \"#utility.yul\":3973:3977   */\n      dup2\n        /* \"#utility.yul\":3969:3984   */\n      add\n        /* \"#utility.yul\":3961:3984   */\n      swap1\n      pop\n        /* \"#utility.yul\":3683:3991   */\n      swap2\n      swap1\n      pop\n      jump\t// out\n        /* \"#utility.yul\":3997:4143   */\n    tag_70:\n        /* \"#utility.yul\":4094:4100   */\n      dup3\n        /* \"#utility.yul\":4089:4092   */\n      dup2\n        /* \"#utility.yul\":4084:4087   */\n      dup4\n        /* \"#utility.yul\":4071:4101   */\n      calldatacopy\n        /* \"#utility.yul\":4135:4136   */\n      0x00\n        /* \"#utility.yul\":4126:4132   */\n      dup4\n        /* \"#utility.yul\":4121:4124   */\n      dup4\n        /* \"#utility.yul\":4117:4133   */\n      add\n        /* \"#utility.yul\":4110:4137   */\n      mstore\n        /* \"#utility.yul\":3997:4143   */\n      pop\n      pop\n      pop\n      jump\t// out\n        /* \"#utility.yul\":4149:4574   */\n    tag_71:\n        /* \"#utility.yul\":4227:4232   */\n      0x00\n        /* \"#utility.yul\":4252:4318   */\n      tag_140\n        /* \"#utility.yul\":4268:4317   */\n      tag_141\n        /* \"#utility.yul\":4310:4316   */\n      dup5\n        /* \"#utility.yul\":4268:4317   */\n      tag_69\n      jump\t// in\n    tag_141:\n        /* \"#utility.yul\":4252:4318   */\n      tag_68\n      jump\t// in\n    tag_140:\n        /* \"#utility.yul\":4243:4318   */\n      swap1\n      pop\n        /* \"#utility.yul\":4341:4347   */\n      dup3\n        /* \"#utility.yul\":4334:4339   */\n      dup2\n        /* \"#utility.yul\":4327:4348   */\n      mstore\n        /* \"#utility.yul\":4379:4383   */\n      0x20\n        /* \"#utility.yul\":4372:4377   */\n      dup2\n        /* \"#utility.yul\":4368:4384   */\n      add\n        /* \"#utility.yul\":4417:4420   */\n      dup5\n        /* \"#utility.yul\":4408:4414   */\n      dup5\n        /* \"#utility.yul\":4403:4406   */\n      dup5\n        /* \"#utility.yul\":4399:4415   */\n      add\n        /* \"#utility.yul\":4396:4421   */\n      gt\n        /* \"#utility.yul\":4393:4505   */\n      iszero\n      tag_142\n      jumpi\n        /* \"#utility.yul\":4424:4503   */\n      tag_143\n      tag_65\n      jump\t// in\n    tag_143:\n        /* \"#utility.yul\":4393:4505   */\n    tag_142:\n        /* \"#utility.yul\":4514:4568   */\n      tag_144\n        /* \"#utility.yul\":4561:4567   */\n      dup5\n        /* \"#utility.yul\":4556:4559   */\n      dup3\n        /* \"#utility.yul\":4551:4554   */\n      dup6\n        /* \"#utility.yul\":4514:4568   */\n      tag_70\n      jump\t// in\n    tag_144:\n        /* \"#utility.yul\":4233:4574   */\n      pop\n        /* \"#utility.yul\":4149:4574   */\n      swap4\n      swap3\n      pop\n      pop\n      pop\n      jump\t// out\n        /* \"#utility.yul\":4594:4934   */\n    tag_72:\n        /* \"#utility.yul\":4650:4655   */\n      0x00\n        /* \"#utility.yul\":4699:4702   */\n      dup3\n        /* \"#utility.yul\":4692:4696   */\n      0x1f\n        /* \"#utility.yul\":4684:4690   */\n      dup4\n        /* \"#utility.yul\":4680:4697   */\n      add\n        /* \"#utility.yul\":4676:4703   */\n      slt\n        /* \"#utility.yul\":4666:4788   */\n      tag_146\n      jumpi\n        /* \"#utility.yul\":4707:4786   */\n      tag_147\n      tag_64\n      jump\t// in\n    tag_147:\n        /* \"#utility.yul\":4666:4788   */\n    tag_146:\n        /* \"#utility.yul\":4824:4830   */\n      dup2\n        /* \"#utility.yul\":4811:4831   */\n      calldataload\n        /* \"#utility.yul\":4849:4928   */\n      tag_148\n        /* \"#utility.yul\":4924:4927   */\n      dup5\n        /* \"#utility.yul\":4916:4922   */\n      dup3\n        /* \"#utility.yul\":4909:4913   */\n      0x20\n        /* \"#utility.yul\":4901:4907   */\n      dup7\n        /* \"#utility.yul\":4897:4914   */\n      add\n        /* \"#utility.yul\":4849:4928   */\n      tag_71\n      jump\t// in\n    tag_148:\n        /* \"#utility.yul\":4840:4928   */\n      swap2\n      pop\n        /* \"#utility.yul\":4656:4934   */\n      pop\n        /* \"#utility.yul\":4594:4934   */\n      swap3\n      swap2\n      pop\n      pop\n      jump\t// out\n        /* \"#utility.yul\":4940:5594   */\n    tag_24:\n        /* \"#utility.yul\":5018:5024   */\n      0x00\n        /* \"#utility.yul\":5026:5032   */\n      dup1\n        /* \"#utility.yul\":5075:5077   */\n      0x40\n        /* \"#utility.yul\":5063:5072   */\n      dup4\n        /* \"#utility.yul\":5054:5061   */\n      dup6\n        /* \"#utility.yul\":5050:5073   */\n      sub\n        /* \"#utility.yul\":5046:5078   */\n      slt\n        /* \"#utility.yul\":5043:5162   */\n      iszero\n      tag_150\n      jumpi\n        /* \"#utility.yul\":5081:5160   */\n      tag_151\n      tag_55\n      jump\t// in\n    tag_151:\n        /* \"#utility.yul\":5043:5162   */\n    tag_150:\n        /* \"#utility.yul\":5229:5230   */\n      0x00\n        /* \"#utility.yul\":5218:5227   */\n      dup4\n        /* \"#utility.yul\":5214:5231   */\n      add\n        /* \"#utility.yul\":5201:5232   */\n      calldataload\n        /* \"#utility.yul\":5259:5277   */\n      0xffffffffffffffff\n        /* \"#utility.yul\":5251:5257   */\n      dup2\n        /* \"#utility.yul\":5248:5278   */\n      gt\n        /* \"#utility.yul\":5245:5362   */\n      iszero\n      tag_152\n      jumpi\n        /* \"#utility.yul\":5281:5360   */\n      tag_153\n      tag_56\n      jump\t// in\n    tag_153:\n        /* \"#utility.yul\":5245:5362   */\n    tag_152:\n        /* \"#utility.yul\":5386:5449   */\n      tag_154\n        /* \"#utility.yul\":5441:5448   */\n      dup6\n        /* \"#utility.yul\":5432:5438   */\n      dup3\n        /* \"#utility.yul\":5421:5430   */\n      dup7\n        /* \"#utility.yul\":5417:5439   */\n      add\n        /* \"#utility.yul\":5386:5449   */\n      tag_72\n      jump\t// in\n    tag_154:\n        /* \"#utility.yul\":5376:5449   */\n      swap3\n      pop\n        /* \"#utility.yul\":5172:5459   */\n      pop\n        /* \"#utility.yul\":5498:5500   */\n      0x20\n        /* \"#utility.yul\":5524:5577   */\n      tag_155\n        /* \"#utility.yul\":5569:5576   */\n      dup6\n        /* \"#utility.yul\":5560:5566   */\n      dup3\n        /* \"#utility.yul\":5549:5558   */\n      dup7\n        /* \"#utility.yul\":5545:5567   */\n      add\n        /* \"#utility.yul\":5524:5577   */\n      tag_58\n      jump\t// in\n    tag_155:\n        /* \"#utility.yul\":5514:5577   */\n      swap2\n      pop\n        /* \"#utility.yul\":5469:5587   */\n      pop\n        /* \"#utility.yul\":4940:5594   */\n      swap3\n      pop\n      swap3\n      swap1\n      pop\n      jump\t// out\n        /* \"#utility.yul\":5600:6109   */\n    tag_28:\n        /* \"#utility.yul\":5669:5675   */\n      0x00\n        /* \"#utility.yul\":5718:5720   */\n      0x20\n        /* \"#utility.yul\":5706:5715   */\n      dup3\n        /* \"#utility.yul\":5697:5704   */\n      dup5\n        /* \"#utility.yul\":5693:5716   */\n      sub\n        /* \"#utility.yul\":5689:5721   */\n      slt\n        /* \"#utility.yul\":5686:5805   */\n      iszero\n      tag_157\n      jumpi\n        /* \"#utility.yul\":5724:5803   */\n      tag_158\n      tag_55\n      jump\t// in\n    tag_158:\n        /* \"#utility.yul\":5686:5805   */\n    tag_157:\n        /* \"#utility.yul\":5872:5873   */\n      0x00\n        /* \"#utility.yul\":5861:5870   */\n      dup3\n        /* \"#utility.yul\":5857:5874   */\n      add\n        /* \"#utility.yul\":5844:5875   */\n      calldataload\n        /* \"#utility.yul\":5902:5920   */\n      0xffffffffffffffff\n        /* \"#utility.yul\":5894:5900   */\n      dup2\n        /* \"#utility.yul\":5891:5921   */\n      gt\n        /* \"#utility.yul\":5888:6005   */\n      iszero\n      tag_159\n      jumpi\n        /* \"#utility.yul\":5924:6003   */\n      tag_160\n      tag_56\n      jump\t// in\n    tag_160:\n        /* \"#utility.yul\":5888:6005   */\n    tag_159:\n        /* \"#utility.yul\":6029:6092   */\n      tag_161\n        /* \"#utility.yul\":6084:6091   */\n      dup5\n        /* \"#utility.yul\":6075:6081   */\n      dup3\n        /* \"#utility.yul\":6064:6073   */\n      dup6\n        /* \"#utility.yul\":6060:6082   */\n      add\n        /* \"#utility.yul\":6029:6092   */\n      tag_72\n      jump\t// in\n    tag_161:\n        /* \"#utility.yul\":6019:6092   */\n      swap2\n      pop\n        /* \"#utility.yul\":5815:6102   */\n      pop\n        /* \"#utility.yul\":5600:6109   */\n      swap3\n      swap2\n      pop\n      pop\n      jump\t// out\n        /* \"#utility.yul\":6115:6428   */\n    tag_34:\n        /* \"#utility.yul\":6228:6232   */\n      0x00\n        /* \"#utility.yul\":6266:6268   */\n      0x20\n        /* \"#utility.yul\":6255:6264   */\n      dup3\n        /* \"#utility.yul\":6251:6269   */\n      add\n        /* \"#utility.yul\":6243:6269   */\n      swap1\n      pop\n        /* \"#utility.yul\":6315:6324   */\n      dup2\n        /* \"#utility.yul\":6309:6313   */\n      dup2\n        /* \"#utility.yul\":6305:6325   */\n      sub\n        /* \"#utility.yul\":6301:6302   */\n      0x00\n        /* \"#utility.yul\":6290:6299   */\n      dup4\n        /* \"#utility.yul\":6286:6303   */\n      add\n        /* \"#utility.yul\":6279:6326   */\n      mstore\n        /* \"#utility.yul\":6343:6421   */\n      tag_163\n        /* \"#utility.yul\":6416:6420   */\n      dup2\n        /* \"#utility.yul\":6407:6413   */\n      dup5\n        /* \"#utility.yul\":6343:6421   */\n      tag_63\n      jump\t// in\n    tag_163:\n        /* \"#utility.yul\":6335:6421   */\n      swap1\n      pop\n        /* \"#utility.yul\":6115:6428   */\n      swap3\n      swap2\n      pop\n      pop\n      jump\t// out\n        /* \"#utility.yul\":6434:6614   */\n    tag_73:\n        /* \"#utility.yul\":6482:6559   */\n      0x4e487b7100000000000000000000000000000000000000000000000000000000\n        /* \"#utility.yul\":6479:6480   */\n      0x00\n        /* \"#utility.yul\":6472:6560   */\n      mstore\n        /* \"#utility.yul\":6579:6583   */\n      0x22\n        /* \"#utility.yul\":6576:6577   */\n      0x04\n        /* \"#utility.yul\":6569:6584   */\n      mstore\n        /* \"#utility.yul\":6603:6607   */\n      0x24\n        /* \"#utility.yul\":6600:6601   */\n      0x00\n        /* \"#utility.yul\":6593:6608   */\n      revert\n        /* \"#utility.yul\":6620:6940   */\n    tag_39:\n        /* \"#utility.yul\":6664:6670   */\n      0x00\n        /* \"#utility.yul\":6701:6702   */\n      0x02\n        /* \"#utility.yul\":6695:6699   */\n      dup3\n        /* \"#utility.yul\":6691:6703   */\n      div\n        /* \"#utility.yul\":6681:6703   */\n      swap1\n      pop\n        /* \"#utility.yul\":6748:6749   */\n      0x01\n        /* \"#utility.yul\":6742:6746   */\n      dup3\n        /* \"#utility.yul\":6738:6750   */\n      and\n        /* \"#utility.yul\":6769:6787   */\n      dup1\n        /* \"#utility.yul\":6759:6840   */\n      tag_166\n      jumpi\n        /* \"#utility.yul\":6825:6829   */\n      0x7f\n        /* \"#utility.yul\":6817:6823   */\n      dup3\n        /* \"#utility.yul\":6813:6830   */\n      and\n        /* \"#utility.yul\":6803:6830   */\n      swap2\n      pop\n        /* \"#utility.yul\":6759:6840   */\n    tag_166:\n        /* \"#utility.yul\":6887:6889   */\n      0x20\n        /* \"#utility.yul\":6879:6885   */\n      dup3\n        /* \"#utility.yul\":6876:6890   */\n      lt\n        /* \"#utility.yul\":6856:6874   */\n      dup2\n        /* \"#utility.yul\":6853:6891   */\n      sub\n        /* \"#utility.yul\":6850:6934   */\n      tag_167\n      jumpi\n        /* \"#utility.yul\":6906:6924   */\n      tag_168\n      tag_73\n      jump\t// in\n    tag_168:\n        /* \"#utility.yul\":6850:6934   */\n    tag_167:\n        /* \"#utility.yul\":6671:6940   */\n      pop\n        /* \"#utility.yul\":6620:6940   */\n      swap2\n      swap1\n      pop\n      jump\t// out\n        /* \"#utility.yul\":6946:7087   */\n    tag_74:\n        /* \"#utility.yul\":6995:6999   */\n      0x00\n        /* \"#utility.yul\":7018:7021   */\n      dup2\n        /* \"#utility.yul\":7010:7021   */\n      swap1\n      pop\n        /* \"#utility.yul\":7041:7044   */\n      dup2\n        /* \"#utility.yul\":7038:7039   */\n      0x00\n        /* \"#utility.yul\":7031:7045   */\n      mstore\n        /* \"#utility.yul\":7075:7079   */\n      0x20\n        /* \"#utility.yul\":7072:7073   */\n      0x00\n        /* \"#utility.yul\":7062:7080   */\n      keccak256\n        /* \"#utility.yul\":7054:7080   */\n      swap1\n      pop\n        /* \"#utility.yul\":6946:7087   */\n      swap2\n      swap1\n      pop\n      jump\t// out\n        /* \"#utility.yul\":7093:7186   */\n    tag_75:\n        /* \"#utility.yul\":7130:7136   */\n      0x00\n        /* \"#utility.yul\":7177:7179   */\n      0x20\n        /* \"#utility.yul\":7172:7174   */\n      0x1f\n        /* \"#utility.yul\":7165:7170   */\n      dup4\n        /* \"#utility.yul\":7161:7175   */\n      add\n        /* \"#utility.yul\":7157:7180   */\n      div\n        /* \"#utility.yul\":7147:7180   */\n      swap1\n      pop\n        /* \"#utility.yul\":7093:7186   */\n      swap2\n      swap1\n      pop\n      jump\t// out\n        /* \"#utility.yul\":7192:7299   */\n    tag_76:\n        /* \"#utility.yul\":7236:7244   */\n      0x00\n        /* \"#utility.yul\":7286:7291   */\n      dup3\n        /* \"#utility.yul\":7280:7284   */\n      dup3\n        /* \"#utility.yul\":7276:7292   */\n      shl\n        /* \"#utility.yul\":7255:7292   */\n      swap1\n      pop\n        /* \"#utility.yul\":7192:7299   */\n      swap3\n      swap2\n      pop\n      pop\n      jump\t// out\n        /* \"#utility.yul\":7305:7698   */\n    tag_77:\n        /* \"#utility.yul\":7374:7380   */\n      0x00\n        /* \"#utility.yul\":7424:7425   */\n      0x08\n        /* \"#utility.yul\":7412:7422   */\n      dup4\n        /* \"#utility.yul\":7408:7426   */\n      mul\n        /* \"#utility.yul\":7447:7544   */\n      tag_173\n        /* \"#utility.yul\":7477:7543   */\n      0xffffffffffffffffffffffffffffffffffffffffffffffffffffffffffffffff\n        /* \"#utility.yul\":7466:7475   */\n      dup3\n        /* \"#utility.yul\":7447:7544   */\n      tag_76\n      jump\t// in\n    tag_173:\n        /* \"#utility.yul\":7565:7604   */\n      tag_174\n        /* \"#utility.yul\":7595:7603   */\n      dup7\n        /* \"#utility.yul\":7584:7593   */\n      dup4\n        /* \"#utility.yul\":7565:7604   */\n      tag_76\n      jump\t// in\n    tag_174:\n        /* \"#utility.yul\":7553:7604   */\n      swap6\n      pop\n        /* \"#utility.yul\":7637:7641   */\n      dup1\n        /* \"#utility.yul\":7633:7642   */\n      not\n        /* \"#utility.yul\":7626:7631   */\n      dup5\n        /* \"#utility.yul\":7622:7643   */\n      and\n        /* \"#utility.yul\":7613:7643   */\n      swap4\n      pop\n        /* \"#utility.yul\":7686:7690   */\n      dup1\n        /* \"#utility.yul\":7676:7684   */\n      dup7\n        /* \"#utility.yul\":7672:7691   */\n      and\n        /* \"#utility.yul\":7665:7670   */\n      dup5\n        /* \"#utility.yul\":7662:7692   */\n      or\n        /* \"#utility.yul\":7652:7692   */\n      swap3\n      pop\n        /* \"#utility.yul\":7381:7698   */\n      pop\n      pop\n        /* \"#utility.yul\":7305:7698   */\n      swap4\n      swap3\n      pop\n      pop\n      pop\n      jump\t// out\n        /* \"#utility.yul\":7704:7764   */\n    tag_78:\n        /* \"#utility.yul\":7732:7735   */\n      0x00\n        /* \"#utility.yul\":7753:7758   */\n      dup2\n        /* \"#utility.yul\":7746:7758   */\n      swap1\n      pop\n        /* \"#utility.yul\":7704:7764   */\n      swap2\n      swap1\n      pop\n      jump\t// out\n        /* \"#utility.yul\":7770:7912   */\n    tag_79:\n        /* \"#utility.yul\":7820:7829   */\n      0x00\n        /* \"#utility.yul\":7853:7906   */\n      tag_177\n        /* \"#utility.yul\":7871:7905   */\n      tag_178\n        /* \"#utility.yul\":7880:7904   */\n      tag_179\n        /* \"#utility.yul\":7898:7903   */\n      dup5\n        /* \"#utility.yul\":7880:7904   */\n      tag_52\n      jump\t// in\n    tag_179:\n        /* \"#utility.yul\":7871:7905   */\n      tag_78\n      jump\t// in\n    tag_178:\n        /* \"#utility.yul\":7853:7906   */\n      tag_52\n      jump\t// in\n    tag_177:\n        /* \"#utility.yul\":7840:7906   */\n      swap1\n      pop\n        /* \"#utility.yul\":7770:7912   */\n      swap2\n      swap1\n      pop\n      jump\t// out\n        /* \"#utility.yul\":7918:7993   */\n    tag_80:\n        /* \"#utility.yul\":7961:7964   */\n      0x00\n        /* \"#utility.yul\":7982:7987   */\n      dup2\n        /* \"#utility.yul\":7975:7987   */\n      swap1\n      pop\n        /* \"#utility.yul\":7918:7993   */\n      swap2\n      swap1\n      pop\n      jump\t// out\n        /* \"#utility.yul\":7999:8268   */\n    tag_81:\n        /* \"#utility.yul\":8109:8148   */\n      tag_182\n        /* \"#utility.yul\":8140:8147   */\n      dup4\n        /* \"#utility.yul\":8109:8148   */\n      tag_79\n      jump\t// in\n    tag_182:\n        /* \"#utility.yul\":8170:8261   */\n      tag_183\n        /* \"#utility.yul\":8219:8260   */\n      tag_184\n        /* \"#utility.yul\":8243:8259   */\n      dup3\n        /* \"#utility.yul\":8219:8260   */\n      tag_80\n      jump\t// in\n    tag_184:\n        /* \"#utility.yul\":8211:8217   */\n      dup5\n        /* \"#utility.yul\":8204:8208   */\n      dup5\n        /* \"#utility.yul\":8198:8209   */\n      sload\n        /* \"#utility.yul\":8170:8261   */\n      tag_77\n      jump\t// in\n    tag_183:\n        /* \"#utility.yul\":8164:8168   */\n      dup3\n        /* \"#utility.yul\":8157:8262   */\n      sstore\n        /* \"#utility.yul\":8075:8268   */\n      pop\n        /* \"#utility.yul\":7999:8268   */\n      pop\n      pop\n      pop\n      jump\t// out\n        /* \"#utility.yul\":8274:8347   */\n    tag_82:\n        /* \"#utility.yul\":8319:8322   */\n      0x00\n        /* \"#utility.yul\":8274:8347   */\n      swap1\n      jump\t// out\n        /* \"#utility.yul\":8353:8542   */\n    tag_83:\n        /* \"#utility.yul\":8430:8462   */\n      tag_187\n      tag_82\n      jump\t// in\n    tag_187:\n        /* \"#utility.yul\":8471:8536   */\n      tag_188\n        /* \"#utility.yul\":8529:8535   */\n      dup2\n        /* \"#utility.yul\":8521:8527   */\n      dup5\n        /* \"#utility.yul\":8515:8519   */\n      dup5\n        /* \"#utility.yul\":8471:8536   */\n      tag_81\n      jump\t// in\n    tag_188:\n        /* \"#utility.yul\":8406:8542   */\n      pop\n        /* \"#utility.yul\":8353:8542   */\n      pop\n      pop\n      jump\t// out\n        /* \"#utility.yul\":8548:8734   */\n    tag_84:\n        /* \"#utility.yul\":8608:8728   */\n    tag_190:\n        /* \"#utility.yul\":8625:8628   */\n      dup2\n        /* \"#utility.yul\":8618:8623   */\n      dup2\n        /* \"#utility.yul\":8615:8629   */\n      lt\n        /* \"#utility.yul\":8608:8728   */\n      iszero\n      tag_192\n      jumpi\n        /* \"#utility.yul\":8679:8718   */\n      tag_193\n        /* \"#utility.yul\":8716:8717   */\n      0x00\n        /* \"#utility.yul\":8709:8714   */\n      dup3\n        /* \"#utility.yul\":8679:8718   */\n      tag_83\n      jump\t// in\n    tag_193:\n        /* \"#utility.yul\":8652:8653   */\n      0x01\n        /* \"#utility.yul\":8645:8650   */\n      dup2\n        /* \"#utility.yul\":8641:8654   */\n      add\n        /* \"#utility.yul\":8632:8654   */\n      swap1\n      pop\n        /* \"#utility.yul\":8608:8728   */\n      jump(tag_190)\n    tag_192:\n        /* \"#utility.yul\":8548:8734   */\n      pop\n      pop\n      jump\t// out\n        /* \"#utility.yul\":8740:9283   */\n    tag_85:\n        /* \"#utility.yul\":8841:8843   */\n      0x1f\n        /* \"#utility.yul\":8836:8839   */\n      dup3\n        /* \"#utility.yul\":8833:8844   */\n      gt\n        /* \"#utility.yul\":8830:9276   */\n      iszero\n      tag_195\n      jumpi\n        /* \"#utility.yul\":8875:8913   */\n      tag_196\n        /* \"#utility.yul\":8907:8912   */\n      dup2\n        /* \"#utility.yul\":8875:8913   */\n      tag_74\n      jump\t// in\n    tag_196:\n        /* \"#utility.yul\":8959:8988   */\n      tag_197\n        /* \"#utility.yul\":8977:8987   */\n      dup5\n        /* \"#utility.yul\":8959:8988   */\n      tag_75\n      jump\t// in\n    tag_197:\n        /* \"#utility.yul\":8949:8957   */\n      dup2\n        /* \"#utility.yul\":8945:8989   */\n      add\n        /* \"#utility.yul\":9142:9144   */\n      0x20\n        /* \"#utility.yul\":9130:9140   */\n      dup6\n        /* \"#utility.yul\":9127:9145   */\n      lt\n        /* \"#utility.yul\":9124:9173   */\n      iszero\n      tag_198\n      jumpi\n        /* \"#utility.yul\":9163:9171   */\n      dup2\n        /* \"#utility.yul\":9148:9171   */\n      swap1\n      pop\n        /* \"#utility.yul\":9124:9173   */\n    tag_198:\n        /* \"#utility.yul\":9186:9266   */\n      tag_199\n        /* \"#utility.yul\":9242:9264   */\n      tag_200\n        /* \"#utility.yul\":9260:9263   */\n      dup6\n        /* \"#utility.yul\":9242:9264   */\n      tag_75\n      jump\t// in\n    tag_200:\n        /* \"#utility.yul\":9232:9240   */\n      dup4\n        /* \"#utility.yul\":9228:9265   */\n      add\n        /* \"#utility.yul\":9215:9226   */\n      dup3\n        /* \"#utility.yul\":9186:9266   */\n      tag_84\n      jump\t// in\n    tag_199:\n        /* \"#utility.yul\":8845:9276   */\n      pop\n      pop\n        /* \"#utility.yul\":8830:9276   */\n    tag_195:\n        /* \"#utility.yul\":8740:9283   */\n      pop\n      pop\n      pop\n      jump\t// out\n        /* \"#utility.yul\":9289:9406   */\n    tag_86:\n        /* \"#utility.yul\":9343:9351   */\n      0x00\n        /* \"#utility.yul\":9393:9398   */\n      dup3\n        /* \"#utility.yul\":9387:9391   */\n      dup3\n        /* \"#utility.yul\":9383:9399   */\n      shr\n        /* \"#utility.yul\":9362:9399   */\n      swap1\n      pop\n        /* \"#utility.yul\":9289:9406   */\n      swap3\n      swap2\n      pop\n      pop\n      jump\t// out\n        /* \"#utility.yul\":9412:9581   */\n    tag_87:\n        /* \"#utility.yul\":9456:9462   */\n      0x00\n        /* \"#utility.yul\":9489:9540   */\n      tag_203\n        /* \"#utility.yul\":9537:9538   */\n      0x00\n        /* \"#utility.yul\":9533:9539   */\n      not\n        /* \"#utility.yul\":9525:9530   */\n      dup5\n        /* \"#utility.yul\":9522:9523   */\n      0x08\n        /* \"#utility.yul\":9518:9531   */\n      mul\n        /* \"#utility.yul\":9489:9540   */\n      tag_86\n      jump\t// in\n    tag_203:\n        /* \"#utility.yul\":9485:9541   */\n      not\n        /* \"#utility.yul\":9570:9574   */\n      dup1\n        /* \"#utility.yul\":9564:9568   */\n      dup4\n        /* \"#utility.yul\":9560:9575   */\n      and\n        /* \"#utility.yul\":9550:9575   */\n      swap2\n      pop\n        /* \"#utility.yul\":9463:9581   */\n      pop\n        /* \"#utility.yul\":9412:9581   */\n      swap3\n      swap2\n      pop\n      pop\n      jump\t// out\n        /* \"#utility.yul\":9586:9881   */\n    tag_88:\n        /* \"#utility.yul\":9662:9666   */\n      0x00\n        /* \"#utility.yul\":9808:9837   */\n      tag_205\n        /* \"#utility.yul\":9833:9836   */\n      dup4\n        /* \"#utility.yul\":9827:9831   */\n      dup4\n        /* \"#utility.yul\":9808:9837   */\n      tag_87\n      jump\t// in\n    tag_205:\n        /* \"#utility.yul\":9800:9837   */\n      swap2\n      pop\n        /* \"#utility.yul\":9870:9873   */\n      dup3\n        /* \"#utility.yul\":9867:9868   */\n      0x02\n        /* \"#utility.yul\":9863:9874   */\n      mul\n        /* \"#utility.yul\":9857:9861   */\n      dup3\n        /* \"#utility.yul\":9854:9875   */\n      or\n        /* \"#utility.yul\":9846:9875   */\n      swap1\n      pop\n        /* \"#utility.yul\":9586:9881   */\n      swap3\n      swap2\n      pop\n      pop\n      jump\t// out\n        /* \"#utility.yul\":9886:11281   */\n    tag_48:\n        /* \"#utility.yul\":10003:10040   */\n      tag_207\n        /* \"#utility.yul\":10036:10039   */\n      dup3\n        /* \"#utility.yul\":10003:10040   */\n      tag_59\n      jump\t// in\n    tag_207:\n        /* \"#utility.yul\":10105:10123   */\n      0xffffffffffffffff\n        /* \"#utility.yul\":10097:10103   */\n      dup2\n        /* \"#utility.yul\":10094:10124   */\n      gt\n        /* \"#utility.yul\":10091:10147   */\n      iszero\n      tag_208\n      jumpi\n        /* \"#utility.yul\":10127:10145   */\n      tag_209\n      tag_66\n      jump\t// in\n    tag_209:\n        /* \"#utility.yul\":10091:10147   */\n    tag_208:\n        /* \"#utility.yul\":10171:10209   */\n      tag_210\n        /* \"#utility.yul\":10203:10207   */\n      dup3\n        /* \"#utility.yul\":10197:10208   */\n      sload\n        /* \"#utility.yul\":10171:10209   */\n      tag_39\n      jump\t// in\n    tag_210:\n        /* \"#utility.yul\":10256:10323   */\n      tag_211\n        /* \"#utility.yul\":10316:10322   */\n      dup3\n        /* \"#utility.yul\":10308:10314   */\n      dup3\n        /* \"#utility.yul\":10302:10306   */\n      dup6\n        /* \"#utility.yul\":10256:10323   */\n      tag_85\n      jump\t// in\n    tag_211:\n        /* \"#utility.yul\":10350:10351   */\n      0x00\n        /* \"#utility.yul\":10374:10378   */\n      0x20\n        /* \"#utility.yul\":10361:10378   */\n      swap1\n      pop\n        /* \"#utility.yul\":10406:10408   */\n      0x1f\n        /* \"#utility.yul\":10398:10404   */\n      dup4\n        /* \"#utility.yul\":10395:10409   */\n      gt\n        /* \"#utility.yul\":10423:10424   */\n      0x01\n        /* \"#utility.yul\":10418:11036   */\n      dup2\n      eq\n      tag_213\n      jumpi\n        /* \"#utility.yul\":11080:11081   */\n      0x00\n        /* \"#utility.yul\":11097:11103   */\n      dup5\n        /* \"#utility.yul\":11094:11171   */\n      iszero\n      tag_214\n      jumpi\n        /* \"#utility.yul\":11146:11155   */\n      dup3\n        /* \"#utility.yul\":11141:11144   */\n      dup8\n        /* \"#utility.yul\":11137:11156   */\n      add\n        /* \"#utility.yul\":11131:11157   */\n      mload\n        /* \"#utility.yul\":11122:11157   */\n      swap1\n      pop\n        /* \"#utility.yul\":11094:11171   */\n    tag_214:\n        /* \"#utility.yul\":11197:11264   */\n      tag_215\n        /* \"#utility.yul\":11257:11263   */\n      dup6\n        /* \"#utility.yul\":11250:11255   */\n      dup3\n        /* \"#utility.yul\":11197:11264   */\n      tag_88\n      jump\t// in\n    tag_215:\n        /* \"#utility.yul\":11191:11195   */\n      dup7\n        /* \"#utility.yul\":11184:11265   */\n      sstore\n        /* \"#utility.yul\":11053:11275   */\n      pop\n        /* \"#utility.yul\":10388:11275   */\n      jump(tag_212)\n        /* \"#utility.yul\":10418:11036   */\n    tag_213:\n        /* \"#utility.yul\":10470:10474   */\n      0x1f\n        /* \"#utility.yul\":10466:10475   */\n      not\n        /* \"#utility.yul\":10458:10464   */\n      dup5\n        /* \"#utility.yul\":10454:10476   */\n      and\n        /* \"#utility.yul\":10504:10541   */\n      tag_216\n        /* \"#utility.yul\":10536:10540   */\n      dup7\n        /* \"#utility.yul\":10504:10541   */\n      tag_74\n      jump\t// in\n    tag_216:\n        /* \"#utility.yul\":10563:10564   */\n      0x00\n        /* \"#utility.yul\":10577:10785   */\n    tag_217:\n        /* \"#utility.yul\":10591:10598   */\n      dup3\n        /* \"#utility.yul\":10588:10589   */\n      dup2\n        /* \"#utility.yul\":10585:10599   */\n      lt\n        /* \"#utility.yul\":10577:10785   */\n      iszero\n      tag_219\n      jumpi\n        /* \"#utility.yul\":10670:10679   */\n      dup5\n        /* \"#utility.yul\":10665:10668   */\n      dup10\n        /* \"#utility.yul\":10661:10680   */\n      add\n        /* \"#utility.yul\":10655:10681   */\n      mload\n        /* \"#utility.yul\":10647:10653   */\n      dup3\n        /* \"#utility.yul\":10640:10682   */\n      sstore\n        /* \"#utility.yul\":10721:10722   */\n      0x01\n        /* \"#utility.yul\":10713:10719   */\n      dup3\n        /* \"#utility.yul\":10709:10723   */\n      add\n        /* \"#utility.yul\":10699:10723   */\n      swap2\n      pop\n        /* \"#utility.yul\":10768:10770   */\n      0x20\n        /* \"#utility.yul\":10757:10766   */\n      dup6\n        /* \"#utility.yul\":10753:10771   */\n      add\n        /* \"#utility.yul\":10740:10771   */\n      swap5\n      pop\n        /* \"#utility.yul\":10614:10618   */\n      0x20\n        /* \"#utility.yul\":10611:10612   */\n      dup2\n        /* \"#utility.yul\":10607:10619   */\n      add\n        /* \"#utility.yul\":10602:10619   */\n      swap1\n      pop\n        /* \"#utility.yul\":10577:10785   */\n      jump(tag_217)\n    tag_219:\n        /* \"#utility.yul\":10813:10819   */\n      dup7\n        /* \"#utility.yul\":10804:10811   */\n      dup4\n        /* \"#utility.yul\":10801:10820   */\n      lt\n        /* \"#utility.yul\":10798:10977   */\n      iszero\n      tag_220\n      jumpi\n        /* \"#utility.yul\":10871:10880   */\n      dup5\n        /* \"#utility.yul\":10866:10869   */\n      dup10\n        /* \"#utility.yul\":10862:10881   */\n      add\n        /* \"#utility.yul\":10856:10882   */\n      mload\n        /* \"#utility.yul\":10914:10962   */\n      tag_221\n        /* \"#utility.yul\":10956:10960   */\n      0x1f\n        /* \"#utility.yul\":10948:10954   */\n      dup10\n        /* \"#utility.yul\":10944:10961   */\n      and\n        /* \"#utility.yul\":10933:10942   */\n      dup3\n        /* \"#utility.yul\":10914:10962   */\n      tag_87\n      jump\t// in\n    tag_221:\n        /* \"#utility.yul\":10906:10912   */\n      dup4\n        /* \"#utility.yul\":10899:10963   */\n      sstore\n        /* \"#utility.yul\":10821:10977   */\n      pop\n        /* \"#utility.yul\":10798:10977   */\n    tag_220:\n        /* \"#utility.yul\":11023:11024   */\n      0x01\n        /* \"#utility.yul\":11019:11020   */\n      0x02\n        /* \"#utility.yul\":11011:11017   */\n      dup9\n        /* \"#utility.yul\":11007:11021   */\n      mul\n        /* \"#utility.yul\":11003:11025   */\n      add\n        /* \"#utility.yul\":10997:11001   */\n      dup9\n        /* \"#utility.yul\":10990:11026   */\n      sstore\n        /* \"#utility.yul\":10425:11036   */\n      pop\n      pop\n      pop\n        /* \"#utility.yul\":10388:11275   */\n    tag_212:\n      pop\n        /* \"#utility.yul\":9978:11281   */\n      pop\n      pop\n      pop\n        /* \"#utility.yul\":9886:11281   */\n      pop\n      pop\n      jump\t// out\n        /* \"#utility.yul\":11287:11435   */\n    tag_89:\n        /* \"#utility.yul\":11389:11400   */\n      0x00\n        /* \"#utility.yul\":11426:11429   */\n      dup2\n        /* \"#utility.yul\":11411:11429   */\n      swap1\n      pop\n        /* \"#utility.yul\":11287:11435   */\n      swap3\n      swap2\n      pop\n      pop\n      jump\t// out\n        /* \"#utility.yul\":11441:11831   */\n    tag_90:\n        /* \"#utility.yul\":11547:11550   */\n      0x00\n        /* \"#utility.yul\":11575:11614   */\n      tag_224\n        /* \"#utility.yul\":11608:11613   */\n      dup3\n        /* \"#utility.yul\":11575:11614   */\n      tag_59\n      jump\t// in\n    tag_224:\n        /* \"#utility.yul\":11630:11719   */\n      tag_225\n        /* \"#utility.yul\":11712:11718   */\n      dup2\n        /* \"#utility.yul\":11707:11710   */\n      dup6\n        /* \"#utility.yul\":11630:11719   */\n      tag_89\n      jump\t// in\n    tag_225:\n        /* \"#utility.yul\":11623:11719   */\n      swap4\n      pop\n        /* \"#utility.yul\":11728:11793   */\n      tag_226\n        /* \"#utility.yul\":11786:11792   */\n      dup2\n        /* \"#utility.yul\":11781:11784   */\n      dup6\n        /* \"#utility.yul\":11774:11778   */\n      0x20\n        /* \"#utility.yul\":11767:11772   */\n      dup7\n        /* \"#utility.yul\":11763:11779   */\n      add\n        /* \"#utility.yul\":11728:11793   */\n      tag_61\n      jump\t// in\n    tag_226:\n        /* \"#utility.yul\":11818:11824   */\n      dup1\n        /* \"#utility.yul\":11813:11816   */\n      dup5\n        /* \"#utility.yul\":11809:11825   */\n      add\n        /* \"#utility.yul\":11802:11825   */\n      swap2\n      pop\n        /* \"#utility.yul\":11551:11831   */\n      pop\n        /* \"#utility.yul\":11441:11831   */\n      swap3\n      swap2\n      pop\n      pop\n      jump\t// out\n        /* \"#utility.yul\":11837:12112   */\n    tag_50:\n        /* \"#utility.yul\":11969:11972   */\n      0x00\n        /* \"#utility.yul\":11991:12086   */\n      tag_228\n        /* \"#utility.yul\":12082:12085   */\n      dup3\n        /* \"#utility.yul\":12073:12079   */\n      dup5\n        /* \"#utility.yul\":11991:12086   */\n      tag_90\n      jump\t// in\n    tag_228:\n        /* \"#utility.yul\":11984:12086   */\n      swap2\n      pop\n        /* \"#utility.yul\":12103:12106   */\n      dup2\n        /* \"#utility.yul\":12096:12106   */\n      swap1\n      pop\n        /* \"#utility.yul\":11837:12112   */\n      swap3\n      swap2\n      pop\n      pop\n      jump\t// out\n\n    auxdata: 0xa2646970667358221220d301080c0e1afa7349790242bcbf3bc059700cbcfe5fd87d773530158d7d06a464736f6c63430008120033\n}\n",
				"bytecode": {
					"linkReferences": {},
					"object": "608060405234801561001057600080fd5b506109c3806100206000396000f3fe608060405234801561001057600080fd5b50600436106100625760003560e01c80632e64cec1146100675780632ebce631146100855780636057361d146100b65780636f760f41146100d2578063b2ac62ef146100ee578063ef5fb05b1461011e575b600080fd5b61006f61013c565b60405161007c9190610318565b60405180910390f35b61009f600480360381019061009a9190610373565b610145565b6040516100ad929190610430565b60405180910390f35b6100d060048036038101906100cb9190610373565b610201565b005b6100ec60048036038101906100e79190610595565b61020b565b005b610108600480360381019061010391906105f1565b610294565b6040516101159190610318565b60405180910390f35b6101266102c2565b604051610133919061063a565b60405180910390f35b60008054905090565b6001818154811061015557600080fd5b906000526020600020906002020160009150905080600001549080600101805461017e9061068b565b80601f01602080910402602001604051908101604052809291908181526020018280546101aa9061068b565b80156101f75780601f106101cc576101008083540402835291602001916101f7565b820191906000526020600020905b8154815290600101906020018083116101da57829003601f168201915b5050505050905082565b8060008190555050565b6001604051806040016040528083815260200184815250908060018154018082558091505060019003906000526020600020906002020160009091909190915060008201518160000155602082015181600101908161026a9190610868565b5050508060028360405161027e9190610976565b9081526020016040518091039020819055505050565b6002818051602081018201805184825260208301602085012081835280955050505050506000915090505481565b60606040518060400160405280600581526020017f48656c6c6f000000000000000000000000000000000000000000000000000000815250905090565b6000819050919050565b610312816102ff565b82525050565b600060208201905061032d6000830184610309565b92915050565b6000604051905090565b600080fd5b600080fd5b610350816102ff565b811461035b57600080fd5b50565b60008135905061036d81610347565b92915050565b6000602082840312156103895761038861033d565b5b60006103978482850161035e565b91505092915050565b600081519050919050565b600082825260208201905092915050565b60005b838110156103da5780820151818401526020810190506103bf565b60008484015250505050565b6000601f19601f8301169050919050565b6000610402826103a0565b61040c81856103ab565b935061041c8185602086016103bc565b610425816103e6565b840191505092915050565b60006040820190506104456000830185610309565b818103602083015261045781846103f7565b90509392505050565b600080fd5b600080fd5b7f4e487b7100000000000000000000000000000000000000000000000000000000600052604160045260246000fd5b6104a2826103e6565b810181811067ffffffffffffffff821117156104c1576104c061046a565b5b80604052505050565b60006104d4610333565b90506104e08282610499565b919050565b600067ffffffffffffffff821115610500576104ff61046a565b5b610509826103e6565b9050602081019050919050565b82818337600083830152505050565b6000610538610533846104e5565b6104ca565b90508281526020810184848401111561055457610553610465565b5b61055f848285610516565b509392505050565b600082601f83011261057c5761057b610460565b5b813561058c848260208601610525565b91505092915050565b600080604083850312156105ac576105ab61033d565b5b600083013567ffffffffffffffff8111156105ca576105c9610342565b5b6105d685828601610567565b92505060206105e78582860161035e565b9150509250929050565b6000602082840312156106075761060661033d565b5b600082013567ffffffffffffffff81111561062557610624610342565b5b61063184828501610567565b91505092915050565b6000602082019050818103600083015261065481846103f7565b905092915050565b7f4e487b7100000000000000000000000000000000000000000000000000000000600052602260045260246000fd5b600060028204905060018216806106a357607f821691505b6020821081036106b6576106b561065c565b5b50919050565b60008190508160005260206000209050919050565b60006020601f8301049050919050565b600082821b905092915050565b60006008830261071e7fffffffffffffffffffffffffffffffffffffffffffffffffffffffffffffffff826106e1565b61072886836106e1565b95508019841693508086168417925050509392505050565b6000819050919050565b600061076561076061075b846102ff565b610740565b6102ff565b9050919050565b6000819050919050565b61077f8361074a565b61079361078b8261076c565b8484546106ee565b825550505050565b600090565b6107a861079b565b6107b3818484610776565b505050565b5b818110156107d7576107cc6000826107a0565b6001810190506107b9565b5050565b601f82111561081c576107ed816106bc565b6107f6846106d1565b81016020851015610805578190505b610819610811856106d1565b8301826107b8565b50505b505050565b600082821c905092915050565b600061083f60001984600802610821565b1980831691505092915050565b6000610858838361082e565b9150826002028217905092915050565b610871826103a0565b67ffffffffffffffff81111561088a5761088961046a565b5b610894825461068b565b61089f8282856107db565b600060209050601f8311600181146108d257600084156108c0578287015190505b6108ca858261084c565b865550610932565b601f1984166108e0866106bc565b60005b82811015610908578489015182556001820191506020850194506020810190506108e3565b868310156109255784890151610921601f89168261082e565b8355505b6001600288020188555050505b505050505050565b600081905092915050565b6000610950826103a0565b61095a818561093a565b935061096a8185602086016103bc565b80840191505092915050565b60006109828284610945565b91508190509291505056fea2646970667358221220d301080c0e1afa7349790242bcbf3bc059700cbcfe5fd87d773530158d7d06a464736f6c63430008120033",
					"opcodes": "PUSH1 0x80 PUSH1 0x40 MSTORE CALLVALUE DUP1 ISZERO PUSH2 0x10 JUMPI PUSH1 0x0 DUP1 REVERT JUMPDEST POP PUSH2 0x9C3 DUP1 PUSH2 0x20 PUSH1 0x0 CODECOPY PUSH1 0x0 RETURN INVALID PUSH1 0x80 PUSH1 0x40 MSTORE CALLVALUE DUP1 ISZERO PUSH2 0x10 JUMPI PUSH1 0x0 DUP1 REVERT JUMPDEST POP PUSH1 0x4 CALLDATASIZE LT PUSH2 0x62 JUMPI PUSH1 0x0 CALLDATALOAD PUSH1 0xE0 SHR DUP1 PUSH4 0x2E64CEC1 EQ PUSH2 0x67 JUMPI DUP1 PUSH4 0x2EBCE631 EQ PUSH2 0x85 JUMPI DUP1 PUSH4 0x6057361D EQ PUSH2 0xB6 JUMPI DUP1 PUSH4 0x6F760F41 EQ PUSH2 0xD2 JUMPI DUP1 PUSH4 0xB2AC62EF EQ PUSH2 0xEE JUMPI DUP1 PUSH4 0xEF5FB05B EQ PUSH2 0x11E JUMPI JUMPDEST PUSH1 0x0 DUP1 REVERT JUMPDEST PUSH2 0x6F PUSH2 0x13C JUMP JUMPDEST PUSH1 0x40 MLOAD PUSH2 0x7C SWAP2 SWAP1 PUSH2 0x318 JUMP JUMPDEST PUSH1 0x40 MLOAD DUP1 SWAP2 SUB SWAP1 RETURN JUMPDEST PUSH2 0x9F PUSH1 0x4 DUP1 CALLDATASIZE SUB DUP2 ADD SWAP1 PUSH2 0x9A SWAP2 SWAP1 PUSH2 0x373 JUMP JUMPDEST PUSH2 0x145 JUMP JUMPDEST PUSH1 0x40 MLOAD PUSH2 0xAD SWAP3 SWAP2 SWAP1 PUSH2 0x430 JUMP JUMPDEST PUSH1 0x40 MLOAD DUP1 SWAP2 SUB SWAP1 RETURN JUMPDEST PUSH2 0xD0 PUSH1 0x4 DUP1 CALLDATASIZE SUB DUP2 ADD SWAP1 PUSH2 0xCB SWAP2 SWAP1 PUSH2 0x373 JUMP JUMPDEST PUSH2 0x201 JUMP JUMPDEST STOP JUMPDEST PUSH2 0xEC PUSH1 0x4 DUP1 CALLDATASIZE SUB DUP2 ADD SWAP1 PUSH2 0xE7 SWAP2 SWAP1 PUSH2 0x595 JUMP JUMPDEST PUSH2 0x20B JUMP JUMPDEST STOP JUMPDEST PUSH2 0x108 PUSH1 0x4 DUP1 CALLDATASIZE SUB DUP2 ADD SWAP1 PUSH2 0x103 SWAP2 SWAP1 PUSH2 0x5F1 JUMP JUMPDEST PUSH2 0x294 JUMP JUMPDEST PUSH1 0x40 MLOAD PUSH2 0x115 SWAP2 SWAP1 PUSH2 0x318 JUMP JUMPDEST PUSH1 0x40 MLOAD DUP1 SWAP2 SUB SWAP1 RETURN JUMPDEST PUSH2 0x126 PUSH2 0x2C2 JUMP JUMPDEST PUSH1 0x40 MLOAD PUSH2 0x133 SWAP2 SWAP1 PUSH2 0x63A JUMP JUMPDEST PUSH1 0x40 MLOAD DUP1 SWAP2 SUB SWAP1 RETURN JUMPDEST PUSH1 0x0 DUP1 SLOAD SWAP1 POP SWAP1 JUMP JUMPDEST PUSH1 0x1 DUP2 DUP2 SLOAD DUP2 LT PUSH2 0x155 JUMPI PUSH1 0x0 DUP1 REVERT JUMPDEST SWAP1 PUSH1 0x0 MSTORE PUSH1 0x20 PUSH1 0x0 KECCAK256 SWAP1 PUSH1 0x2 MUL ADD PUSH1 0x0 SWAP2 POP SWAP1 POP DUP1 PUSH1 0x0 ADD SLOAD SWAP1 DUP1 PUSH1 0x1 ADD DUP1 SLOAD PUSH2 0x17E SWAP1 PUSH2 0x68B JUMP JUMPDEST DUP1 PUSH1 0x1F ADD PUSH1 0x20 DUP1 SWAP2 DIV MUL PUSH1 0x20 ADD PUSH1 0x40 MLOAD SWAP1 DUP2 ADD PUSH1 0x40 MSTORE DUP1 SWAP3 SWAP2 SWAP1 DUP2 DUP2 MSTORE PUSH1 0x20 ADD DUP3 DUP1 SLOAD PUSH2 0x1AA SWAP1 PUSH2 0x68B JUMP JUMPDEST DUP1 ISZERO PUSH2 0x1F7 JUMPI DUP1 PUSH1 0x1F LT PUSH2 0x1CC JUMPI PUSH2 0x100 DUP1 DUP4 SLOAD DIV MUL DUP4 MSTORE SWAP2 PUSH1 0x20 ADD SWAP2 PUSH2 0x1F7 JUMP JUMPDEST DUP3 ADD SWAP2 SWAP1 PUSH1 0x0 MSTORE PUSH1 0x20 PUSH1 0x0 KECCAK256 SWAP1 JUMPDEST DUP2 SLOAD DUP2 MSTORE SWAP1 PUSH1 0x1 ADD SWAP1 PUSH1 0x20 ADD DUP1 DUP4 GT PUSH2 0x1DA JUMPI DUP3 SWAP1 SUB PUSH1 0x1F AND DUP3 ADD SWAP2 JUMPDEST POP POP POP POP POP SWAP1 POP DUP3 JUMP JUMPDEST DUP1 PUSH1 0x0 DUP2 SWAP1 SSTORE POP POP JUMP JUMPDEST PUSH1 0x1 PUSH1 0x40 MLOAD DUP1 PUSH1 0x40 ADD PUSH1 0x40 MSTORE DUP1 DUP4 DUP2 MSTORE PUSH1 0x20 ADD DUP5 DUP2 MSTORE POP SWAP1 DUP1 PUSH1 0x1 DUP2 SLOAD ADD DUP1 DUP3 SSTORE DUP1 SWAP2 POP POP PUSH1 0x1 SWAP1 SUB SWAP1 PUSH1 0x0 MSTORE PUSH1 0x20 PUSH1 0x0 KECCAK256 SWAP1 PUSH1 0x2 MUL ADD PUSH1 0x0 SWAP1 SWAP2 SWAP1 SWAP2 SWAP1 SWAP2 POP PUSH1 0x0 DUP3 ADD MLOAD DUP2 PUSH1 0x0 ADD SSTORE PUSH1 0x20 DUP3 ADD MLOAD DUP2 PUSH1 0x1 ADD SWAP1 DUP2 PUSH2 0x26A SWAP2 SWAP1 PUSH2 0x868 JUMP JUMPDEST POP POP POP DUP1 PUSH1 0x2 DUP4 PUSH1 0x40 MLOAD PUSH2 0x27E SWAP2 SWAP1 PUSH2 0x976 JUMP JUMPDEST SWAP1 DUP2 MSTORE PUSH1 0x20 ADD PUSH1 0x40 MLOAD DUP1 SWAP2 SUB SWAP1 KECCAK256 DUP2 SWAP1 SSTORE POP POP POP JUMP JUMPDEST PUSH1 0x2 DUP2 DUP1 MLOAD PUSH1 0x20 DUP2 ADD DUP3 ADD DUP1 MLOAD DUP5 DUP3 MSTORE PUSH1 0x20 DUP4 ADD PUSH1 0x20 DUP6 ADD KECCAK256 DUP2 DUP4 MSTORE DUP1 SWAP6 POP POP POP POP POP POP PUSH1 0x0 SWAP2 POP SWAP1 POP SLOAD DUP2 JUMP JUMPDEST PUSH1 0x60 PUSH1 0x40 MLOAD DUP1 PUSH1 0x40 ADD PUSH1 0x40 MSTORE DUP1 PUSH1 0x5 DUP2 MSTORE PUSH1 0x20 ADD PUSH32 0x48656C6C6F000000000000000000000000000000000000000000000000000000 DUP2 MSTORE POP SWAP1 POP SWAP1 JUMP JUMPDEST PUSH1 0x0 DUP2 SWAP1 POP SWAP2 SWAP1 POP JUMP JUMPDEST PUSH2 0x312 DUP2 PUSH2 0x2FF JUMP JUMPDEST DUP3 MSTORE POP POP JUMP JUMPDEST PUSH1 0x0 PUSH1 0x20 DUP3 ADD SWAP1 POP PUSH2 0x32D PUSH1 0x0 DUP4 ADD DUP5 PUSH2 0x309 JUMP JUMPDEST SWAP3 SWAP2 POP POP JUMP JUMPDEST PUSH1 0x0 PUSH1 0x40 MLOAD SWAP1 POP SWAP1 JUMP JUMPDEST PUSH1 0x0 DUP1 REVERT JUMPDEST PUSH1 0x0 DUP1 REVERT JUMPDEST PUSH2 0x350 DUP2 PUSH2 0x2FF JUMP JUMPDEST DUP2 EQ PUSH2 0x35B JUMPI PUSH1 0x0 DUP1 REVERT JUMPDEST POP JUMP JUMPDEST PUSH1 0x0 DUP2 CALLDATALOAD SWAP1 POP PUSH2 0x36D DUP2 PUSH2 0x347 JUMP JUMPDEST SWAP3 SWAP2 POP POP JUMP JUMPDEST PUSH1 0x0 PUSH1 0x20 DUP3 DUP5 SUB SLT ISZERO PUSH2 0x389 JUMPI PUSH2 0x388 PUSH2 0x33D JUMP JUMPDEST JUMPDEST PUSH1 0x0 PUSH2 0x397 DUP5 DUP3 DUP6 ADD PUSH2 0x35E JUMP JUMPDEST SWAP2 POP POP SWAP3 SWAP2 POP POP JUMP JUMPDEST PUSH1 0x0 DUP2 MLOAD SWAP1 POP SWAP2 SWAP1 POP JUMP JUMPDEST PUSH1 0x0 DUP3 DUP3 MSTORE PUSH1 0x20 DUP3 ADD SWAP1 POP SWAP3 SWAP2 POP POP JUMP JUMPDEST PUSH1 0x0 JUMPDEST DUP4 DUP2 LT ISZERO PUSH2 0x3DA JUMPI DUP1 DUP3 ADD MLOAD DUP2 DUP5 ADD MSTORE PUSH1 0x20 DUP2 ADD SWAP1 POP PUSH2 0x3BF JUMP JUMPDEST PUSH1 0x0 DUP5 DUP5 ADD MSTORE POP POP POP POP JUMP JUMPDEST PUSH1 0x0 PUSH1 0x1F NOT PUSH1 0x1F DUP4 ADD AND SWAP1 POP SWAP2 SWAP1 POP JUMP JUMPDEST PUSH1 0x0 PUSH2 0x402 DUP3 PUSH2 0x3A0 JUMP JUMPDEST PUSH2 0x40C DUP2 DUP6 PUSH2 0x3AB JUMP JUMPDEST SWAP4 POP PUSH2 0x41C DUP2 DUP6 PUSH1 0x20 DUP7 ADD PUSH2 0x3BC JUMP JUMPDEST PUSH2 0x425 DUP2 PUSH2 0x3E6 JUMP JUMPDEST DUP5 ADD SWAP2 POP POP SWAP3 SWAP2 POP POP JUMP JUMPDEST PUSH1 0x0 PUSH1 0x40 DUP3 ADD SWAP1 POP PUSH2 0x445 PUSH1 0x0 DUP4 ADD DUP6 PUSH2 0x309 JUMP JUMPDEST DUP2 DUP2 SUB PUSH1 0x20 DUP4 ADD MSTORE PUSH2 0x457 DUP2 DUP5 PUSH2 0x3F7 JUMP JUMPDEST SWAP1 POP SWAP4 SWAP3 POP POP POP JUMP JUMPDEST PUSH1 0x0 DUP1 REVERT JUMPDEST PUSH1 0x0 DUP1 REVERT JUMPDEST PUSH32 0x4E487B7100000000000000000000000000000000000000000000000000000000 PUSH1 0x0 MSTORE PUSH1 0x41 PUSH1 0x4 MSTORE PUSH1 0x24 PUSH1 0x0 REVERT JUMPDEST PUSH2 0x4A2 DUP3 PUSH2 0x3E6 JUMP JUMPDEST DUP2 ADD DUP2 DUP2 LT PUSH8 0xFFFFFFFFFFFFFFFF DUP3 GT OR ISZERO PUSH2 0x4C1 JUMPI PUSH2 0x4C0 PUSH2 0x46A JUMP JUMPDEST JUMPDEST DUP1 PUSH1 0x40 MSTORE POP POP POP JUMP JUMPDEST PUSH1 0x0 PUSH2 0x4D4 PUSH2 0x333 JUMP JUMPDEST SWAP1 POP PUSH2 0x4E0 DUP3 DUP3 PUSH2 0x499 JUMP JUMPDEST SWAP2 SWAP1 POP JUMP JUMPDEST PUSH1 0x0 PUSH8 0xFFFFFFFFFFFFFFFF DUP3 GT ISZERO PUSH2 0x500 JUMPI PUSH2 0x4FF PUSH2 0x46A JUMP JUMPDEST JUMPDEST PUSH2 0x509 DUP3 PUSH2 0x3E6 JUMP JUMPDEST SWAP1 POP PUSH1 0x20 DUP2 ADD SWAP1 POP SWAP2 SWAP1 POP JUMP JUMPDEST DUP3 DUP2 DUP4 CALLDATACOPY PUSH1 0x0 DUP4 DUP4 ADD MSTORE POP POP POP JUMP JUMPDEST PUSH1 0x0 PUSH2 0x538 PUSH2 0x533 DUP5 PUSH2 0x4E5 JUMP JUMPDEST PUSH2 0x4CA JUMP JUMPDEST SWAP1 POP DUP3 DUP2 MSTORE PUSH1 0x20 DUP2 ADD DUP5 DUP5 DUP5 ADD GT ISZERO PUSH2 0x554 JUMPI PUSH2 0x553 PUSH2 0x465 JUMP JUMPDEST JUMPDEST PUSH2 0x55F DUP5 DUP3 DUP6 PUSH2 0x516 JUMP JUMPDEST POP SWAP4 SWAP3 POP POP POP JUMP JUMPDEST PUSH1 0x0 DUP3 PUSH1 0x1F DUP4 ADD SLT PUSH2 0x57C JUMPI PUSH2 0x57B PUSH2 0x460 JUMP JUMPDEST JUMPDEST DUP2 CALLDATALOAD PUSH2 0x58C DUP5 DUP3 PUSH1 0x20 DUP7 ADD PUSH2 0x525 JUMP JUMPDEST SWAP2 POP POP SWAP3 SWAP2 POP POP JUMP JUMPDEST PUSH1 0x0 DUP1 PUSH1 0x40 DUP4 DUP6 SUB SLT ISZERO PUSH2 0x5AC JUMPI PUSH2 0x5AB PUSH2 0x33D JUMP JUMPDEST JUMPDEST PUSH1 0x0 DUP4 ADD CALLDATALOAD PUSH8 0xFFFFFFFFFFFFFFFF DUP2 GT ISZERO PUSH2 0x5CA JUMPI PUSH2 0x5C9 PUSH2 0x342 JUMP JUMPDEST JUMPDEST PUSH2 0x5D6 DUP6 DUP3 DUP7 ADD PUSH2 0x567 JUMP JUMPDEST SWAP3 POP POP PUSH1 0x20 PUSH2 0x5E7 DUP6 DUP3 DUP7 ADD PUSH2 0x35E JUMP JUMPDEST SWAP2 POP POP SWAP3 POP SWAP3 SWAP1 POP JUMP JUMPDEST PUSH1 0x0 PUSH1 0x20 DUP3 DUP5 SUB SLT ISZERO PUSH2 0x607 JUMPI PUSH2 0x606 PUSH2 0x33D JUMP JUMPDEST JUMPDEST PUSH1 0x0 DUP3 ADD CALLDATALOAD PUSH8 0xFFFFFFFFFFFFFFFF DUP2 GT ISZERO PUSH2 0x625 JUMPI PUSH2 0x624 PUSH2 0x342 JUMP JUMPDEST JUMPDEST PUSH2 0x631 DUP5 DUP3 DUP6 ADD PUSH2 0x567 JUMP JUMPDEST SWAP2 POP POP SWAP3 SWAP2 POP POP JUMP JUMPDEST PUSH1 0x0 PUSH1 0x20 DUP3 ADD SWAP1 POP DUP2 DUP2 SUB PUSH1 0x0 DUP4 ADD MSTORE PUSH2 0x654 DUP2 DUP5 PUSH2 0x3F7 JUMP JUMPDEST SWAP1 POP SWAP3 SWAP2 POP POP JUMP JUMPDEST PUSH32 0x4E487B7100000000000000000000000000000000000000000000000000000000 PUSH1 0x0 MSTORE PUSH1 0x22 PUSH1 0x4 MSTORE PUSH1 0x24 PUSH1 0x0 REVERT JUMPDEST PUSH1 0x0 PUSH1 0x2 DUP3 DIV SWAP1 POP PUSH1 0x1 DUP3 AND DUP1 PUSH2 0x6A3 JUMPI PUSH1 0x7F DUP3 AND SWAP2 POP JUMPDEST PUSH1 0x20 DUP3 LT DUP2 SUB PUSH2 0x6B6 JUMPI PUSH2 0x6B5 PUSH2 0x65C JUMP JUMPDEST JUMPDEST POP SWAP2 SWAP1 POP JUMP JUMPDEST PUSH1 0x0 DUP2 SWAP1 POP DUP2 PUSH1 0x0 MSTORE PUSH1 0x20 PUSH1 0x0 KECCAK256 SWAP1 POP SWAP2 SWAP1 POP JUMP JUMPDEST PUSH1 0x0 PUSH1 0x20 PUSH1 0x1F DUP4 ADD DIV SWAP1 POP SWAP2 SWAP1 POP JUMP JUMPDEST PUSH1 0x0 DUP3 DUP3 SHL SWAP1 POP SWAP3 SWAP2 POP POP JUMP JUMPDEST PUSH1 0x0 PUSH1 0x8 DUP4 MUL PUSH2 0x71E PUSH32 0xFFFFFFFFFFFFFFFFFFFFFFFFFFFFFFFFFFFFFFFFFFFFFFFFFFFFFFFFFFFFFFFF DUP3 PUSH2 0x6E1 JUMP JUMPDEST PUSH2 0x728 DUP7 DUP4 PUSH2 0x6E1 JUMP JUMPDEST SWAP6 POP DUP1 NOT DUP5 AND SWAP4 POP DUP1 DUP7 AND DUP5 OR SWAP3 POP POP POP SWAP4 SWAP3 POP POP POP JUMP JUMPDEST PUSH1 0x0 DUP2 SWAP1 POP SWAP2 SWAP1 POP JUMP JUMPDEST PUSH1 0x0 PUSH2 0x765 PUSH2 0x760 PUSH2 0x75B DUP5 PUSH2 0x2FF JUMP JUMPDEST PUSH2 0x740 JUMP JUMPDEST PUSH2 0x2FF JUMP JUMPDEST SWAP1 POP SWAP2 SWAP1 POP JUMP JUMPDEST PUSH1 0x0 DUP2 SWAP1 POP SWAP2 SWAP1 POP JUMP JUMPDEST PUSH2 0x77F DUP4 PUSH2 0x74A JUMP JUMPDEST PUSH2 0x793 PUSH2 0x78B DUP3 PUSH2 0x76C JUMP JUMPDEST DUP5 DUP5 SLOAD PUSH2 0x6EE JUMP JUMPDEST DUP3 SSTORE POP POP POP POP JUMP JUMPDEST PUSH1 0x0 SWAP1 JUMP JUMPDEST PUSH2 0x7A8 PUSH2 0x79B JUMP JUMPDEST PUSH2 0x7B3 DUP2 DUP5 DUP5 PUSH2 0x776 JUMP JUMPDEST POP POP POP JUMP JUMPDEST JUMPDEST DUP2 DUP2 LT ISZERO PUSH2 0x7D7 JUMPI PUSH2 0x7CC PUSH1 0x0 DUP3 PUSH2 0x7A0 JUMP JUMPDEST PUSH1 0x1 DUP2 ADD SWAP1 POP PUSH2 0x7B9 JUMP JUMPDEST POP POP JUMP JUMPDEST PUSH1 0x1F DUP3 GT ISZERO PUSH2 0x81C JUMPI PUSH2 0x7ED DUP2 PUSH2 0x6BC JUMP JUMPDEST PUSH2 0x7F6 DUP5 PUSH2 0x6D1 JUMP JUMPDEST DUP2 ADD PUSH1 0x20 DUP6 LT ISZERO PUSH2 0x805 JUMPI DUP2 SWAP1 POP JUMPDEST PUSH2 0x819 PUSH2 0x811 DUP6 PUSH2 0x6D1 JUMP JUMPDEST DUP4 ADD DUP3 PUSH2 0x7B8 JUMP JUMPDEST POP POP JUMPDEST POP POP POP JUMP JUMPDEST PUSH1 0x0 DUP3 DUP3 SHR SWAP1 POP SWAP3 SWAP2 POP POP JUMP JUMPDEST PUSH1 0x0 PUSH2 0x83F PUSH1 0x0 NOT DUP5 PUSH1 0x8 MUL PUSH2 0x821 JUMP JUMPDEST NOT DUP1 DUP4 AND SWAP2 POP POP SWAP3 SWAP2 POP POP JUMP JUMPDEST PUSH1 0x0 PUSH2 0x858 DUP4 DUP4 PUSH2 0x82E JUMP JUMPDEST SWAP2 POP DUP3 PUSH1 0x2 MUL DUP3 OR SWAP1 POP SWAP3 SWAP2 POP POP JUMP JUMPDEST PUSH2 0x871 DUP3 PUSH2 0x3A0 JUMP JUMPDEST PUSH8 0xFFFFFFFFFFFFFFFF DUP2 GT ISZERO PUSH2 0x88A JUMPI PUSH2 0x889 PUSH2 0x46A JUMP JUMPDEST JUMPDEST PUSH2 0x894 DUP3 SLOAD PUSH2 0x68B JUMP JUMPDEST PUSH2 0x89F DUP3 DUP3 DUP6 PUSH2 0x7DB JUMP JUMPDEST PUSH1 0x0 PUSH1 0x20 SWAP1 POP PUSH1 0x1F DUP4 GT PUSH1 0x1 DUP2 EQ PUSH2 0x8D2 JUMPI PUSH1 0x0 DUP5 ISZERO PUSH2 0x8C0 JUMPI DUP3 DUP8 ADD MLOAD SWAP1 POP JUMPDEST PUSH2 0x8CA DUP6 DUP3 PUSH2 0x84C JUMP JUMPDEST DUP7 SSTORE POP PUSH2 0x932 JUMP JUMPDEST PUSH1 0x1F NOT DUP5 AND PUSH2 0x8E0 DUP7 PUSH2 0x6BC JUMP JUMPDEST PUSH1 0x0 JUMPDEST DUP3 DUP2 LT ISZERO PUSH2 0x908 JUMPI DUP5 DUP10 ADD MLOAD DUP3 SSTORE PUSH1 0x1 DUP3 ADD SWAP2 POP PUSH1 0x20 DUP6 ADD SWAP5 POP PUSH1 0x20 DUP2 ADD SWAP1 POP PUSH2 0x8E3 JUMP JUMPDEST DUP7 DUP4 LT ISZERO PUSH2 0x925 JUMPI DUP5 DUP10 ADD MLOAD PUSH2 0x921 PUSH1 0x1F DUP10 AND DUP3 PUSH2 0x82E JUMP JUMPDEST DUP4 SSTORE POP JUMPDEST PUSH1 0x1 PUSH1 0x2 DUP9 MUL ADD DUP9 SSTORE POP POP POP JUMPDEST POP POP POP POP POP POP JUMP JUMPDEST PUSH1 0x0 DUP2 SWAP1 POP SWAP3 SWAP2 POP POP JUMP JUMPDEST PUSH1 0x0 PUSH2 0x950 DUP3 PUSH2 0x3A0 JUMP JUMPDEST PUSH2 0x95A DUP2 DUP6 PUSH2 0x93A JUMP JUMPDEST SWAP4 POP PUSH2 0x96A DUP2 DUP6 PUSH1 0x20 DUP7 ADD PUSH2 0x3BC JUMP JUMPDEST DUP1 DUP5 ADD SWAP2 POP POP SWAP3 SWAP2 POP POP JUMP JUMPDEST PUSH1 0x0 PUSH2 0x982 DUP3 DUP5 PUSH2 0x945 JUMP JUMPDEST SWAP2 POP DUP2 SWAP1 POP SWAP3 SWAP2 POP POP JUMP INVALID LOG2 PUSH5 0x6970667358 0x22 SLT KECCAK256 0xD3 ADD ADDMOD 0xC 0xE BYTE STATICCALL PUSH20 0x49790242BCBF3BC059700CBCFE5FD87D77353015 DUP14 PUSH30 0x6A464736F6C634300081200330000000000000000000000000000000000 "
				},
				"gasEstimates": {
					"creation": {
						"codeDepositCost": "499800",
						"executionCost": "537",
						"totalCost": "500337"
					},
					"external": {
						"addPerson(string,uint256)": "infinite",
						"listOfPeople(uint256)": "infinite",
						"nameToFavouriteNumber(string)": "infinite",
						"retrieve()": "2415",
						"sayHello()": "infinite",
						"store(uint256)": "22542"
					}
				},
				"methodIdentifiers": {
					"addPerson(string,uint256)": "6f760f41",
					"listOfPeople(uint256)": "2ebce631",
					"nameToFavouriteNumber(string)": "b2ac62ef",
					"retrieve()": "2e64cec1",
					"sayHello()": "ef5fb05b",
					"store(uint256)": "6057361d"
				}
			},
			"storageLayout": {
				"storage": [
					{
						"astId": 18,
						"contract": "AddFiveStorage.sol:AddFiveStorage",
						"label": "myFavouriteNumber",
						"offset": 0,
						"slot": "0",
						"type": "t_uint256"
					},
					{
						"astId": 45,
						"contract": "AddFiveStorage.sol:AddFiveStorage",
						"label": "listOfPeople",
						"offset": 0,
						"slot": "1",
						"type": "t_array(t_struct(Person)41_storage)dyn_storage"
					},
					{
						"astId": 49,
						"contract": "AddFiveStorage.sol:AddFiveStorage",
						"label": "nameToFavouriteNumber",
						"offset": 0,
						"slot": "2",
						"type": "t_mapping(t_string_memory_ptr,t_uint256)"
					}
				],
				"types": {
					"t_array(t_struct(Person)41_storage)dyn_storage": {
						"base": "t_struct(Person)41_storage",
						"encoding": "dynamic_array",
						"label": "struct SimpleStorage.Person[]",
						"numberOfBytes": "32"
					},
					"t_mapping(t_string_memory_ptr,t_uint256)": {
						"encoding": "mapping",
						"key": "t_string_memory_ptr",
						"label": "mapping(string => uint256)",
						"numberOfBytes": "32",
						"value": "t_uint256"
					},
					"t_string_memory_ptr": {
						"encoding": "bytes",
						"label": "string",
						"numberOfBytes": "32"
					},
					"t_string_storage": {
						"encoding": "bytes",
						"label": "string",
						"numberOfBytes": "32"
					},
					"t_struct(Person)41_storage": {
						"encoding": "inplace",
						"label": "struct SimpleStorage.Person",
						"members": [
							{
								"astId": 38,
								"contract": "AddFiveStorage.sol:AddFiveStorage",
								"label": "favouriteNumber",
								"offset": 0,
								"slot": "0",
								"type": "t_uint256"
							},
							{
								"astId": 40,
								"contract": "AddFiveStorage.sol:AddFiveStorage",
								"label": "name",
								"offset": 0,
								"slot": "1",
								"type": "t_string_storage"
							}
						],
						"numberOfBytes": "64"
					},
					"t_uint256": {
						"encoding": "inplace",
						"label": "uint256",
						"numberOfBytes": "32"
					}
				}
			},
			"userdoc": {
				"kind": "user",
				"methods": {},
				"version": 1
			}
		}
	}
}