{
	"data": {
		"bytecode": {
			"linkReferences": {},
			"object": "6080604052600560005534801561001557600080fd5b50610404806100256000396000f3fe6080604052600436106100295760003560e01c806398d5fdca1461002e578063b60d428814610059575b600080fd5b34801561003a57600080fd5b50610043610063565b604051610050919061016b565b60405180910390f35b61006161010c565b005b60008073694aa1769357215de4fac081bf1f309adc325306905060008173ffffffffffffffffffffffffffffffffffffffff1663feaf968c6040518163ffffffff1660e01b815260040160a060405180830381865afa1580156100ca573d6000803e3d6000fd5b505050506040513d601f19601f820116820180604052508101906100ee919061022f565b5050509150506402540be4008161010591906102d9565b9250505090565b6000543411610150576040517f08c379a0000000000000000000000000000000000000000000000000000000008152600401610147906103ae565b60405180910390fd5b565b6000819050919050565b61016581610152565b82525050565b6000602082019050610180600083018461015c565b92915050565b600080fd5b600069ffffffffffffffffffff82169050919050565b6101aa8161018b565b81146101b557600080fd5b50565b6000815190506101c7816101a1565b92915050565b6000819050919050565b6101e0816101cd565b81146101eb57600080fd5b50565b6000815190506101fd816101d7565b92915050565b61020c81610152565b811461021757600080fd5b50565b60008151905061022981610203565b92915050565b600080600080600060a0868803121561024b5761024a610186565b5b6000610259888289016101b8565b955050602061026a888289016101ee565b945050604061027b8882890161021a565b935050606061028c8882890161021a565b925050608061029d888289016101b8565b9150509295509295909350565b7f4e487b7100000000000000000000000000000000000000000000000000000000600052601160045260246000fd5b60006102e4826101cd565b91506102ef836101cd565b92508282026102fd816101cd565b91507f80000000000000000000000000000000000000000000000000000000000000008414600084121615610335576103346102aa565b5b828205841483151761034a576103496102aa565b5b5092915050565b600082825260208201905092915050565b7f4469646e27742073656e6420656e6f7567682045544821000000000000000000600082015250565b6000610398601783610351565b91506103a382610362565b602082019050919050565b600060208201905081810360008301526103c78161038b565b905091905056fea26469706673582212208fd18119acc38c7ff31f167e76ea225f59d83b01828313561ec66a9bb78f22e164736f6c63430008120033",
			"opcodes": "PUSH1 0x80 PUSH1 0x40 MSTORE PUSH1 0x5 PUSH1 0x0 SSTORE CALLVALUE DUP1 ISZERO PUSH2 0x15 JUMPI PUSH1 0x0 DUP1 REVERT JUMPDEST POP PUSH2 0x404 DUP1 PUSH2 0x25 PUSH1 0x0 CODECOPY PUSH1 0x0 RETURN INVALID PUSH1 0x80 PUSH1 0x40 MSTORE PUSH1 0x4 CALLDATASIZE LT PUSH2 0x29 JUMPI PUSH1 0x0 CALLDATALOAD PUSH1 0xE0 SHR DUP1 PUSH4 0x98D5FDCA EQ PUSH2 0x2E JUMPI DUP1 PUSH4 0xB60D4288 EQ PUSH2 0x59 JUMPI JUMPDEST PUSH1 0x0 DUP1 REVERT JUMPDEST CALLVALUE DUP1 ISZERO PUSH2 0x3A JUMPI PUSH1 0x0 DUP1 REVERT JUMPDEST POP PUSH2 0x43 PUSH2 0x63 JUMP JUMPDEST PUSH1 0x40 MLOAD PUSH2 0x50 SWAP2 SWAP1 PUSH2 0x16B JUMP JUMPDEST PUSH1 0x40 MLOAD DUP1 SWAP2 SUB SWAP1 RETURN JUMPDEST PUSH2 0x61 PUSH2 0x10C JUMP JUMPDEST STOP JUMPDEST PUSH1 0x0 DUP1 PUSH20 0x694AA1769357215DE4FAC081BF1F309ADC325306 SWAP1 POP PUSH1 0x0 DUP2 PUSH20 0xFFFFFFFFFFFFFFFFFFFFFFFFFFFFFFFFFFFFFFFF AND PUSH4 0xFEAF968C PUSH1 0x40 MLOAD DUP2 PUSH4 0xFFFFFFFF AND PUSH1 0xE0 SHL DUP2 MSTORE PUSH1 0x4 ADD PUSH1 0xA0 PUSH1 0x40 MLOAD DUP1 DUP4 SUB DUP2 DUP7 GAS STATICCALL ISZERO DUP1 ISZERO PUSH2 0xCA JUMPI RETURNDATASIZE PUSH1 0x0 DUP1 RETURNDATACOPY RETURNDATASIZE PUSH1 0x0 REVERT JUMPDEST POP POP POP POP PUSH1 0x40 MLOAD RETURNDATASIZE PUSH1 0x1F NOT PUSH1 0x1F DUP3 ADD AND DUP3 ADD DUP1 PUSH1 0x40 MSTORE POP DUP2 ADD SWAP1 PUSH2 0xEE SWAP2 SWAP1 PUSH2 0x22F JUMP JUMPDEST POP POP POP SWAP2 POP POP PUSH5 0x2540BE400 DUP2 PUSH2 0x105 SWAP2 SWAP1 PUSH2 0x2D9 JUMP JUMPDEST SWAP3 POP POP POP SWAP1 JUMP JUMPDEST PUSH1 0x0 SLOAD CALLVALUE GT PUSH2 0x150 JUMPI PUSH1 0x40 MLOAD PUSH32 0x8C379A000000000000000000000000000000000000000000000000000000000 DUP2 MSTORE PUSH1 0x4 ADD PUSH2 0x147 SWAP1 PUSH2 0x3AE JUMP JUMPDEST PUSH1 0x40 MLOAD DUP1 SWAP2 SUB SWAP1 REVERT JUMPDEST JUMP JUMPDEST PUSH1 0x0 DUP2 SWAP1 POP SWAP2 SWAP1 POP JUMP JUMPDEST PUSH2 0x165 DUP2 PUSH2 0x152 JUMP JUMPDEST DUP3 MSTORE POP POP JUMP JUMPDEST PUSH1 0x0 PUSH1 0x20 DUP3 ADD SWAP1 POP PUSH2 0x180 PUSH1 0x0 DUP4 ADD DUP5 PUSH2 0x15C JUMP JUMPDEST SWAP3 SWAP2 POP POP JUMP JUMPDEST PUSH1 0x0 DUP1 REVERT JUMPDEST PUSH1 0x0 PUSH10 0xFFFFFFFFFFFFFFFFFFFF DUP3 AND SWAP1 POP SWAP2 SWAP1 POP JUMP JUMPDEST PUSH2 0x1AA DUP2 PUSH2 0x18B JUMP JUMPDEST DUP2 EQ PUSH2 0x1B5 JUMPI PUSH1 0x0 DUP1 REVERT JUMPDEST POP JUMP JUMPDEST PUSH1 0x0 DUP2 MLOAD SWAP1 POP PUSH2 0x1C7 DUP2 PUSH2 0x1A1 JUMP JUMPDEST SWAP3 SWAP2 POP POP JUMP JUMPDEST PUSH1 0x0 DUP2 SWAP1 POP SWAP2 SWAP1 POP JUMP JUMPDEST PUSH2 0x1E0 DUP2 PUSH2 0x1CD JUMP JUMPDEST DUP2 EQ PUSH2 0x1EB JUMPI PUSH1 0x0 DUP1 REVERT JUMPDEST POP JUMP JUMPDEST PUSH1 0x0 DUP2 MLOAD SWAP1 POP PUSH2 0x1FD DUP2 PUSH2 0x1D7 JUMP JUMPDEST SWAP3 SWAP2 POP POP JUMP JUMPDEST PUSH2 0x20C DUP2 PUSH2 0x152 JUMP JUMPDEST DUP2 EQ PUSH2 0x217 JUMPI PUSH1 0x0 DUP1 REVERT JUMPDEST POP JUMP JUMPDEST PUSH1 0x0 DUP2 MLOAD SWAP1 POP PUSH2 0x229 DUP2 PUSH2 0x203 JUMP JUMPDEST SWAP3 SWAP2 POP POP JUMP JUMPDEST PUSH1 0x0 DUP1 PUSH1 0x0 DUP1 PUSH1 0x0 PUSH1 0xA0 DUP7 DUP9 SUB SLT ISZERO PUSH2 0x24B JUMPI PUSH2 0x24A PUSH2 0x186 JUMP JUMPDEST JUMPDEST PUSH1 0x0 PUSH2 0x259 DUP9 DUP3 DUP10 ADD PUSH2 0x1B8 JUMP JUMPDEST SWAP6 POP POP PUSH1 0x20 PUSH2 0x26A DUP9 DUP3 DUP10 ADD PUSH2 0x1EE JUMP JUMPDEST SWAP5 POP POP PUSH1 0x40 PUSH2 0x27B DUP9 DUP3 DUP10 ADD PUSH2 0x21A JUMP JUMPDEST SWAP4 POP POP PUSH1 0x60 PUSH2 0x28C DUP9 DUP3 DUP10 ADD PUSH2 0x21A JUMP JUMPDEST SWAP3 POP POP PUSH1 0x80 PUSH2 0x29D DUP9 DUP3 DUP10 ADD PUSH2 0x1B8 JUMP JUMPDEST SWAP2 POP POP SWAP3 SWAP6 POP SWAP3 SWAP6 SWAP1 SWAP4 POP JUMP JUMPDEST PUSH32 0x4E487B7100000000000000000000000000000000000000000000000000000000 PUSH1 0x0 MSTORE PUSH1 0x11 PUSH1 0x4 MSTORE PUSH1 0x24 PUSH1 0x0 REVERT JUMPDEST PUSH1 0x0 PUSH2 0x2E4 DUP3 PUSH2 0x1CD JUMP JUMPDEST SWAP2 POP PUSH2 0x2EF DUP4 PUSH2 0x1CD JUMP JUMPDEST SWAP3 POP DUP3 DUP3 MUL PUSH2 0x2FD DUP2 PUSH2 0x1CD JUMP JUMPDEST SWAP2 POP PUSH32 0x8000000000000000000000000000000000000000000000000000000000000000 DUP5 EQ PUSH1 0x0 DUP5 SLT AND ISZERO PUSH2 0x335 JUMPI PUSH2 0x334 PUSH2 0x2AA JUMP JUMPDEST JUMPDEST DUP3 DUP3 SDIV DUP5 EQ DUP4 ISZERO OR PUSH2 0x34A JUMPI PUSH2 0x349 PUSH2 0x2AA JUMP JUMPDEST JUMPDEST POP SWAP3 SWAP2 POP POP JUMP JUMPDEST PUSH1 0x0 DUP3 DUP3 MSTORE PUSH1 0x20 DUP3 ADD SWAP1 POP SWAP3 SWAP2 POP POP JUMP JUMPDEST PUSH32 0x4469646E27742073656E6420656E6F7567682045544821000000000000000000 PUSH1 0x0 DUP3 ADD MSTORE POP JUMP JUMPDEST PUSH1 0x0 PUSH2 0x398 PUSH1 0x17 DUP4 PUSH2 0x351 JUMP JUMPDEST SWAP2 POP PUSH2 0x3A3 DUP3 PUSH2 0x362 JUMP JUMPDEST PUSH1 0x20 DUP3 ADD SWAP1 POP SWAP2 SWAP1 POP JUMP JUMPDEST PUSH1 0x0 PUSH1 0x20 DUP3 ADD SWAP1 POP DUP2 DUP2 SUB PUSH1 0x0 DUP4 ADD MSTORE PUSH2 0x3C7 DUP2 PUSH2 0x38B JUMP JUMPDEST SWAP1 POP SWAP2 SWAP1 POP JUMP INVALID LOG2 PUSH5 0x6970667358 0x22 SLT KECCAK256 DUP16 0xD1 DUP2 NOT 0xAC 0xC3 DUP13 PUSH32 0xF31F167E76EA225F59D83B01828313561EC66A9BB78F22E164736F6C63430008 SLT STOP CALLER "
		},
		"gasEstimates": {
			"creation": {
				"codeDepositCost": "205600",
				"executionCost": "22357",
				"totalCost": "227957"
			},
			"external": {
				"fund()": "2531",
				"getPrice()": "infinite"
			}
		},
		"methodIdentifiers": {
			"fund()": "b60d4288",
			"getPrice()": "98d5fdca"
		}
	},
	"abi": [
		{
			"inputs": [],
			"name": "fund",
			"outputs": [],
			"stateMutability": "payable",
			"type": "function"
		},
		{
			"inputs": [],
			"name": "getPrice",
			"outputs": [
				{
					"internalType": "uint256",
					"name": "",
					"type": "uint256"
				}
			],
			"stateMutability": "view",
			"type": "function"
		}
	]
}