{
	"data": {
		"bytecode": {
			"linkReferences": {},
			"object": "6080604052674563918244f400005f553480156019575f80fd5b50610548806100275f395ff3fe608060405260043610610033575f3560e01c80636e5b6b281461003757806398d5fdca14610073578063b60d42881461009d575b5f80fd5b348015610042575f80fd5b5061005d60048036038101906100589190610209565b6100a7565b60405161006a9190610243565b60405180910390f35b34801561007e575f80fd5b506100876100df565b6040516100949190610243565b60405180910390f35b6100a5610184565b005b5f806100b16100df565b90505f670de0b6b3a764000084836100c99190610289565b6100d391906102f7565b90508092505050919050565b5f8073694aa1769357215de4fac081bf1f309adc32530690505f8173ffffffffffffffffffffffffffffffffffffffff1663feaf968c6040518163ffffffff1660e01b815260040160a060405180830381865afa158015610142573d5f803e3d5ffd5b505050506040513d601f19601f8201168201806040525081019061016691906103ad565b5050509150506402540be4008161017d9190610424565b9250505090565b5f5461018f346100a7565b10156101d0576040517f08c379a00000000000000000000000000000000000000000000000000000000081526004016101c7906104f4565b60405180910390fd5b565b5f80fd5b5f819050919050565b6101e8816101d6565b81146101f2575f80fd5b50565b5f81359050610203816101df565b92915050565b5f6020828403121561021e5761021d6101d2565b5b5f61022b848285016101f5565b91505092915050565b61023d816101d6565b82525050565b5f6020820190506102565f830184610234565b92915050565b7f4e487b71000000000000000000000000000000000000000000000000000000005f52601160045260245ffd5b5f610293826101d6565b915061029e836101d6565b92508282026102ac816101d6565b915082820484148315176102c3576102c261025c565b5b5092915050565b7f4e487b71000000000000000000000000000000000000000000000000000000005f52601260045260245ffd5b5f610301826101d6565b915061030c836101d6565b92508261031c5761031b6102ca565b5b828204905092915050565b5f69ffffffffffffffffffff82169050919050565b61034581610327565b811461034f575f80fd5b50565b5f815190506103608161033c565b92915050565b5f819050919050565b61037881610366565b8114610382575f80fd5b50565b5f815190506103938161036f565b92915050565b5f815190506103a7816101df565b92915050565b5f805f805f60a086880312156103c6576103c56101d2565b5b5f6103d388828901610352565b95505060206103e488828901610385565b94505060406103f588828901610399565b935050606061040688828901610399565b925050608061041788828901610352565b9150509295509295909350565b5f61042e82610366565b915061043983610366565b925082820261044781610366565b91507f800000000000000000000000000000000000000000000000000000000000000084145f8412161561047e5761047d61025c565b5b82820584148315176104935761049261025c565b5b5092915050565b5f82825260208201905092915050565b7f4469646e27742073656e6420656e6f75676820446f6c6c6172732100000000005f82015250565b5f6104de601b8361049a565b91506104e9826104aa565b602082019050919050565b5f6020820190508181035f83015261050b816104d2565b905091905056fea264697066735822122080239eee7cffd0db8b979674587838dbda88f9af9366563c77ccc3e8a831ae1f64736f6c634300081a0033",
			"opcodes": "PUSH1 0x80 PUSH1 0x40 MSTORE PUSH8 0x4563918244F40000 PUSH0 SSTORE CALLVALUE DUP1 ISZERO PUSH1 0x19 JUMPI PUSH0 DUP1 REVERT JUMPDEST POP PUSH2 0x548 DUP1 PUSH2 0x27 PUSH0 CODECOPY PUSH0 RETURN INVALID PUSH1 0x80 PUSH1 0x40 MSTORE PUSH1 0x4 CALLDATASIZE LT PUSH2 0x33 JUMPI PUSH0 CALLDATALOAD PUSH1 0xE0 SHR DUP1 PUSH4 0x6E5B6B28 EQ PUSH2 0x37 JUMPI DUP1 PUSH4 0x98D5FDCA EQ PUSH2 0x73 JUMPI DUP1 PUSH4 0xB60D4288 EQ PUSH2 0x9D JUMPI JUMPDEST PUSH0 DUP1 REVERT JUMPDEST CALLVALUE DUP1 ISZERO PUSH2 0x42 JUMPI PUSH0 DUP1 REVERT JUMPDEST POP PUSH2 0x5D PUSH1 0x4 DUP1 CALLDATASIZE SUB DUP2 ADD SWAP1 PUSH2 0x58 SWAP2 SWAP1 PUSH2 0x209 JUMP JUMPDEST PUSH2 0xA7 JUMP JUMPDEST PUSH1 0x40 MLOAD PUSH2 0x6A SWAP2 SWAP1 PUSH2 0x243 JUMP JUMPDEST PUSH1 0x40 MLOAD DUP1 SWAP2 SUB SWAP1 RETURN JUMPDEST CALLVALUE DUP1 ISZERO PUSH2 0x7E JUMPI PUSH0 DUP1 REVERT JUMPDEST POP PUSH2 0x87 PUSH2 0xDF JUMP JUMPDEST PUSH1 0x40 MLOAD PUSH2 0x94 SWAP2 SWAP1 PUSH2 0x243 JUMP JUMPDEST PUSH1 0x40 MLOAD DUP1 SWAP2 SUB SWAP1 RETURN JUMPDEST PUSH2 0xA5 PUSH2 0x184 JUMP JUMPDEST STOP JUMPDEST PUSH0 DUP1 PUSH2 0xB1 PUSH2 0xDF JUMP JUMPDEST SWAP1 POP PUSH0 PUSH8 0xDE0B6B3A7640000 DUP5 DUP4 PUSH2 0xC9 SWAP2 SWAP1 PUSH2 0x289 JUMP JUMPDEST PUSH2 0xD3 SWAP2 SWAP1 PUSH2 0x2F7 JUMP JUMPDEST SWAP1 POP DUP1 SWAP3 POP POP POP SWAP2 SWAP1 POP JUMP JUMPDEST PUSH0 DUP1 PUSH20 0x694AA1769357215DE4FAC081BF1F309ADC325306 SWAP1 POP PUSH0 DUP2 PUSH20 0xFFFFFFFFFFFFFFFFFFFFFFFFFFFFFFFFFFFFFFFF AND PUSH4 0xFEAF968C PUSH1 0x40 MLOAD DUP2 PUSH4 0xFFFFFFFF AND PUSH1 0xE0 SHL DUP2 MSTORE PUSH1 0x4 ADD PUSH1 0xA0 PUSH1 0x40 MLOAD DUP1 DUP4 SUB DUP2 DUP7 GAS STATICCALL ISZERO DUP1 ISZERO PUSH2 0x142 JUMPI RETURNDATASIZE PUSH0 DUP1 RETURNDATACOPY RETURNDATASIZE PUSH0 REVERT JUMPDEST POP POP POP POP PUSH1 0x40 MLOAD RETURNDATASIZE PUSH1 0x1F NOT PUSH1 0x1F DUP3 ADD AND DUP3 ADD DUP1 PUSH1 0x40 MSTORE POP DUP2 ADD SWAP1 PUSH2 0x166 SWAP2 SWAP1 PUSH2 0x3AD JUMP JUMPDEST POP POP POP SWAP2 POP POP PUSH5 0x2540BE400 DUP2 PUSH2 0x17D SWAP2 SWAP1 PUSH2 0x424 JUMP JUMPDEST SWAP3 POP POP POP SWAP1 JUMP JUMPDEST PUSH0 SLOAD PUSH2 0x18F CALLVALUE PUSH2 0xA7 JUMP JUMPDEST LT ISZERO PUSH2 0x1D0 JUMPI PUSH1 0x40 MLOAD PUSH32 0x8C379A000000000000000000000000000000000000000000000000000000000 DUP2 MSTORE PUSH1 0x4 ADD PUSH2 0x1C7 SWAP1 PUSH2 0x4F4 JUMP JUMPDEST PUSH1 0x40 MLOAD DUP1 SWAP2 SUB SWAP1 REVERT JUMPDEST JUMP JUMPDEST PUSH0 DUP1 REVERT JUMPDEST PUSH0 DUP2 SWAP1 POP SWAP2 SWAP1 POP JUMP JUMPDEST PUSH2 0x1E8 DUP2 PUSH2 0x1D6 JUMP JUMPDEST DUP2 EQ PUSH2 0x1F2 JUMPI PUSH0 DUP1 REVERT JUMPDEST POP JUMP JUMPDEST PUSH0 DUP2 CALLDATALOAD SWAP1 POP PUSH2 0x203 DUP2 PUSH2 0x1DF JUMP JUMPDEST SWAP3 SWAP2 POP POP JUMP JUMPDEST PUSH0 PUSH1 0x20 DUP3 DUP5 SUB SLT ISZERO PUSH2 0x21E JUMPI PUSH2 0x21D PUSH2 0x1D2 JUMP JUMPDEST JUMPDEST PUSH0 PUSH2 0x22B DUP5 DUP3 DUP6 ADD PUSH2 0x1F5 JUMP JUMPDEST SWAP2 POP POP SWAP3 SWAP2 POP POP JUMP JUMPDEST PUSH2 0x23D DUP2 PUSH2 0x1D6 JUMP JUMPDEST DUP3 MSTORE POP POP JUMP JUMPDEST PUSH0 PUSH1 0x20 DUP3 ADD SWAP1 POP PUSH2 0x256 PUSH0 DUP4 ADD DUP5 PUSH2 0x234 JUMP JUMPDEST SWAP3 SWAP2 POP POP JUMP JUMPDEST PUSH32 0x4E487B7100000000000000000000000000000000000000000000000000000000 PUSH0 MSTORE PUSH1 0x11 PUSH1 0x4 MSTORE PUSH1 0x24 PUSH0 REVERT JUMPDEST PUSH0 PUSH2 0x293 DUP3 PUSH2 0x1D6 JUMP JUMPDEST SWAP2 POP PUSH2 0x29E DUP4 PUSH2 0x1D6 JUMP JUMPDEST SWAP3 POP DUP3 DUP3 MUL PUSH2 0x2AC DUP2 PUSH2 0x1D6 JUMP JUMPDEST SWAP2 POP DUP3 DUP3 DIV DUP5 EQ DUP4 ISZERO OR PUSH2 0x2C3 JUMPI PUSH2 0x2C2 PUSH2 0x25C JUMP JUMPDEST JUMPDEST POP SWAP3 SWAP2 POP POP JUMP JUMPDEST PUSH32 0x4E487B7100000000000000000000000000000000000000000000000000000000 PUSH0 MSTORE PUSH1 0x12 PUSH1 0x4 MSTORE PUSH1 0x24 PUSH0 REVERT JUMPDEST PUSH0 PUSH2 0x301 DUP3 PUSH2 0x1D6 JUMP JUMPDEST SWAP2 POP PUSH2 0x30C DUP4 PUSH2 0x1D6 JUMP JUMPDEST SWAP3 POP DUP3 PUSH2 0x31C JUMPI PUSH2 0x31B PUSH2 0x2CA JUMP JUMPDEST JUMPDEST DUP3 DUP3 DIV SWAP1 POP SWAP3 SWAP2 POP POP JUMP JUMPDEST PUSH0 PUSH10 0xFFFFFFFFFFFFFFFFFFFF DUP3 AND SWAP1 POP SWAP2 SWAP1 POP JUMP JUMPDEST PUSH2 0x345 DUP2 PUSH2 0x327 JUMP JUMPDEST DUP2 EQ PUSH2 0x34F JUMPI PUSH0 DUP1 REVERT JUMPDEST POP JUMP JUMPDEST PUSH0 DUP2 MLOAD SWAP1 POP PUSH2 0x360 DUP2 PUSH2 0x33C JUMP JUMPDEST SWAP3 SWAP2 POP POP JUMP JUMPDEST PUSH0 DUP2 SWAP1 POP SWAP2 SWAP1 POP JUMP JUMPDEST PUSH2 0x378 DUP2 PUSH2 0x366 JUMP JUMPDEST DUP2 EQ PUSH2 0x382 JUMPI PUSH0 DUP1 REVERT JUMPDEST POP JUMP JUMPDEST PUSH0 DUP2 MLOAD SWAP1 POP PUSH2 0x393 DUP2 PUSH2 0x36F JUMP JUMPDEST SWAP3 SWAP2 POP POP JUMP JUMPDEST PUSH0 DUP2 MLOAD SWAP1 POP PUSH2 0x3A7 DUP2 PUSH2 0x1DF JUMP JUMPDEST SWAP3 SWAP2 POP POP JUMP JUMPDEST PUSH0 DUP1 PUSH0 DUP1 PUSH0 PUSH1 0xA0 DUP7 DUP9 SUB SLT ISZERO PUSH2 0x3C6 JUMPI PUSH2 0x3C5 PUSH2 0x1D2 JUMP JUMPDEST JUMPDEST PUSH0 PUSH2 0x3D3 DUP9 DUP3 DUP10 ADD PUSH2 0x352 JUMP JUMPDEST SWAP6 POP POP PUSH1 0x20 PUSH2 0x3E4 DUP9 DUP3 DUP10 ADD PUSH2 0x385 JUMP JUMPDEST SWAP5 POP POP PUSH1 0x40 PUSH2 0x3F5 DUP9 DUP3 DUP10 ADD PUSH2 0x399 JUMP JUMPDEST SWAP4 POP POP PUSH1 0x60 PUSH2 0x406 DUP9 DUP3 DUP10 ADD PUSH2 0x399 JUMP JUMPDEST SWAP3 POP POP PUSH1 0x80 PUSH2 0x417 DUP9 DUP3 DUP10 ADD PUSH2 0x352 JUMP JUMPDEST SWAP2 POP POP SWAP3 SWAP6 POP SWAP3 SWAP6 SWAP1 SWAP4 POP JUMP JUMPDEST PUSH0 PUSH2 0x42E DUP3 PUSH2 0x366 JUMP JUMPDEST SWAP2 POP PUSH2 0x439 DUP4 PUSH2 0x366 JUMP JUMPDEST SWAP3 POP DUP3 DUP3 MUL PUSH2 0x447 DUP2 PUSH2 0x366 JUMP JUMPDEST SWAP2 POP PUSH32 0x8000000000000000000000000000000000000000000000000000000000000000 DUP5 EQ PUSH0 DUP5 SLT AND ISZERO PUSH2 0x47E JUMPI PUSH2 0x47D PUSH2 0x25C JUMP JUMPDEST JUMPDEST DUP3 DUP3 SDIV DUP5 EQ DUP4 ISZERO OR PUSH2 0x493 JUMPI PUSH2 0x492 PUSH2 0x25C JUMP JUMPDEST JUMPDEST POP SWAP3 SWAP2 POP POP JUMP JUMPDEST PUSH0 DUP3 DUP3 MSTORE PUSH1 0x20 DUP3 ADD SWAP1 POP SWAP3 SWAP2 POP POP JUMP JUMPDEST PUSH32 0x4469646E27742073656E6420656E6F75676820446F6C6C617273210000000000 PUSH0 DUP3 ADD MSTORE POP JUMP JUMPDEST PUSH0 PUSH2 0x4DE PUSH1 0x1B DUP4 PUSH2 0x49A JUMP JUMPDEST SWAP2 POP PUSH2 0x4E9 DUP3 PUSH2 0x4AA JUMP JUMPDEST PUSH1 0x20 DUP3 ADD SWAP1 POP SWAP2 SWAP1 POP JUMP JUMPDEST PUSH0 PUSH1 0x20 DUP3 ADD SWAP1 POP DUP2 DUP2 SUB PUSH0 DUP4 ADD MSTORE PUSH2 0x50B DUP2 PUSH2 0x4D2 JUMP JUMPDEST SWAP1 POP SWAP2 SWAP1 POP JUMP INVALID LOG2 PUSH5 0x6970667358 0x22 SLT KECCAK256 DUP1 0x23 SWAP15 0xEE PUSH29 0xFFD0DB8B979674587838DBDA88F9AF9366563C77CCC3E8A831AE1F6473 PUSH16 0x6C634300081A00330000000000000000 "
		},
		"gasEstimates": {
			"creation": {
				"codeDepositCost": "270400",
				"executionCost": "22415",
				"totalCost": "292815"
			},
			"external": {
				"fund()": "infinite",
				"getConversionRate(uint256)": "infinite",
				"getPrice()": "infinite"
			}
		},
		"methodIdentifiers": {
			"fund()": "b60d4288",
			"getConversionRate(uint256)": "6e5b6b28",
			"getPrice()": "98d5fdca"
		}
	},
	"abi": [
		{
			"inputs": [],
			"name": "fund",
			"outputs": [],
			"stateMutability": "payable",
			"type": "function"
		},
		{
			"inputs": [
				{
					"internalType": "uint256",
					"name": "ethAmount",
					"type": "uint256"
				}
			],
			"name": "getConversionRate",
			"outputs": [
				{
					"internalType": "uint256",
					"name": "",
					"type": "uint256"
				}
			],
			"stateMutability": "view",
			"type": "function"
		},
		{
			"inputs": [],
			"name": "getPrice",
			"outputs": [
				{
					"internalType": "uint256",
					"name": "",
					"type": "uint256"
				}
			],
			"stateMutability": "view",
			"type": "function"
		}
	]
}