{
	"data": {
		"bytecode": {
			"linkReferences": {},
			"object": "6080604052600160005534801561001557600080fd5b50610218806100256000396000f3fe6080604052600436106100295760003560e01c806347f1aae71461002e578063b60d428814610059575b600080fd5b34801561003a57600080fd5b50610043610063565b60405161005091906100e7565b60405180910390f35b610061610069565b005b60005481565b600260008082825461007b9190610131565b92505081905550670de0b6b3a764000034116100cc576040517f08c379a00000000000000000000000000000000000000000000000000000000081526004016100c3906101c2565b60405180910390fd5b565b6000819050919050565b6100e1816100ce565b82525050565b60006020820190506100fc60008301846100d8565b92915050565b7f4e487b7100000000000000000000000000000000000000000000000000000000600052601160045260246000fd5b600061013c826100ce565b9150610147836100ce565b925082820190508082111561015f5761015e610102565b5b92915050565b600082825260208201905092915050565b7f4469646e27742073656e6420656e6f7567682045544821000000000000000000600082015250565b60006101ac601783610165565b91506101b782610176565b602082019050919050565b600060208201905081810360008301526101db8161019f565b905091905056fea2646970667358221220699430f7db8efa4f03607c616ac5a5b13c9ce57f2b78c3329406b9d3564173d164736f6c63430008120033",
			"opcodes": "PUSH1 0x80 PUSH1 0x40 MSTORE PUSH1 0x1 PUSH1 0x0 SSTORE CALLVALUE DUP1 ISZERO PUSH2 0x15 JUMPI PUSH1 0x0 DUP1 REVERT JUMPDEST POP PUSH2 0x218 DUP1 PUSH2 0x25 PUSH1 0x0 CODECOPY PUSH1 0x0 RETURN INVALID PUSH1 0x80 PUSH1 0x40 MSTORE PUSH1 0x4 CALLDATASIZE LT PUSH2 0x29 JUMPI PUSH1 0x0 CALLDATALOAD PUSH1 0xE0 SHR DUP1 PUSH4 0x47F1AAE7 EQ PUSH2 0x2E JUMPI DUP1 PUSH4 0xB60D4288 EQ PUSH2 0x59 JUMPI JUMPDEST PUSH1 0x0 DUP1 REVERT JUMPDEST CALLVALUE DUP1 ISZERO PUSH2 0x3A JUMPI PUSH1 0x0 DUP1 REVERT JUMPDEST POP PUSH2 0x43 PUSH2 0x63 JUMP JUMPDEST PUSH1 0x40 MLOAD PUSH2 0x50 SWAP2 SWAP1 PUSH2 0xE7 JUMP JUMPDEST PUSH1 0x40 MLOAD DUP1 SWAP2 SUB SWAP1 RETURN JUMPDEST PUSH2 0x61 PUSH2 0x69 JUMP JUMPDEST STOP JUMPDEST PUSH1 0x0 SLOAD DUP2 JUMP JUMPDEST PUSH1 0x2 PUSH1 0x0 DUP1 DUP3 DUP3 SLOAD PUSH2 0x7B SWAP2 SWAP1 PUSH2 0x131 JUMP JUMPDEST SWAP3 POP POP DUP2 SWAP1 SSTORE POP PUSH8 0xDE0B6B3A7640000 CALLVALUE GT PUSH2 0xCC JUMPI PUSH1 0x40 MLOAD PUSH32 0x8C379A000000000000000000000000000000000000000000000000000000000 DUP2 MSTORE PUSH1 0x4 ADD PUSH2 0xC3 SWAP1 PUSH2 0x1C2 JUMP JUMPDEST PUSH1 0x40 MLOAD DUP1 SWAP2 SUB SWAP1 REVERT JUMPDEST JUMP JUMPDEST PUSH1 0x0 DUP2 SWAP1 POP SWAP2 SWAP1 POP JUMP JUMPDEST PUSH2 0xE1 DUP2 PUSH2 0xCE JUMP JUMPDEST DUP3 MSTORE POP POP JUMP JUMPDEST PUSH1 0x0 PUSH1 0x20 DUP3 ADD SWAP1 POP PUSH2 0xFC PUSH1 0x0 DUP4 ADD DUP5 PUSH2 0xD8 JUMP JUMPDEST SWAP3 SWAP2 POP POP JUMP JUMPDEST PUSH32 0x4E487B7100000000000000000000000000000000000000000000000000000000 PUSH1 0x0 MSTORE PUSH1 0x11 PUSH1 0x4 MSTORE PUSH1 0x24 PUSH1 0x0 REVERT JUMPDEST PUSH1 0x0 PUSH2 0x13C DUP3 PUSH2 0xCE JUMP JUMPDEST SWAP2 POP PUSH2 0x147 DUP4 PUSH2 0xCE JUMP JUMPDEST SWAP3 POP DUP3 DUP3 ADD SWAP1 POP DUP1 DUP3 GT ISZERO PUSH2 0x15F JUMPI PUSH2 0x15E PUSH2 0x102 JUMP JUMPDEST JUMPDEST SWAP3 SWAP2 POP POP JUMP JUMPDEST PUSH1 0x0 DUP3 DUP3 MSTORE PUSH1 0x20 DUP3 ADD SWAP1 POP SWAP3 SWAP2 POP POP JUMP JUMPDEST PUSH32 0x4469646E27742073656E6420656E6F7567682045544821000000000000000000 PUSH1 0x0 DUP3 ADD MSTORE POP JUMP JUMPDEST PUSH1 0x0 PUSH2 0x1AC PUSH1 0x17 DUP4 PUSH2 0x165 JUMP JUMPDEST SWAP2 POP PUSH2 0x1B7 DUP3 PUSH2 0x176 JUMP JUMPDEST PUSH1 0x20 DUP3 ADD SWAP1 POP SWAP2 SWAP1 POP JUMP JUMPDEST PUSH1 0x0 PUSH1 0x20 DUP3 ADD SWAP1 POP DUP2 DUP2 SUB PUSH1 0x0 DUP4 ADD MSTORE PUSH2 0x1DB DUP2 PUSH2 0x19F JUMP JUMPDEST SWAP1 POP SWAP2 SWAP1 POP JUMP INVALID LOG2 PUSH5 0x6970667358 0x22 SLT KECCAK256 PUSH10 0x9430F7DB8EFA4F03607C PUSH2 0x6AC5 0xA5 0xB1 EXTCODECOPY SWAP13 0xE5 PUSH32 0x2B78C3329406B9D3564173D164736F6C63430008120033000000000000000000 "
		},
		"gasEstimates": {
			"creation": {
				"codeDepositCost": "107200",
				"executionCost": "22259",
				"totalCost": "129459"
			},
			"external": {
				"fund()": "infinite",
				"myValue()": "2407"
			}
		},
		"methodIdentifiers": {
			"fund()": "b60d4288",
			"myValue()": "47f1aae7"
		}
	},
	"abi": [
		{
			"inputs": [],
			"name": "fund",
			"outputs": [],
			"stateMutability": "payable",
			"type": "function"
		},
		{
			"inputs": [],
			"name": "myValue",
			"outputs": [
				{
					"internalType": "uint256",
					"name": "",
					"type": "uint256"
				}
			],
			"stateMutability": "view",
			"type": "function"
		}
	]
}